{
	"contracts/eth_wallet.sol": {
		"EtherWallet": {
			"abi": [
				{
					"inputs": [],
					"stateMutability": "nonpayable",
					"type": "constructor"
				},
				{
					"anonymous": false,
					"inputs": [
						{
							"indexed": false,
							"internalType": "string",
							"name": "funName",
							"type": "string"
						},
						{
							"indexed": false,
							"internalType": "address",
							"name": "from",
							"type": "address"
						},
						{
							"indexed": false,
							"internalType": "uint256",
							"name": "value",
							"type": "uint256"
						},
						{
							"indexed": false,
							"internalType": "bytes",
							"name": "data",
							"type": "bytes"
						}
					],
					"name": "Log",
					"type": "event"
				},
				{
					"inputs": [],
					"name": "owner",
					"outputs": [
						{
							"internalType": "address payable",
							"name": "",
							"type": "address"
						}
					],
					"stateMutability": "view",
					"type": "function"
				},
				{
					"inputs": [],
					"name": "withdraw1",
					"outputs": [],
					"stateMutability": "nonpayable",
					"type": "function"
				},
				{
					"inputs": [],
					"name": "withdraw2",
					"outputs": [],
					"stateMutability": "nonpayable",
					"type": "function"
				},
				{
					"inputs": [],
					"name": "withdraw3",
					"outputs": [],
					"stateMutability": "nonpayable",
					"type": "function"
				},
				{
					"stateMutability": "payable",
					"type": "receive"
				}
			],
			"devdoc": {
				"kind": "dev",
				"methods": {},
				"version": 1
			},
			"evm": {
				"assembly": "    /* \"contracts/eth_wallet.sol\":58:923  contract EtherWallet {... */\n  mstore(0x40, 0xa0)\n    /* \"contracts/eth_wallet.sol\":199:256  constructor() {... */\n  callvalue\n  dup1\n  iszero\n  tag_1\n  jumpi\n  0x00\n  dup1\n  revert\ntag_1:\n  pop\n    /* \"contracts/eth_wallet.sol\":238:248  msg.sender */\n  caller\n    /* \"contracts/eth_wallet.sol\":222:249  owner = payable(msg.sender) */\n  0xffffffffffffffffffffffffffffffffffffffff\n  and\n  0x80\n  dup2\n  0xffffffffffffffffffffffffffffffffffffffff\n  and\n  dup2\n  mstore\n  pop\n  pop\n    /* \"contracts/eth_wallet.sol\":58:923  contract EtherWallet {... */\n  mload(0x80)\n  codecopy(0x00, dataOffset(sub_0), dataSize(sub_0))\n  0x00\n  assignImmutable(\"0x2a80e1ef1d7842f27f2e6be0972bb708b9a135c38860dbe73c27c3486c34f4de\")\n  return(0x00, dataSize(sub_0))\nstop\n\nsub_0: assembly {\n        /* \"contracts/eth_wallet.sol\":58:923  contract EtherWallet {... */\n      mstore(0x40, 0x80)\n      jumpi(tag_1, lt(calldatasize, 0x04))\n      shr(0xe0, calldataload(0x00))\n      dup1\n      0x79efb0\n      eq\n      tag_3\n      jumpi\n      dup1\n      0x4fa3eeff\n      eq\n      tag_4\n      jumpi\n      dup1\n      0x8da5cb5b\n      eq\n      tag_5\n      jumpi\n      dup1\n      0xea98847b\n      eq\n      tag_6\n      jumpi\n      jump(tag_2)\n    tag_1:\n      jumpi(tag_2, calldatasize)\n        /* \"contracts/eth_wallet.sol\":304:345  Log(\"receive\", msg.sender, msg.value, \"\") */\n      0xf7f75251dee7d7fc22deac3247729ebe7c86541f35930bf10c2a4207479a3b6c\n        /* \"contracts/eth_wallet.sol\":319:329  msg.sender */\n      caller\n        /* \"contracts/eth_wallet.sol\":331:340  msg.value */\n      callvalue\n        /* \"contracts/eth_wallet.sol\":304:345  Log(\"receive\", msg.sender, msg.value, \"\") */\n      mload(0x40)\n      tag_9\n      swap3\n      swap2\n      swap1\n      tag_10\n      jump\t// in\n    tag_9:\n      mload(0x40)\n      dup1\n      swap2\n      sub\n      swap1\n      log1\n        /* \"contracts/eth_wallet.sol\":58:923  contract EtherWallet {... */\n      stop\n    tag_2:\n      0x00\n      dup1\n      revert\n        /* \"contracts/eth_wallet.sol\":358:506  function withdraw1() external {... */\n    tag_3:\n      callvalue\n      dup1\n      iszero\n      tag_11\n      jumpi\n      0x00\n      dup1\n      revert\n    tag_11:\n      pop\n      tag_12\n      tag_13\n      jump\t// in\n    tag_12:\n      stop\n        /* \"contracts/eth_wallet.sol\":717:921  function withdraw3() external {... */\n    tag_4:\n      callvalue\n      dup1\n      iszero\n      tag_14\n      jumpi\n      0x00\n      dup1\n      revert\n    tag_14:\n      pop\n      tag_15\n      tag_16\n      jump\t// in\n    tag_15:\n      stop\n        /* \"contracts/eth_wallet.sol\":85:123  address payable public immutable owner */\n    tag_5:\n      callvalue\n      dup1\n      iszero\n      tag_17\n      jumpi\n      0x00\n      dup1\n      revert\n    tag_17:\n      pop\n      tag_18\n      tag_19\n      jump\t// in\n    tag_18:\n      mload(0x40)\n      tag_20\n      swap2\n      swap1\n      tag_21\n      jump\t// in\n    tag_20:\n      mload(0x40)\n      dup1\n      swap2\n      sub\n      swap1\n      return\n        /* \"contracts/eth_wallet.sol\":512:711  function withdraw2() external {... */\n    tag_6:\n      callvalue\n      dup1\n      iszero\n      tag_22\n      jumpi\n      0x00\n      dup1\n      revert\n    tag_22:\n      pop\n      tag_23\n      tag_24\n      jump\t// in\n    tag_23:\n      stop\n        /* \"contracts/eth_wallet.sol\":358:506  function withdraw1() external {... */\n    tag_13:\n        /* \"contracts/eth_wallet.sol\":420:425  owner */\n      immutable(\"0x2a80e1ef1d7842f27f2e6be0972bb708b9a135c38860dbe73c27c3486c34f4de\")\n        /* \"contracts/eth_wallet.sol\":406:425  msg.sender == owner */\n      0xffffffffffffffffffffffffffffffffffffffff\n      and\n        /* \"contracts/eth_wallet.sol\":406:416  msg.sender */\n      caller\n        /* \"contracts/eth_wallet.sol\":406:425  msg.sender == owner */\n      0xffffffffffffffffffffffffffffffffffffffff\n      and\n      eq\n        /* \"contracts/eth_wallet.sol\":398:438  require(msg.sender == owner,\"Not owner\") */\n      tag_26\n      jumpi\n      mload(0x40)\n      0x08c379a000000000000000000000000000000000000000000000000000000000\n      dup2\n      mstore\n      0x04\n      add\n      tag_27\n      swap1\n      tag_28\n      jump\t// in\n    tag_27:\n      mload(0x40)\n      dup1\n      swap2\n      sub\n      swap1\n      revert\n    tag_26:\n        /* \"contracts/eth_wallet.sol\":456:466  msg.sender */\n      caller\n        /* \"contracts/eth_wallet.sol\":448:476  payable(msg.sender).transfer */\n      0xffffffffffffffffffffffffffffffffffffffff\n      and\n        /* \"contracts/eth_wallet.sol\":448:499  payable(msg.sender).transfer(address(this).balance) */\n      0x08fc\n        /* \"contracts/eth_wallet.sol\":477:498  address(this).balance */\n      selfbalance\n        /* \"contracts/eth_wallet.sol\":448:499  payable(msg.sender).transfer(address(this).balance) */\n      swap1\n      dup2\n      iszero\n      mul\n      swap1\n      mload(0x40)\n      0x00\n      mload(0x40)\n      dup1\n      dup4\n      sub\n      dup2\n      dup6\n      dup9\n      dup9\n      call\n      swap4\n      pop\n      pop\n      pop\n      pop\n      iszero\n      dup1\n      iszero\n      tag_30\n      jumpi\n      returndatasize\n      0x00\n      dup1\n      returndatacopy\n      revert(0x00, returndatasize)\n    tag_30:\n      pop\n        /* \"contracts/eth_wallet.sol\":358:506  function withdraw1() external {... */\n      jump\t// out\n        /* \"contracts/eth_wallet.sol\":717:921  function withdraw3() external {... */\n    tag_16:\n        /* \"contracts/eth_wallet.sol\":779:784  owner */\n      immutable(\"0x2a80e1ef1d7842f27f2e6be0972bb708b9a135c38860dbe73c27c3486c34f4de\")\n        /* \"contracts/eth_wallet.sol\":765:784  msg.sender == owner */\n      0xffffffffffffffffffffffffffffffffffffffff\n      and\n        /* \"contracts/eth_wallet.sol\":765:775  msg.sender */\n      caller\n        /* \"contracts/eth_wallet.sol\":765:784  msg.sender == owner */\n      0xffffffffffffffffffffffffffffffffffffffff\n      and\n      eq\n        /* \"contracts/eth_wallet.sol\":757:797  require(msg.sender == owner,\"Not owner\") */\n      tag_32\n      jumpi\n      mload(0x40)\n      0x08c379a000000000000000000000000000000000000000000000000000000000\n      dup2\n      mstore\n      0x04\n      add\n      tag_33\n      swap1\n      tag_28\n      jump\t// in\n    tag_33:\n      mload(0x40)\n      dup1\n      swap2\n      sub\n      swap1\n      revert\n    tag_32:\n        /* \"contracts/eth_wallet.sol\":808:820  bool success */\n      0x00\n        /* \"contracts/eth_wallet.sol\":825:835  msg.sender */\n      caller\n        /* \"contracts/eth_wallet.sol\":825:840  msg.sender.call */\n      0xffffffffffffffffffffffffffffffffffffffff\n      and\n        /* \"contracts/eth_wallet.sol\":848:869  address(this).balance */\n      selfbalance\n        /* \"contracts/eth_wallet.sol\":825:874  msg.sender.call{value: address(this).balance}(\"\") */\n      mload(0x40)\n      tag_34\n      swap1\n      tag_35\n      jump\t// in\n    tag_34:\n      0x00\n      mload(0x40)\n      dup1\n      dup4\n      sub\n      dup2\n      dup6\n      dup8\n      gas\n      call\n      swap3\n      pop\n      pop\n      pop\n      returndatasize\n      dup1\n      0x00\n      dup2\n      eq\n      tag_38\n      jumpi\n      mload(0x40)\n      swap2\n      pop\n      and(add(returndatasize, 0x3f), not(0x1f))\n      dup3\n      add\n      0x40\n      mstore\n      returndatasize\n      dup3\n      mstore\n      returndatasize\n      0x00\n      0x20\n      dup5\n      add\n      returndatacopy\n      jump(tag_37)\n    tag_38:\n      0x60\n      swap2\n      pop\n    tag_37:\n      pop\n        /* \"contracts/eth_wallet.sol\":807:874  (bool success,) = msg.sender.call{value: address(this).balance}(\"\") */\n      pop\n      swap1\n      pop\n        /* \"contracts/eth_wallet.sol\":892:899  success */\n      dup1\n        /* \"contracts/eth_wallet.sol\":884:914  require(success,\"Call Failed\") */\n      tag_39\n      jumpi\n      mload(0x40)\n      0x08c379a000000000000000000000000000000000000000000000000000000000\n      dup2\n      mstore\n      0x04\n      add\n      tag_40\n      swap1\n      tag_41\n      jump\t// in\n    tag_40:\n      mload(0x40)\n      dup1\n      swap2\n      sub\n      swap1\n      revert\n    tag_39:\n        /* \"contracts/eth_wallet.sol\":747:921  {... */\n      pop\n        /* \"contracts/eth_wallet.sol\":717:921  function withdraw3() external {... */\n      jump\t// out\n        /* \"contracts/eth_wallet.sol\":85:123  address payable public immutable owner */\n    tag_19:\n      immutable(\"0x2a80e1ef1d7842f27f2e6be0972bb708b9a135c38860dbe73c27c3486c34f4de\")\n      dup2\n      jump\t// out\n        /* \"contracts/eth_wallet.sol\":512:711  function withdraw2() external {... */\n    tag_24:\n        /* \"contracts/eth_wallet.sol\":574:579  owner */\n      immutable(\"0x2a80e1ef1d7842f27f2e6be0972bb708b9a135c38860dbe73c27c3486c34f4de\")\n        /* \"contracts/eth_wallet.sol\":560:579  msg.sender == owner */\n      0xffffffffffffffffffffffffffffffffffffffff\n      and\n        /* \"contracts/eth_wallet.sol\":560:570  msg.sender */\n      caller\n        /* \"contracts/eth_wallet.sol\":560:579  msg.sender == owner */\n      0xffffffffffffffffffffffffffffffffffffffff\n      and\n      eq\n        /* \"contracts/eth_wallet.sol\":552:592  require(msg.sender == owner,\"Not owner\") */\n      tag_43\n      jumpi\n      mload(0x40)\n      0x08c379a000000000000000000000000000000000000000000000000000000000\n      dup2\n      mstore\n      0x04\n      add\n      tag_44\n      swap1\n      tag_28\n      jump\t// in\n    tag_44:\n      mload(0x40)\n      dup1\n      swap2\n      sub\n      swap1\n      revert\n    tag_43:\n        /* \"contracts/eth_wallet.sol\":602:614  bool success */\n      0x00\n        /* \"contracts/eth_wallet.sol\":625:635  msg.sender */\n      caller\n        /* \"contracts/eth_wallet.sol\":617:641  payable(msg.sender).send */\n      0xffffffffffffffffffffffffffffffffffffffff\n      and\n        /* \"contracts/eth_wallet.sol\":617:664  payable(msg.sender).send(address(this).balance) */\n      0x08fc\n        /* \"contracts/eth_wallet.sol\":642:663  address(this).balance */\n      selfbalance\n        /* \"contracts/eth_wallet.sol\":617:664  payable(msg.sender).send(address(this).balance) */\n      swap1\n      dup2\n      iszero\n      mul\n      swap1\n      mload(0x40)\n      0x00\n      mload(0x40)\n      dup1\n      dup4\n      sub\n      dup2\n      dup6\n      dup9\n      dup9\n      call\n      swap4\n      pop\n      pop\n      pop\n      pop\n        /* \"contracts/eth_wallet.sol\":602:664  bool success = payable(msg.sender).send(address(this).balance) */\n      swap1\n      pop\n        /* \"contracts/eth_wallet.sol\":682:689  success */\n      dup1\n        /* \"contracts/eth_wallet.sol\":674:704  require(success,\"Call Failed\") */\n      tag_46\n      jumpi\n      mload(0x40)\n      0x08c379a000000000000000000000000000000000000000000000000000000000\n      dup2\n      mstore\n      0x04\n      add\n      tag_47\n      swap1\n      tag_41\n      jump\t// in\n    tag_47:\n      mload(0x40)\n      dup1\n      swap2\n      sub\n      swap1\n      revert\n    tag_46:\n        /* \"contracts/eth_wallet.sol\":542:711  {... */\n      pop\n        /* \"contracts/eth_wallet.sol\":512:711  function withdraw2() external {... */\n      jump\t// out\n        /* \"#utility.yul\":7:176   */\n    tag_48:\n        /* \"#utility.yul\":91:102   */\n      0x00\n        /* \"#utility.yul\":125:131   */\n      dup3\n        /* \"#utility.yul\":120:123   */\n      dup3\n        /* \"#utility.yul\":113:132   */\n      mstore\n        /* \"#utility.yul\":165:169   */\n      0x20\n        /* \"#utility.yul\":160:163   */\n      dup3\n        /* \"#utility.yul\":156:170   */\n      add\n        /* \"#utility.yul\":141:170   */\n      swap1\n      pop\n        /* \"#utility.yul\":7:176   */\n      swap3\n      swap2\n      pop\n      pop\n      jump\t// out\n        /* \"#utility.yul\":182:339   */\n    tag_49:\n        /* \"#utility.yul\":322:331   */\n      0x7265636569766500000000000000000000000000000000000000000000000000\n        /* \"#utility.yul\":318:319   */\n      0x00\n        /* \"#utility.yul\":310:316   */\n      dup3\n        /* \"#utility.yul\":306:320   */\n      add\n        /* \"#utility.yul\":299:332   */\n      mstore\n        /* \"#utility.yul\":182:339   */\n      pop\n      jump\t// out\n        /* \"#utility.yul\":345:710   */\n    tag_50:\n        /* \"#utility.yul\":487:490   */\n      0x00\n        /* \"#utility.yul\":508:574   */\n      tag_71\n        /* \"#utility.yul\":572:573   */\n      0x07\n        /* \"#utility.yul\":567:570   */\n      dup4\n        /* \"#utility.yul\":508:574   */\n      tag_48\n      jump\t// in\n    tag_71:\n        /* \"#utility.yul\":501:574   */\n      swap2\n      pop\n        /* \"#utility.yul\":583:676   */\n      tag_72\n        /* \"#utility.yul\":672:675   */\n      dup3\n        /* \"#utility.yul\":583:676   */\n      tag_49\n      jump\t// in\n    tag_72:\n        /* \"#utility.yul\":701:703   */\n      0x20\n        /* \"#utility.yul\":696:699   */\n      dup3\n        /* \"#utility.yul\":692:704   */\n      add\n        /* \"#utility.yul\":685:704   */\n      swap1\n      pop\n        /* \"#utility.yul\":345:710   */\n      swap2\n      swap1\n      pop\n      jump\t// out\n        /* \"#utility.yul\":716:842   */\n    tag_51:\n        /* \"#utility.yul\":753:760   */\n      0x00\n        /* \"#utility.yul\":793:835   */\n      0xffffffffffffffffffffffffffffffffffffffff\n        /* \"#utility.yul\":786:791   */\n      dup3\n        /* \"#utility.yul\":782:836   */\n      and\n        /* \"#utility.yul\":771:836   */\n      swap1\n      pop\n        /* \"#utility.yul\":716:842   */\n      swap2\n      swap1\n      pop\n      jump\t// out\n        /* \"#utility.yul\":848:944   */\n    tag_52:\n        /* \"#utility.yul\":885:892   */\n      0x00\n        /* \"#utility.yul\":914:938   */\n      tag_75\n        /* \"#utility.yul\":932:937   */\n      dup3\n        /* \"#utility.yul\":914:938   */\n      tag_51\n      jump\t// in\n    tag_75:\n        /* \"#utility.yul\":903:938   */\n      swap1\n      pop\n        /* \"#utility.yul\":848:944   */\n      swap2\n      swap1\n      pop\n      jump\t// out\n        /* \"#utility.yul\":950:1068   */\n    tag_53:\n        /* \"#utility.yul\":1037:1061   */\n      tag_77\n        /* \"#utility.yul\":1055:1060   */\n      dup2\n        /* \"#utility.yul\":1037:1061   */\n      tag_52\n      jump\t// in\n    tag_77:\n        /* \"#utility.yul\":1032:1035   */\n      dup3\n        /* \"#utility.yul\":1025:1062   */\n      mstore\n        /* \"#utility.yul\":950:1068   */\n      pop\n      pop\n      jump\t// out\n        /* \"#utility.yul\":1074:1151   */\n    tag_54:\n        /* \"#utility.yul\":1111:1118   */\n      0x00\n        /* \"#utility.yul\":1140:1145   */\n      dup2\n        /* \"#utility.yul\":1129:1145   */\n      swap1\n      pop\n        /* \"#utility.yul\":1074:1151   */\n      swap2\n      swap1\n      pop\n      jump\t// out\n        /* \"#utility.yul\":1157:1275   */\n    tag_55:\n        /* \"#utility.yul\":1244:1268   */\n      tag_80\n        /* \"#utility.yul\":1262:1267   */\n      dup2\n        /* \"#utility.yul\":1244:1268   */\n      tag_54\n      jump\t// in\n    tag_80:\n        /* \"#utility.yul\":1239:1242   */\n      dup3\n        /* \"#utility.yul\":1232:1269   */\n      mstore\n        /* \"#utility.yul\":1157:1275   */\n      pop\n      pop\n      jump\t// out\n        /* \"#utility.yul\":1281:1449   */\n    tag_56:\n        /* \"#utility.yul\":1364:1375   */\n      0x00\n        /* \"#utility.yul\":1398:1404   */\n      dup3\n        /* \"#utility.yul\":1393:1396   */\n      dup3\n        /* \"#utility.yul\":1386:1405   */\n      mstore\n        /* \"#utility.yul\":1438:1442   */\n      0x20\n        /* \"#utility.yul\":1433:1436   */\n      dup3\n        /* \"#utility.yul\":1429:1443   */\n      add\n        /* \"#utility.yul\":1414:1443   */\n      swap1\n      pop\n        /* \"#utility.yul\":1281:1449   */\n      swap3\n      swap2\n      pop\n      pop\n      jump\t// out\n        /* \"#utility.yul\":1455:1569   */\n    tag_57:\n      pop\n      jump\t// out\n        /* \"#utility.yul\":1575:1937   */\n    tag_58:\n        /* \"#utility.yul\":1716:1719   */\n      0x00\n        /* \"#utility.yul\":1737:1802   */\n      tag_84\n        /* \"#utility.yul\":1800:1801   */\n      0x00\n        /* \"#utility.yul\":1795:1798   */\n      dup4\n        /* \"#utility.yul\":1737:1802   */\n      tag_56\n      jump\t// in\n    tag_84:\n        /* \"#utility.yul\":1730:1802   */\n      swap2\n      pop\n        /* \"#utility.yul\":1811:1904   */\n      tag_85\n        /* \"#utility.yul\":1900:1903   */\n      dup3\n        /* \"#utility.yul\":1811:1904   */\n      tag_57\n      jump\t// in\n    tag_85:\n        /* \"#utility.yul\":1929:1930   */\n      0x00\n        /* \"#utility.yul\":1924:1927   */\n      dup3\n        /* \"#utility.yul\":1920:1931   */\n      add\n        /* \"#utility.yul\":1913:1931   */\n      swap1\n      pop\n        /* \"#utility.yul\":1575:1937   */\n      swap2\n      swap1\n      pop\n      jump\t// out\n        /* \"#utility.yul\":1943:2888   */\n    tag_10:\n        /* \"#utility.yul\":2265:2269   */\n      0x00\n        /* \"#utility.yul\":2303:2306   */\n      0x80\n        /* \"#utility.yul\":2292:2301   */\n      dup3\n        /* \"#utility.yul\":2288:2307   */\n      add\n        /* \"#utility.yul\":2280:2307   */\n      swap1\n      pop\n        /* \"#utility.yul\":2353:2362   */\n      dup2\n        /* \"#utility.yul\":2347:2351   */\n      dup2\n        /* \"#utility.yul\":2343:2363   */\n      sub\n        /* \"#utility.yul\":2339:2340   */\n      0x00\n        /* \"#utility.yul\":2328:2337   */\n      dup4\n        /* \"#utility.yul\":2324:2341   */\n      add\n        /* \"#utility.yul\":2317:2364   */\n      mstore\n        /* \"#utility.yul\":2381:2512   */\n      tag_87\n        /* \"#utility.yul\":2507:2511   */\n      dup2\n        /* \"#utility.yul\":2381:2512   */\n      tag_50\n      jump\t// in\n    tag_87:\n        /* \"#utility.yul\":2373:2512   */\n      swap1\n      pop\n        /* \"#utility.yul\":2522:2594   */\n      tag_88\n        /* \"#utility.yul\":2590:2592   */\n      0x20\n        /* \"#utility.yul\":2579:2588   */\n      dup4\n        /* \"#utility.yul\":2575:2593   */\n      add\n        /* \"#utility.yul\":2566:2572   */\n      dup6\n        /* \"#utility.yul\":2522:2594   */\n      tag_53\n      jump\t// in\n    tag_88:\n        /* \"#utility.yul\":2604:2676   */\n      tag_89\n        /* \"#utility.yul\":2672:2674   */\n      0x40\n        /* \"#utility.yul\":2661:2670   */\n      dup4\n        /* \"#utility.yul\":2657:2675   */\n      add\n        /* \"#utility.yul\":2648:2654   */\n      dup5\n        /* \"#utility.yul\":2604:2676   */\n      tag_55\n      jump\t// in\n    tag_89:\n        /* \"#utility.yul\":2723:2732   */\n      dup2\n        /* \"#utility.yul\":2717:2721   */\n      dup2\n        /* \"#utility.yul\":2713:2733   */\n      sub\n        /* \"#utility.yul\":2708:2710   */\n      0x60\n        /* \"#utility.yul\":2697:2706   */\n      dup4\n        /* \"#utility.yul\":2693:2711   */\n      add\n        /* \"#utility.yul\":2686:2734   */\n      mstore\n        /* \"#utility.yul\":2751:2881   */\n      tag_90\n        /* \"#utility.yul\":2876:2880   */\n      dup2\n        /* \"#utility.yul\":2751:2881   */\n      tag_58\n      jump\t// in\n    tag_90:\n        /* \"#utility.yul\":2743:2881   */\n      swap1\n      pop\n        /* \"#utility.yul\":1943:2888   */\n      swap4\n      swap3\n      pop\n      pop\n      pop\n      jump\t// out\n        /* \"#utility.yul\":2894:2998   */\n    tag_59:\n        /* \"#utility.yul\":2939:2946   */\n      0x00\n        /* \"#utility.yul\":2968:2992   */\n      tag_92\n        /* \"#utility.yul\":2986:2991   */\n      dup3\n        /* \"#utility.yul\":2968:2992   */\n      tag_51\n      jump\t// in\n    tag_92:\n        /* \"#utility.yul\":2957:2992   */\n      swap1\n      pop\n        /* \"#utility.yul\":2894:2998   */\n      swap2\n      swap1\n      pop\n      jump\t// out\n        /* \"#utility.yul\":3004:3146   */\n    tag_60:\n        /* \"#utility.yul\":3107:3139   */\n      tag_94\n        /* \"#utility.yul\":3133:3138   */\n      dup2\n        /* \"#utility.yul\":3107:3139   */\n      tag_59\n      jump\t// in\n    tag_94:\n        /* \"#utility.yul\":3102:3105   */\n      dup3\n        /* \"#utility.yul\":3095:3140   */\n      mstore\n        /* \"#utility.yul\":3004:3146   */\n      pop\n      pop\n      jump\t// out\n        /* \"#utility.yul\":3152:3406   */\n    tag_21:\n        /* \"#utility.yul\":3261:3265   */\n      0x00\n        /* \"#utility.yul\":3299:3301   */\n      0x20\n        /* \"#utility.yul\":3288:3297   */\n      dup3\n        /* \"#utility.yul\":3284:3302   */\n      add\n        /* \"#utility.yul\":3276:3302   */\n      swap1\n      pop\n        /* \"#utility.yul\":3312:3399   */\n      tag_96\n        /* \"#utility.yul\":3396:3397   */\n      0x00\n        /* \"#utility.yul\":3385:3394   */\n      dup4\n        /* \"#utility.yul\":3381:3398   */\n      add\n        /* \"#utility.yul\":3372:3378   */\n      dup5\n        /* \"#utility.yul\":3312:3399   */\n      tag_60\n      jump\t// in\n    tag_96:\n        /* \"#utility.yul\":3152:3406   */\n      swap3\n      swap2\n      pop\n      pop\n      jump\t// out\n        /* \"#utility.yul\":3412:3571   */\n    tag_61:\n        /* \"#utility.yul\":3552:3563   */\n      0x4e6f74206f776e65720000000000000000000000000000000000000000000000\n        /* \"#utility.yul\":3548:3549   */\n      0x00\n        /* \"#utility.yul\":3540:3546   */\n      dup3\n        /* \"#utility.yul\":3536:3550   */\n      add\n        /* \"#utility.yul\":3529:3564   */\n      mstore\n        /* \"#utility.yul\":3412:3571   */\n      pop\n      jump\t// out\n        /* \"#utility.yul\":3577:3942   */\n    tag_62:\n        /* \"#utility.yul\":3719:3722   */\n      0x00\n        /* \"#utility.yul\":3740:3806   */\n      tag_99\n        /* \"#utility.yul\":3804:3805   */\n      0x09\n        /* \"#utility.yul\":3799:3802   */\n      dup4\n        /* \"#utility.yul\":3740:3806   */\n      tag_48\n      jump\t// in\n    tag_99:\n        /* \"#utility.yul\":3733:3806   */\n      swap2\n      pop\n        /* \"#utility.yul\":3815:3908   */\n      tag_100\n        /* \"#utility.yul\":3904:3907   */\n      dup3\n        /* \"#utility.yul\":3815:3908   */\n      tag_61\n      jump\t// in\n    tag_100:\n        /* \"#utility.yul\":3933:3935   */\n      0x20\n        /* \"#utility.yul\":3928:3931   */\n      dup3\n        /* \"#utility.yul\":3924:3936   */\n      add\n        /* \"#utility.yul\":3917:3936   */\n      swap1\n      pop\n        /* \"#utility.yul\":3577:3942   */\n      swap2\n      swap1\n      pop\n      jump\t// out\n        /* \"#utility.yul\":3948:4367   */\n    tag_28:\n        /* \"#utility.yul\":4114:4118   */\n      0x00\n        /* \"#utility.yul\":4152:4154   */\n      0x20\n        /* \"#utility.yul\":4141:4150   */\n      dup3\n        /* \"#utility.yul\":4137:4155   */\n      add\n        /* \"#utility.yul\":4129:4155   */\n      swap1\n      pop\n        /* \"#utility.yul\":4201:4210   */\n      dup2\n        /* \"#utility.yul\":4195:4199   */\n      dup2\n        /* \"#utility.yul\":4191:4211   */\n      sub\n        /* \"#utility.yul\":4187:4188   */\n      0x00\n        /* \"#utility.yul\":4176:4185   */\n      dup4\n        /* \"#utility.yul\":4172:4189   */\n      add\n        /* \"#utility.yul\":4165:4212   */\n      mstore\n        /* \"#utility.yul\":4229:4360   */\n      tag_102\n        /* \"#utility.yul\":4355:4359   */\n      dup2\n        /* \"#utility.yul\":4229:4360   */\n      tag_62\n      jump\t// in\n    tag_102:\n        /* \"#utility.yul\":4221:4360   */\n      swap1\n      pop\n        /* \"#utility.yul\":3948:4367   */\n      swap2\n      swap1\n      pop\n      jump\t// out\n        /* \"#utility.yul\":4373:4520   */\n    tag_63:\n        /* \"#utility.yul\":4474:4485   */\n      0x00\n        /* \"#utility.yul\":4511:4514   */\n      dup2\n        /* \"#utility.yul\":4496:4514   */\n      swap1\n      pop\n        /* \"#utility.yul\":4373:4520   */\n      swap3\n      swap2\n      pop\n      pop\n      jump\t// out\n        /* \"#utility.yul\":4526:4924   */\n    tag_64:\n        /* \"#utility.yul\":4685:4688   */\n      0x00\n        /* \"#utility.yul\":4706:4789   */\n      tag_105\n        /* \"#utility.yul\":4787:4788   */\n      0x00\n        /* \"#utility.yul\":4782:4785   */\n      dup4\n        /* \"#utility.yul\":4706:4789   */\n      tag_63\n      jump\t// in\n    tag_105:\n        /* \"#utility.yul\":4699:4789   */\n      swap2\n      pop\n        /* \"#utility.yul\":4798:4891   */\n      tag_106\n        /* \"#utility.yul\":4887:4890   */\n      dup3\n        /* \"#utility.yul\":4798:4891   */\n      tag_57\n      jump\t// in\n    tag_106:\n        /* \"#utility.yul\":4916:4917   */\n      0x00\n        /* \"#utility.yul\":4911:4914   */\n      dup3\n        /* \"#utility.yul\":4907:4918   */\n      add\n        /* \"#utility.yul\":4900:4918   */\n      swap1\n      pop\n        /* \"#utility.yul\":4526:4924   */\n      swap2\n      swap1\n      pop\n      jump\t// out\n        /* \"#utility.yul\":4930:5309   */\n    tag_35:\n        /* \"#utility.yul\":5114:5117   */\n      0x00\n        /* \"#utility.yul\":5136:5283   */\n      tag_108\n        /* \"#utility.yul\":5279:5282   */\n      dup3\n        /* \"#utility.yul\":5136:5283   */\n      tag_64\n      jump\t// in\n    tag_108:\n        /* \"#utility.yul\":5129:5283   */\n      swap2\n      pop\n        /* \"#utility.yul\":5300:5303   */\n      dup2\n        /* \"#utility.yul\":5293:5303   */\n      swap1\n      pop\n        /* \"#utility.yul\":4930:5309   */\n      swap2\n      swap1\n      pop\n      jump\t// out\n        /* \"#utility.yul\":5315:5476   */\n    tag_65:\n        /* \"#utility.yul\":5455:5468   */\n      0x43616c6c204661696c6564000000000000000000000000000000000000000000\n        /* \"#utility.yul\":5451:5452   */\n      0x00\n        /* \"#utility.yul\":5443:5449   */\n      dup3\n        /* \"#utility.yul\":5439:5453   */\n      add\n        /* \"#utility.yul\":5432:5469   */\n      mstore\n        /* \"#utility.yul\":5315:5476   */\n      pop\n      jump\t// out\n        /* \"#utility.yul\":5482:5848   */\n    tag_66:\n        /* \"#utility.yul\":5624:5627   */\n      0x00\n        /* \"#utility.yul\":5645:5712   */\n      tag_111\n        /* \"#utility.yul\":5709:5711   */\n      0x0b\n        /* \"#utility.yul\":5704:5707   */\n      dup4\n        /* \"#utility.yul\":5645:5712   */\n      tag_48\n      jump\t// in\n    tag_111:\n        /* \"#utility.yul\":5638:5712   */\n      swap2\n      pop\n        /* \"#utility.yul\":5721:5814   */\n      tag_112\n        /* \"#utility.yul\":5810:5813   */\n      dup3\n        /* \"#utility.yul\":5721:5814   */\n      tag_65\n      jump\t// in\n    tag_112:\n        /* \"#utility.yul\":5839:5841   */\n      0x20\n        /* \"#utility.yul\":5834:5837   */\n      dup3\n        /* \"#utility.yul\":5830:5842   */\n      add\n        /* \"#utility.yul\":5823:5842   */\n      swap1\n      pop\n        /* \"#utility.yul\":5482:5848   */\n      swap2\n      swap1\n      pop\n      jump\t// out\n        /* \"#utility.yul\":5854:6273   */\n    tag_41:\n        /* \"#utility.yul\":6020:6024   */\n      0x00\n        /* \"#utility.yul\":6058:6060   */\n      0x20\n        /* \"#utility.yul\":6047:6056   */\n      dup3\n        /* \"#utility.yul\":6043:6061   */\n      add\n        /* \"#utility.yul\":6035:6061   */\n      swap1\n      pop\n        /* \"#utility.yul\":6107:6116   */\n      dup2\n        /* \"#utility.yul\":6101:6105   */\n      dup2\n        /* \"#utility.yul\":6097:6117   */\n      sub\n        /* \"#utility.yul\":6093:6094   */\n      0x00\n        /* \"#utility.yul\":6082:6091   */\n      dup4\n        /* \"#utility.yul\":6078:6095   */\n      add\n        /* \"#utility.yul\":6071:6118   */\n      mstore\n        /* \"#utility.yul\":6135:6266   */\n      tag_114\n        /* \"#utility.yul\":6261:6265   */\n      dup2\n        /* \"#utility.yul\":6135:6266   */\n      tag_66\n      jump\t// in\n    tag_114:\n        /* \"#utility.yul\":6127:6266   */\n      swap1\n      pop\n        /* \"#utility.yul\":5854:6273   */\n      swap2\n      swap1\n      pop\n      jump\t// out\n\n    auxdata: 0xa2646970667358221220ed751e85fd4faaeaefb274ebaa00936545765de3263dbfd88a3b2dbd81cbba2964736f6c634300081a0033\n}\n",
				"bytecode": {
					"linkReferences": {},
					"object": "60a0604052348015600e575f80fd5b503373ffffffffffffffffffffffffffffffffffffffff1660808173ffffffffffffffffffffffffffffffffffffffff16815250506080516106d861006f5f395f818160f3015281816101c701528181610300015261032401526106d85ff3fe608060405260043610610041575f3560e01c806279efb0146100855780634fa3eeff1461009b5780638da5cb5b146100b1578063ea98847b146100db57610081565b36610081577ff7f75251dee7d7fc22deac3247729ebe7c86541f35930bf10c2a4207479a3b6c333460405161007792919061050e565b60405180910390a1005b5f80fd5b348015610090575f80fd5b506100996100f1565b005b3480156100a6575f80fd5b506100af6101c5565b005b3480156100bc575f80fd5b506100c56102fe565b6040516100d2919061057b565b60405180910390f35b3480156100e6575f80fd5b506100ef610322565b005b7f000000000000000000000000000000000000000000000000000000000000000073ffffffffffffffffffffffffffffffffffffffff163373ffffffffffffffffffffffffffffffffffffffff161461017f576040517f08c379a0000000000000000000000000000000000000000000000000000000008152600401610176906105de565b60405180910390fd5b3373ffffffffffffffffffffffffffffffffffffffff166108fc4790811502906040515f60405180830381858888f193505050501580156101c2573d5f803e3d5ffd5b50565b7f000000000000000000000000000000000000000000000000000000000000000073ffffffffffffffffffffffffffffffffffffffff163373ffffffffffffffffffffffffffffffffffffffff1614610253576040517f08c379a000000000000000000000000000000000000000000000000000000000815260040161024a906105de565b60405180910390fd5b5f3373ffffffffffffffffffffffffffffffffffffffff164760405161027890610626565b5f6040518083038185875af1925050503d805f81146102b2576040519150601f19603f3d011682016040523d82523d5f602084013e6102b7565b606091505b50509050806102fb576040517f08c379a00000000000000000000000000000000000000000000000000000000081526004016102f290610684565b60405180910390fd5b50565b7f000000000000000000000000000000000000000000000000000000000000000081565b7f000000000000000000000000000000000000000000000000000000000000000073ffffffffffffffffffffffffffffffffffffffff163373ffffffffffffffffffffffffffffffffffffffff16146103b0576040517f08c379a00000000000000000000000000000000000000000000000000000000081526004016103a7906105de565b60405180910390fd5b5f3373ffffffffffffffffffffffffffffffffffffffff166108fc4790811502906040515f60405180830381858888f19350505050905080610427576040517f08c379a000000000000000000000000000000000000000000000000000000000815260040161041e90610684565b60405180910390fd5b50565b5f82825260208201905092915050565b7f72656365697665000000000000000000000000000000000000000000000000005f82015250565b5f61046e60078361042a565b91506104798261043a565b602082019050919050565b5f73ffffffffffffffffffffffffffffffffffffffff82169050919050565b5f6104ad82610484565b9050919050565b6104bd816104a3565b82525050565b5f819050919050565b6104d5816104c3565b82525050565b5f82825260208201905092915050565b50565b5f6104f95f836104db565b9150610504826104eb565b5f82019050919050565b5f6080820190508181035f83015261052581610462565b905061053460208301856104b4565b61054160408301846104cc565b8181036060830152610552816104ee565b90509392505050565b5f61056582610484565b9050919050565b6105758161055b565b82525050565b5f60208201905061058e5f83018461056c565b92915050565b7f4e6f74206f776e657200000000000000000000000000000000000000000000005f82015250565b5f6105c860098361042a565b91506105d382610594565b602082019050919050565b5f6020820190508181035f8301526105f5816105bc565b9050919050565b5f81905092915050565b5f6106115f836105fc565b915061061c826104eb565b5f82019050919050565b5f61063082610606565b9150819050919050565b7f43616c6c204661696c65640000000000000000000000000000000000000000005f82015250565b5f61066e600b8361042a565b91506106798261063a565b602082019050919050565b5f6020820190508181035f83015261069b81610662565b905091905056fea2646970667358221220ed751e85fd4faaeaefb274ebaa00936545765de3263dbfd88a3b2dbd81cbba2964736f6c634300081a0033",
					"opcodes": "PUSH1 0xA0 PUSH1 0x40 MSTORE CALLVALUE DUP1 ISZERO PUSH1 0xE JUMPI PUSH0 DUP1 REVERT JUMPDEST POP CALLER PUSH20 0xFFFFFFFFFFFFFFFFFFFFFFFFFFFFFFFFFFFFFFFF AND PUSH1 0x80 DUP2 PUSH20 0xFFFFFFFFFFFFFFFFFFFFFFFFFFFFFFFFFFFFFFFF AND DUP2 MSTORE POP POP PUSH1 0x80 MLOAD PUSH2 0x6D8 PUSH2 0x6F PUSH0 CODECOPY PUSH0 DUP2 DUP2 PUSH1 0xF3 ADD MSTORE DUP2 DUP2 PUSH2 0x1C7 ADD MSTORE DUP2 DUP2 PUSH2 0x300 ADD MSTORE PUSH2 0x324 ADD MSTORE PUSH2 0x6D8 PUSH0 RETURN INVALID PUSH1 0x80 PUSH1 0x40 MSTORE PUSH1 0x4 CALLDATASIZE LT PUSH2 0x41 JUMPI PUSH0 CALLDATALOAD PUSH1 0xE0 SHR DUP1 PUSH3 0x79EFB0 EQ PUSH2 0x85 JUMPI DUP1 PUSH4 0x4FA3EEFF EQ PUSH2 0x9B JUMPI DUP1 PUSH4 0x8DA5CB5B EQ PUSH2 0xB1 JUMPI DUP1 PUSH4 0xEA98847B EQ PUSH2 0xDB JUMPI PUSH2 0x81 JUMP JUMPDEST CALLDATASIZE PUSH2 0x81 JUMPI PUSH32 0xF7F75251DEE7D7FC22DEAC3247729EBE7C86541F35930BF10C2A4207479A3B6C CALLER CALLVALUE PUSH1 0x40 MLOAD PUSH2 0x77 SWAP3 SWAP2 SWAP1 PUSH2 0x50E JUMP JUMPDEST PUSH1 0x40 MLOAD DUP1 SWAP2 SUB SWAP1 LOG1 STOP JUMPDEST PUSH0 DUP1 REVERT JUMPDEST CALLVALUE DUP1 ISZERO PUSH2 0x90 JUMPI PUSH0 DUP1 REVERT JUMPDEST POP PUSH2 0x99 PUSH2 0xF1 JUMP JUMPDEST STOP JUMPDEST CALLVALUE DUP1 ISZERO PUSH2 0xA6 JUMPI PUSH0 DUP1 REVERT JUMPDEST POP PUSH2 0xAF PUSH2 0x1C5 JUMP JUMPDEST STOP JUMPDEST CALLVALUE DUP1 ISZERO PUSH2 0xBC JUMPI PUSH0 DUP1 REVERT JUMPDEST POP PUSH2 0xC5 PUSH2 0x2FE JUMP JUMPDEST PUSH1 0x40 MLOAD PUSH2 0xD2 SWAP2 SWAP1 PUSH2 0x57B JUMP JUMPDEST PUSH1 0x40 MLOAD DUP1 SWAP2 SUB SWAP1 RETURN JUMPDEST CALLVALUE DUP1 ISZERO PUSH2 0xE6 JUMPI PUSH0 DUP1 REVERT JUMPDEST POP PUSH2 0xEF PUSH2 0x322 JUMP JUMPDEST STOP JUMPDEST PUSH32 0x0 PUSH20 0xFFFFFFFFFFFFFFFFFFFFFFFFFFFFFFFFFFFFFFFF AND CALLER PUSH20 0xFFFFFFFFFFFFFFFFFFFFFFFFFFFFFFFFFFFFFFFF AND EQ PUSH2 0x17F JUMPI PUSH1 0x40 MLOAD PUSH32 0x8C379A000000000000000000000000000000000000000000000000000000000 DUP2 MSTORE PUSH1 0x4 ADD PUSH2 0x176 SWAP1 PUSH2 0x5DE JUMP JUMPDEST PUSH1 0x40 MLOAD DUP1 SWAP2 SUB SWAP1 REVERT JUMPDEST CALLER PUSH20 0xFFFFFFFFFFFFFFFFFFFFFFFFFFFFFFFFFFFFFFFF AND PUSH2 0x8FC SELFBALANCE SWAP1 DUP2 ISZERO MUL SWAP1 PUSH1 0x40 MLOAD PUSH0 PUSH1 0x40 MLOAD DUP1 DUP4 SUB DUP2 DUP6 DUP9 DUP9 CALL SWAP4 POP POP POP POP ISZERO DUP1 ISZERO PUSH2 0x1C2 JUMPI RETURNDATASIZE PUSH0 DUP1 RETURNDATACOPY RETURNDATASIZE PUSH0 REVERT JUMPDEST POP JUMP JUMPDEST PUSH32 0x0 PUSH20 0xFFFFFFFFFFFFFFFFFFFFFFFFFFFFFFFFFFFFFFFF AND CALLER PUSH20 0xFFFFFFFFFFFFFFFFFFFFFFFFFFFFFFFFFFFFFFFF AND EQ PUSH2 0x253 JUMPI PUSH1 0x40 MLOAD PUSH32 0x8C379A000000000000000000000000000000000000000000000000000000000 DUP2 MSTORE PUSH1 0x4 ADD PUSH2 0x24A SWAP1 PUSH2 0x5DE JUMP JUMPDEST PUSH1 0x40 MLOAD DUP1 SWAP2 SUB SWAP1 REVERT JUMPDEST PUSH0 CALLER PUSH20 0xFFFFFFFFFFFFFFFFFFFFFFFFFFFFFFFFFFFFFFFF AND SELFBALANCE PUSH1 0x40 MLOAD PUSH2 0x278 SWAP1 PUSH2 0x626 JUMP JUMPDEST PUSH0 PUSH1 0x40 MLOAD DUP1 DUP4 SUB DUP2 DUP6 DUP8 GAS CALL SWAP3 POP POP POP RETURNDATASIZE DUP1 PUSH0 DUP2 EQ PUSH2 0x2B2 JUMPI PUSH1 0x40 MLOAD SWAP2 POP PUSH1 0x1F NOT PUSH1 0x3F RETURNDATASIZE ADD AND DUP3 ADD PUSH1 0x40 MSTORE RETURNDATASIZE DUP3 MSTORE RETURNDATASIZE PUSH0 PUSH1 0x20 DUP5 ADD RETURNDATACOPY PUSH2 0x2B7 JUMP JUMPDEST PUSH1 0x60 SWAP2 POP JUMPDEST POP POP SWAP1 POP DUP1 PUSH2 0x2FB JUMPI PUSH1 0x40 MLOAD PUSH32 0x8C379A000000000000000000000000000000000000000000000000000000000 DUP2 MSTORE PUSH1 0x4 ADD PUSH2 0x2F2 SWAP1 PUSH2 0x684 JUMP JUMPDEST PUSH1 0x40 MLOAD DUP1 SWAP2 SUB SWAP1 REVERT JUMPDEST POP JUMP JUMPDEST PUSH32 0x0 DUP2 JUMP JUMPDEST PUSH32 0x0 PUSH20 0xFFFFFFFFFFFFFFFFFFFFFFFFFFFFFFFFFFFFFFFF AND CALLER PUSH20 0xFFFFFFFFFFFFFFFFFFFFFFFFFFFFFFFFFFFFFFFF AND EQ PUSH2 0x3B0 JUMPI PUSH1 0x40 MLOAD PUSH32 0x8C379A000000000000000000000000000000000000000000000000000000000 DUP2 MSTORE PUSH1 0x4 ADD PUSH2 0x3A7 SWAP1 PUSH2 0x5DE JUMP JUMPDEST PUSH1 0x40 MLOAD DUP1 SWAP2 SUB SWAP1 REVERT JUMPDEST PUSH0 CALLER PUSH20 0xFFFFFFFFFFFFFFFFFFFFFFFFFFFFFFFFFFFFFFFF AND PUSH2 0x8FC SELFBALANCE SWAP1 DUP2 ISZERO MUL SWAP1 PUSH1 0x40 MLOAD PUSH0 PUSH1 0x40 MLOAD DUP1 DUP4 SUB DUP2 DUP6 DUP9 DUP9 CALL SWAP4 POP POP POP POP SWAP1 POP DUP1 PUSH2 0x427 JUMPI PUSH1 0x40 MLOAD PUSH32 0x8C379A000000000000000000000000000000000000000000000000000000000 DUP2 MSTORE PUSH1 0x4 ADD PUSH2 0x41E SWAP1 PUSH2 0x684 JUMP JUMPDEST PUSH1 0x40 MLOAD DUP1 SWAP2 SUB SWAP1 REVERT JUMPDEST POP JUMP JUMPDEST PUSH0 DUP3 DUP3 MSTORE PUSH1 0x20 DUP3 ADD SWAP1 POP SWAP3 SWAP2 POP POP JUMP JUMPDEST PUSH32 0x7265636569766500000000000000000000000000000000000000000000000000 PUSH0 DUP3 ADD MSTORE POP JUMP JUMPDEST PUSH0 PUSH2 0x46E PUSH1 0x7 DUP4 PUSH2 0x42A JUMP JUMPDEST SWAP2 POP PUSH2 0x479 DUP3 PUSH2 0x43A JUMP JUMPDEST PUSH1 0x20 DUP3 ADD SWAP1 POP SWAP2 SWAP1 POP JUMP JUMPDEST PUSH0 PUSH20 0xFFFFFFFFFFFFFFFFFFFFFFFFFFFFFFFFFFFFFFFF DUP3 AND SWAP1 POP SWAP2 SWAP1 POP JUMP JUMPDEST PUSH0 PUSH2 0x4AD DUP3 PUSH2 0x484 JUMP JUMPDEST SWAP1 POP SWAP2 SWAP1 POP JUMP JUMPDEST PUSH2 0x4BD DUP2 PUSH2 0x4A3 JUMP JUMPDEST DUP3 MSTORE POP POP JUMP JUMPDEST PUSH0 DUP2 SWAP1 POP SWAP2 SWAP1 POP JUMP JUMPDEST PUSH2 0x4D5 DUP2 PUSH2 0x4C3 JUMP JUMPDEST DUP3 MSTORE POP POP JUMP JUMPDEST PUSH0 DUP3 DUP3 MSTORE PUSH1 0x20 DUP3 ADD SWAP1 POP SWAP3 SWAP2 POP POP JUMP JUMPDEST POP JUMP JUMPDEST PUSH0 PUSH2 0x4F9 PUSH0 DUP4 PUSH2 0x4DB JUMP JUMPDEST SWAP2 POP PUSH2 0x504 DUP3 PUSH2 0x4EB JUMP JUMPDEST PUSH0 DUP3 ADD SWAP1 POP SWAP2 SWAP1 POP JUMP JUMPDEST PUSH0 PUSH1 0x80 DUP3 ADD SWAP1 POP DUP2 DUP2 SUB PUSH0 DUP4 ADD MSTORE PUSH2 0x525 DUP2 PUSH2 0x462 JUMP JUMPDEST SWAP1 POP PUSH2 0x534 PUSH1 0x20 DUP4 ADD DUP6 PUSH2 0x4B4 JUMP JUMPDEST PUSH2 0x541 PUSH1 0x40 DUP4 ADD DUP5 PUSH2 0x4CC JUMP JUMPDEST DUP2 DUP2 SUB PUSH1 0x60 DUP4 ADD MSTORE PUSH2 0x552 DUP2 PUSH2 0x4EE JUMP JUMPDEST SWAP1 POP SWAP4 SWAP3 POP POP POP JUMP JUMPDEST PUSH0 PUSH2 0x565 DUP3 PUSH2 0x484 JUMP JUMPDEST SWAP1 POP SWAP2 SWAP1 POP JUMP JUMPDEST PUSH2 0x575 DUP2 PUSH2 0x55B JUMP JUMPDEST DUP3 MSTORE POP POP JUMP JUMPDEST PUSH0 PUSH1 0x20 DUP3 ADD SWAP1 POP PUSH2 0x58E PUSH0 DUP4 ADD DUP5 PUSH2 0x56C JUMP JUMPDEST SWAP3 SWAP2 POP POP JUMP JUMPDEST PUSH32 0x4E6F74206F776E65720000000000000000000000000000000000000000000000 PUSH0 DUP3 ADD MSTORE POP JUMP JUMPDEST PUSH0 PUSH2 0x5C8 PUSH1 0x9 DUP4 PUSH2 0x42A JUMP JUMPDEST SWAP2 POP PUSH2 0x5D3 DUP3 PUSH2 0x594 JUMP JUMPDEST PUSH1 0x20 DUP3 ADD SWAP1 POP SWAP2 SWAP1 POP JUMP JUMPDEST PUSH0 PUSH1 0x20 DUP3 ADD SWAP1 POP DUP2 DUP2 SUB PUSH0 DUP4 ADD MSTORE PUSH2 0x5F5 DUP2 PUSH2 0x5BC JUMP JUMPDEST SWAP1 POP SWAP2 SWAP1 POP JUMP JUMPDEST PUSH0 DUP2 SWAP1 POP SWAP3 SWAP2 POP POP JUMP JUMPDEST PUSH0 PUSH2 0x611 PUSH0 DUP4 PUSH2 0x5FC JUMP JUMPDEST SWAP2 POP PUSH2 0x61C DUP3 PUSH2 0x4EB JUMP JUMPDEST PUSH0 DUP3 ADD SWAP1 POP SWAP2 SWAP1 POP JUMP JUMPDEST PUSH0 PUSH2 0x630 DUP3 PUSH2 0x606 JUMP JUMPDEST SWAP2 POP DUP2 SWAP1 POP SWAP2 SWAP1 POP JUMP JUMPDEST PUSH32 0x43616C6C204661696C6564000000000000000000000000000000000000000000 PUSH0 DUP3 ADD MSTORE POP JUMP JUMPDEST PUSH0 PUSH2 0x66E PUSH1 0xB DUP4 PUSH2 0x42A JUMP JUMPDEST SWAP2 POP PUSH2 0x679 DUP3 PUSH2 0x63A JUMP JUMPDEST PUSH1 0x20 DUP3 ADD SWAP1 POP SWAP2 SWAP1 POP JUMP JUMPDEST PUSH0 PUSH1 0x20 DUP3 ADD SWAP1 POP DUP2 DUP2 SUB PUSH0 DUP4 ADD MSTORE PUSH2 0x69B DUP2 PUSH2 0x662 JUMP JUMPDEST SWAP1 POP SWAP2 SWAP1 POP JUMP INVALID LOG2 PUSH5 0x6970667358 0x22 SLT KECCAK256 0xED PUSH22 0x1E85FD4FAAEAEFB274EBAA00936545765DE3263DBFD8 DUP11 EXTCODESIZE 0x2D 0xBD DUP2 0xCB 0xBA 0x29 PUSH5 0x736F6C6343 STOP ADDMOD BYTE STOP CALLER "
				},
				"gasEstimates": {
					"creation": {
						"codeDepositCost": "350400",
						"executionCost": "infinite",
						"totalCost": "infinite"
					},
					"external": {
						"owner()": "infinite",
						"withdraw1()": "infinite",
						"withdraw2()": "infinite",
						"withdraw3()": "infinite"
					}
				},
				"methodIdentifiers": {
					"owner()": "8da5cb5b",
					"withdraw1()": "0079efb0",
					"withdraw2()": "ea98847b",
					"withdraw3()": "4fa3eeff"
				}
			},
			"storageLayout": {
				"storage": [],
				"types": null
			},
			"userdoc": {
				"kind": "user",
				"methods": {},
				"version": 1
			}
		}
	}
}