{
	"contracts/piggy_bank.sol": {
		"AdvancedVault": {
			"abi": [
				{
					"inputs": [],
					"stateMutability": "nonpayable",
					"type": "constructor"
				},
				{
					"inputs": [
						{
							"internalType": "address",
							"name": "target",
							"type": "address"
						}
					],
					"name": "AddressEmptyCode",
					"type": "error"
				},
				{
					"inputs": [
						{
							"internalType": "address",
							"name": "account",
							"type": "address"
						}
					],
					"name": "AddressInsufficientBalance",
					"type": "error"
				},
				{
					"inputs": [],
					"name": "FailedInnerCall",
					"type": "error"
				},
				{
					"inputs": [
						{
							"internalType": "address",
							"name": "token",
							"type": "address"
						}
					],
					"name": "SafeERC20FailedOperation",
					"type": "error"
				},
				{
					"anonymous": false,
					"inputs": [
						{
							"indexed": true,
							"internalType": "address",
							"name": "sender",
							"type": "address"
						},
						{
							"indexed": false,
							"internalType": "uint256",
							"name": "amount",
							"type": "uint256"
						}
					],
					"name": "Deposit",
					"type": "event"
				},
				{
					"anonymous": false,
					"inputs": [
						{
							"indexed": true,
							"internalType": "address",
							"name": "sender",
							"type": "address"
						},
						{
							"indexed": true,
							"internalType": "address",
							"name": "token",
							"type": "address"
						},
						{
							"indexed": false,
							"internalType": "uint256",
							"name": "tokenId",
							"type": "uint256"
						}
					],
					"name": "NFTDeposit",
					"type": "event"
				},
				{
					"anonymous": false,
					"inputs": [
						{
							"indexed": true,
							"internalType": "address",
							"name": "recipient",
							"type": "address"
						},
						{
							"indexed": true,
							"internalType": "address",
							"name": "token",
							"type": "address"
						},
						{
							"indexed": false,
							"internalType": "uint256",
							"name": "tokenId",
							"type": "uint256"
						}
					],
					"name": "NFTWithdrawal",
					"type": "event"
				},
				{
					"anonymous": false,
					"inputs": [
						{
							"indexed": true,
							"internalType": "address",
							"name": "sender",
							"type": "address"
						},
						{
							"indexed": true,
							"internalType": "address",
							"name": "token",
							"type": "address"
						},
						{
							"indexed": false,
							"internalType": "uint256",
							"name": "amount",
							"type": "uint256"
						}
					],
					"name": "TokenDeposit",
					"type": "event"
				},
				{
					"anonymous": false,
					"inputs": [
						{
							"indexed": true,
							"internalType": "address",
							"name": "recipient",
							"type": "address"
						},
						{
							"indexed": true,
							"internalType": "address",
							"name": "token",
							"type": "address"
						},
						{
							"indexed": false,
							"internalType": "uint256",
							"name": "amount",
							"type": "uint256"
						}
					],
					"name": "TokenWithdrawal",
					"type": "event"
				},
				{
					"anonymous": false,
					"inputs": [
						{
							"indexed": true,
							"internalType": "address",
							"name": "recipient",
							"type": "address"
						},
						{
							"indexed": false,
							"internalType": "uint256",
							"name": "amount",
							"type": "uint256"
						}
					],
					"name": "Withdrawal",
					"type": "event"
				},
				{
					"inputs": [],
					"name": "deposit",
					"outputs": [],
					"stateMutability": "payable",
					"type": "function"
				},
				{
					"inputs": [
						{
							"internalType": "address",
							"name": "tokenAddress",
							"type": "address"
						},
						{
							"internalType": "uint256",
							"name": "amount",
							"type": "uint256"
						}
					],
					"name": "depositERC20",
					"outputs": [],
					"stateMutability": "nonpayable",
					"type": "function"
				},
				{
					"inputs": [
						{
							"internalType": "address",
							"name": "tokenAddress",
							"type": "address"
						},
						{
							"internalType": "uint256",
							"name": "tokenId",
							"type": "uint256"
						}
					],
					"name": "depositERC721",
					"outputs": [],
					"stateMutability": "nonpayable",
					"type": "function"
				},
				{
					"inputs": [],
					"name": "getBalance",
					"outputs": [
						{
							"internalType": "uint256",
							"name": "",
							"type": "uint256"
						}
					],
					"stateMutability": "view",
					"type": "function"
				},
				{
					"inputs": [
						{
							"internalType": "address",
							"name": "tokenAddress",
							"type": "address"
						}
					],
					"name": "getERC20Balance",
					"outputs": [
						{
							"internalType": "uint256",
							"name": "",
							"type": "uint256"
						}
					],
					"stateMutability": "view",
					"type": "function"
				},
				{
					"inputs": [
						{
							"internalType": "address",
							"name": "tokenAddress",
							"type": "address"
						},
						{
							"internalType": "uint256",
							"name": "tokenId",
							"type": "uint256"
						}
					],
					"name": "hasERC721",
					"outputs": [
						{
							"internalType": "bool",
							"name": "",
							"type": "bool"
						}
					],
					"stateMutability": "view",
					"type": "function"
				},
				{
					"inputs": [],
					"name": "owner",
					"outputs": [
						{
							"internalType": "address",
							"name": "",
							"type": "address"
						}
					],
					"stateMutability": "view",
					"type": "function"
				},
				{
					"inputs": [],
					"name": "withdrawAllETH",
					"outputs": [],
					"stateMutability": "nonpayable",
					"type": "function"
				},
				{
					"inputs": [
						{
							"internalType": "address",
							"name": "tokenAddress",
							"type": "address"
						}
					],
					"name": "withdrawERC20",
					"outputs": [],
					"stateMutability": "nonpayable",
					"type": "function"
				},
				{
					"inputs": [
						{
							"internalType": "address",
							"name": "tokenAddress",
							"type": "address"
						},
						{
							"internalType": "uint256",
							"name": "tokenId",
							"type": "uint256"
						}
					],
					"name": "withdrawERC721",
					"outputs": [],
					"stateMutability": "nonpayable",
					"type": "function"
				}
			],
			"devdoc": {
				"errors": {
					"AddressEmptyCode(address)": [
						{
							"details": "There's no code at `target` (it is not a contract)."
						}
					],
					"AddressInsufficientBalance(address)": [
						{
							"details": "The ETH balance of the account is not enough to perform the operation."
						}
					],
					"FailedInnerCall()": [
						{
							"details": "A call to an address target failed. The target may have reverted."
						}
					],
					"SafeERC20FailedOperation(address)": [
						{
							"details": "An operation with an ERC20 token failed."
						}
					]
				},
				"kind": "dev",
				"methods": {},
				"version": 1
			},
			"evm": {
				"assembly": "    /* \"contracts/piggy_bank.sol\":304:3500  contract AdvancedVault is ReentrancyGuard {... */\n  mstore(0x40, 0x80)\n    /* \"contracts/piggy_bank.sol\":899:948  constructor() {... */\n  callvalue\n  dup1\n  iszero\n  tag_1\n  jumpi\n  0x00\n  dup1\n  revert\ntag_1:\n  pop\n    /* \"@openzeppelin/contracts/security/ReentrancyGuard.sol\":1716:1717  1 */\n  0x01\n    /* \"@openzeppelin/contracts/security/ReentrancyGuard.sol\":1821:1828  _status */\n  0x00\n    /* \"@openzeppelin/contracts/security/ReentrancyGuard.sol\":1821:1843  _status = _NOT_ENTERED */\n  dup2\n  swap1\n  sstore\n  pop\n    /* \"contracts/piggy_bank.sol\":931:941  msg.sender */\n  caller\n    /* \"contracts/piggy_bank.sol\":923:928  owner */\n  0x01\n  0x00\n    /* \"contracts/piggy_bank.sol\":923:941  owner = msg.sender */\n  0x0100\n  exp\n  dup2\n  sload\n  dup2\n  0xffffffffffffffffffffffffffffffffffffffff\n  mul\n  not\n  and\n  swap1\n  dup4\n  0xffffffffffffffffffffffffffffffffffffffff\n  and\n  mul\n  or\n  swap1\n  sstore\n  pop\n    /* \"contracts/piggy_bank.sol\":304:3500  contract AdvancedVault is ReentrancyGuard {... */\n  dataSize(sub_0)\n  dup1\n  dataOffset(sub_0)\n  0x00\n  codecopy\n  0x00\n  return\nstop\n\nsub_0: assembly {\n        /* \"contracts/piggy_bank.sol\":304:3500  contract AdvancedVault is ReentrancyGuard {... */\n      mstore(0x40, 0x80)\n      jumpi(tag_1, lt(calldatasize, 0x04))\n      shr(0xe0, calldataload(0x00))\n      dup1\n      0xb588d225\n      gt\n      tag_12\n      jumpi\n      dup1\n      0xb588d225\n      eq\n      tag_7\n      jumpi\n      dup1\n      0xd0e30db0\n      eq\n      tag_8\n      jumpi\n      dup1\n      0xd29a4bf6\n      eq\n      tag_9\n      jumpi\n      dup1\n      0xf3e414f8\n      eq\n      tag_10\n      jumpi\n      dup1\n      0xf4f3b200\n      eq\n      tag_11\n      jumpi\n      jump(tag_1)\n    tag_12:\n      dup1\n      0x12065fe0\n      eq\n      tag_2\n      jumpi\n      dup1\n      0x8da5cb5b\n      eq\n      tag_3\n      jumpi\n      dup1\n      0x90386bbf\n      eq\n      tag_4\n      jumpi\n      dup1\n      0x97feb926\n      eq\n      tag_5\n      jumpi\n      dup1\n      0xaa2d4ecf\n      eq\n      tag_6\n      jumpi\n    tag_1:\n      0x00\n      dup1\n      revert\n        /* \"contracts/piggy_bank.sol\":2985:3082  function getBalance() public view returns (uint256) {... */\n    tag_2:\n      callvalue\n      dup1\n      iszero\n      tag_13\n      jumpi\n      0x00\n      dup1\n      revert\n    tag_13:\n      pop\n      tag_14\n      tag_15\n      jump\t// in\n    tag_14:\n      mload(0x40)\n      tag_16\n      swap2\n      swap1\n      tag_17\n      jump\t// in\n    tag_16:\n      mload(0x40)\n      dup1\n      swap2\n      sub\n      swap1\n      return\n        /* \"contracts/piggy_bank.sol\":385:405  address public owner */\n    tag_3:\n      callvalue\n      dup1\n      iszero\n      tag_18\n      jumpi\n      0x00\n      dup1\n      revert\n    tag_18:\n      pop\n      tag_19\n      tag_20\n      jump\t// in\n    tag_19:\n      mload(0x40)\n      tag_21\n      swap2\n      swap1\n      tag_22\n      jump\t// in\n    tag_21:\n      mload(0x40)\n      dup1\n      swap2\n      sub\n      swap1\n      return\n        /* \"contracts/piggy_bank.sol\":1834:2156  function withdrawAllETH() public onlyOwner nonReentrant {... */\n    tag_4:\n      callvalue\n      dup1\n      iszero\n      tag_23\n      jumpi\n      0x00\n      dup1\n      revert\n    tag_23:\n      pop\n      tag_24\n      tag_25\n      jump\t// in\n    tag_24:\n      stop\n        /* \"contracts/piggy_bank.sol\":1245:1492  function depositERC20(address tokenAddress, uint256 amount) public {... */\n    tag_5:\n      callvalue\n      dup1\n      iszero\n      tag_26\n      jumpi\n      0x00\n      dup1\n      revert\n    tag_26:\n      pop\n      tag_27\n      0x04\n      dup1\n      calldatasize\n      sub\n      dup2\n      add\n      swap1\n      tag_28\n      swap2\n      swap1\n      tag_29\n      jump\t// in\n    tag_28:\n      tag_30\n      jump\t// in\n    tag_27:\n      stop\n        /* \"contracts/piggy_bank.sol\":3334:3498  function hasERC721(address tokenAddress, uint256 tokenId) public view returns (bool) {... */\n    tag_6:\n      callvalue\n      dup1\n      iszero\n      tag_31\n      jumpi\n      0x00\n      dup1\n      revert\n    tag_31:\n      pop\n      tag_32\n      0x04\n      dup1\n      calldatasize\n      sub\n      dup2\n      add\n      swap1\n      tag_33\n      swap2\n      swap1\n      tag_29\n      jump\t// in\n    tag_33:\n      tag_34\n      jump\t// in\n    tag_32:\n      mload(0x40)\n      tag_35\n      swap2\n      swap1\n      tag_36\n      jump\t// in\n    tag_35:\n      mload(0x40)\n      dup1\n      swap2\n      sub\n      swap1\n      return\n        /* \"contracts/piggy_bank.sol\":3127:3273  function getERC20Balance(address tokenAddress) public view returns (uint256) {... */\n    tag_7:\n      callvalue\n      dup1\n      iszero\n      tag_37\n      jumpi\n      0x00\n      dup1\n      revert\n    tag_37:\n      pop\n      tag_38\n      0x04\n      dup1\n      calldatasize\n      sub\n      dup2\n      add\n      swap1\n      tag_39\n      swap2\n      swap1\n      tag_40\n      jump\t// in\n    tag_39:\n      tag_41\n      jump\t// in\n    tag_38:\n      mload(0x40)\n      tag_42\n      swap2\n      swap1\n      tag_17\n      jump\t// in\n    tag_42:\n      mload(0x40)\n      dup1\n      swap2\n      sub\n      swap1\n      return\n        /* \"contracts/piggy_bank.sol\":1111:1197  function deposit() public payable {... */\n    tag_8:\n      tag_43\n      tag_44\n      jump\t// in\n    tag_43:\n      stop\n        /* \"contracts/piggy_bank.sol\":1541:1788  function depositERC721(address tokenAddress, uint256 tokenId) public {... */\n    tag_9:\n      callvalue\n      dup1\n      iszero\n      tag_45\n      jumpi\n      0x00\n      dup1\n      revert\n    tag_45:\n      pop\n      tag_46\n      0x04\n      dup1\n      calldatasize\n      sub\n      dup2\n      add\n      swap1\n      tag_47\n      swap2\n      swap1\n      tag_29\n      jump\t// in\n    tag_47:\n      tag_48\n      jump\t// in\n    tag_46:\n      stop\n        /* \"contracts/piggy_bank.sol\":2585:2948  function withdrawERC721(address tokenAddress, uint256 tokenId) public onlyOwner nonReentrant {... */\n    tag_10:\n      callvalue\n      dup1\n      iszero\n      tag_49\n      jumpi\n      0x00\n      dup1\n      revert\n    tag_49:\n      pop\n      tag_50\n      0x04\n      dup1\n      calldatasize\n      sub\n      dup2\n      add\n      swap1\n      tag_51\n      swap2\n      swap1\n      tag_29\n      jump\t// in\n    tag_51:\n      tag_52\n      jump\t// in\n    tag_50:\n      stop\n        /* \"contracts/piggy_bank.sol\":2198:2542  function withdrawERC20(address tokenAddress) public onlyOwner nonReentrant {... */\n    tag_11:\n      callvalue\n      dup1\n      iszero\n      tag_53\n      jumpi\n      0x00\n      dup1\n      revert\n    tag_53:\n      pop\n      tag_54\n      0x04\n      dup1\n      calldatasize\n      sub\n      dup2\n      add\n      swap1\n      tag_55\n      swap2\n      swap1\n      tag_40\n      jump\t// in\n    tag_55:\n      tag_56\n      jump\t// in\n    tag_54:\n      stop\n        /* \"contracts/piggy_bank.sol\":2985:3082  function getBalance() public view returns (uint256) {... */\n    tag_15:\n        /* \"contracts/piggy_bank.sol\":3028:3035  uint256 */\n      0x00\n        /* \"contracts/piggy_bank.sol\":3054:3075  address(this).balance */\n      selfbalance\n        /* \"contracts/piggy_bank.sol\":3047:3075  return address(this).balance */\n      swap1\n      pop\n        /* \"contracts/piggy_bank.sol\":2985:3082  function getBalance() public view returns (uint256) {... */\n      swap1\n      jump\t// out\n        /* \"contracts/piggy_bank.sol\":385:405  address public owner */\n    tag_20:\n      0x01\n      0x00\n      swap1\n      sload\n      swap1\n      0x0100\n      exp\n      swap1\n      div\n      0xffffffffffffffffffffffffffffffffffffffff\n      and\n      dup2\n      jump\t// out\n        /* \"contracts/piggy_bank.sol\":1834:2156  function withdrawAllETH() public onlyOwner nonReentrant {... */\n    tag_25:\n        /* \"contracts/piggy_bank.sol\":1007:1012  owner */\n      0x01\n      0x00\n      swap1\n      sload\n      swap1\n      0x0100\n      exp\n      swap1\n      div\n      0xffffffffffffffffffffffffffffffffffffffff\n      and\n        /* \"contracts/piggy_bank.sol\":993:1012  msg.sender == owner */\n      0xffffffffffffffffffffffffffffffffffffffff\n      and\n        /* \"contracts/piggy_bank.sol\":993:1003  msg.sender */\n      caller\n        /* \"contracts/piggy_bank.sol\":993:1012  msg.sender == owner */\n      0xffffffffffffffffffffffffffffffffffffffff\n      and\n      eq\n        /* \"contracts/piggy_bank.sol\":985:1054  require(msg.sender == owner, \"Only the owner can call this function\") */\n      tag_59\n      jumpi\n      mload(0x40)\n      0x08c379a000000000000000000000000000000000000000000000000000000000\n      dup2\n      mstore\n      0x04\n      add\n      tag_60\n      swap1\n      tag_61\n      jump\t// in\n    tag_60:\n      mload(0x40)\n      dup1\n      swap2\n      sub\n      swap1\n      revert\n    tag_59:\n        /* \"@openzeppelin/contracts/security/ReentrancyGuard.sol\":2261:2282  _nonReentrantBefore() */\n      tag_63\n        /* \"@openzeppelin/contracts/security/ReentrancyGuard.sol\":2261:2280  _nonReentrantBefore */\n      tag_64\n        /* \"@openzeppelin/contracts/security/ReentrancyGuard.sol\":2261:2282  _nonReentrantBefore() */\n      jump\t// in\n    tag_63:\n        /* \"contracts/piggy_bank.sol\":1900:1915  uint256 balance */\n      0x00\n        /* \"contracts/piggy_bank.sol\":1918:1939  address(this).balance */\n      selfbalance\n        /* \"contracts/piggy_bank.sol\":1900:1939  uint256 balance = address(this).balance */\n      swap1\n      pop\n        /* \"contracts/piggy_bank.sol\":1967:1968  0 */\n      0x00\n        /* \"contracts/piggy_bank.sol\":1957:1964  balance */\n      dup2\n        /* \"contracts/piggy_bank.sol\":1957:1968  balance > 0 */\n      gt\n        /* \"contracts/piggy_bank.sol\":1949:1991  require(balance > 0, \"No ETH to withdraw\") */\n      tag_66\n      jumpi\n      mload(0x40)\n      0x08c379a000000000000000000000000000000000000000000000000000000000\n      dup2\n      mstore\n      0x04\n      add\n      tag_67\n      swap1\n      tag_68\n      jump\t// in\n    tag_67:\n      mload(0x40)\n      dup1\n      swap2\n      sub\n      swap1\n      revert\n    tag_66:\n        /* \"contracts/piggy_bank.sol\":2002:2014  bool success */\n      0x00\n        /* \"contracts/piggy_bank.sol\":2028:2033  owner */\n      0x01\n      0x00\n      swap1\n      sload\n      swap1\n      0x0100\n      exp\n      swap1\n      div\n      0xffffffffffffffffffffffffffffffffffffffff\n      and\n        /* \"contracts/piggy_bank.sol\":2020:2039  payable(owner).call */\n      0xffffffffffffffffffffffffffffffffffffffff\n      and\n        /* \"contracts/piggy_bank.sol\":2047:2054  balance */\n      dup3\n        /* \"contracts/piggy_bank.sol\":2020:2059  payable(owner).call{value: balance}(\"\") */\n      mload(0x40)\n      tag_69\n      swap1\n      tag_70\n      jump\t// in\n    tag_69:\n      0x00\n      mload(0x40)\n      dup1\n      dup4\n      sub\n      dup2\n      dup6\n      dup8\n      gas\n      call\n      swap3\n      pop\n      pop\n      pop\n      returndatasize\n      dup1\n      0x00\n      dup2\n      eq\n      tag_73\n      jumpi\n      mload(0x40)\n      swap2\n      pop\n      and(add(returndatasize, 0x3f), not(0x1f))\n      dup3\n      add\n      0x40\n      mstore\n      returndatasize\n      dup3\n      mstore\n      returndatasize\n      0x00\n      0x20\n      dup5\n      add\n      returndatacopy\n      jump(tag_72)\n    tag_73:\n      0x60\n      swap2\n      pop\n    tag_72:\n      pop\n        /* \"contracts/piggy_bank.sol\":2001:2059  (bool success, ) = payable(owner).call{value: balance}(\"\") */\n      pop\n      swap1\n      pop\n        /* \"contracts/piggy_bank.sol\":2077:2084  success */\n      dup1\n        /* \"contracts/piggy_bank.sol\":2069:2108  require(success, \"ETH transfer failed\") */\n      tag_74\n      jumpi\n      mload(0x40)\n      0x08c379a000000000000000000000000000000000000000000000000000000000\n      dup2\n      mstore\n      0x04\n      add\n      tag_75\n      swap1\n      tag_76\n      jump\t// in\n    tag_75:\n      mload(0x40)\n      dup1\n      swap2\n      sub\n      swap1\n      revert\n    tag_74:\n        /* \"contracts/piggy_bank.sol\":2134:2139  owner */\n      0x01\n      0x00\n      swap1\n      sload\n      swap1\n      0x0100\n      exp\n      swap1\n      div\n      0xffffffffffffffffffffffffffffffffffffffff\n      and\n        /* \"contracts/piggy_bank.sol\":2123:2149  Withdrawal(owner, balance) */\n      0xffffffffffffffffffffffffffffffffffffffff\n      and\n      0x7fcf532c15f0a6db0bd6d0e038bea71d30d808c7d98cb3bf7268a95bf5081b65\n        /* \"contracts/piggy_bank.sol\":2141:2148  balance */\n      dup4\n        /* \"contracts/piggy_bank.sol\":2123:2149  Withdrawal(owner, balance) */\n      mload(0x40)\n      tag_77\n      swap2\n      swap1\n      tag_17\n      jump\t// in\n    tag_77:\n      mload(0x40)\n      dup1\n      swap2\n      sub\n      swap1\n      log2\n        /* \"contracts/piggy_bank.sol\":1890:2156  {... */\n      pop\n      pop\n        /* \"@openzeppelin/contracts/security/ReentrancyGuard.sol\":2303:2323  _nonReentrantAfter() */\n      tag_78\n        /* \"@openzeppelin/contracts/security/ReentrancyGuard.sol\":2303:2321  _nonReentrantAfter */\n      tag_79\n        /* \"@openzeppelin/contracts/security/ReentrancyGuard.sol\":2303:2323  _nonReentrantAfter() */\n      jump\t// in\n    tag_78:\n        /* \"contracts/piggy_bank.sol\":1834:2156  function withdrawAllETH() public onlyOwner nonReentrant {... */\n      jump\t// out\n        /* \"contracts/piggy_bank.sol\":1245:1492  function depositERC20(address tokenAddress, uint256 amount) public {... */\n    tag_30:\n        /* \"contracts/piggy_bank.sol\":1322:1334  IERC20 token */\n      0x00\n        /* \"contracts/piggy_bank.sol\":1344:1356  tokenAddress */\n      dup3\n        /* \"contracts/piggy_bank.sol\":1322:1357  IERC20 token = IERC20(tokenAddress) */\n      swap1\n      pop\n        /* \"contracts/piggy_bank.sol\":1367:1424  token.safeTransferFrom(msg.sender, address(this), amount) */\n      tag_81\n        /* \"contracts/piggy_bank.sol\":1390:1400  msg.sender */\n      caller\n        /* \"contracts/piggy_bank.sol\":1410:1414  this */\n      address\n        /* \"contracts/piggy_bank.sol\":1417:1423  amount */\n      dup5\n        /* \"contracts/piggy_bank.sol\":1367:1372  token */\n      dup5\n        /* \"contracts/piggy_bank.sol\":1367:1389  token.safeTransferFrom */\n      0xffffffffffffffffffffffffffffffffffffffff\n      and\n      tag_82\n      swap1\n        /* \"contracts/piggy_bank.sol\":1367:1424  token.safeTransferFrom(msg.sender, address(this), amount) */\n      swap4\n      swap3\n      swap2\n      swap1\n      0xffffffff\n      and\n      jump\t// in\n    tag_81:\n        /* \"contracts/piggy_bank.sol\":1464:1476  tokenAddress */\n      dup3\n        /* \"contracts/piggy_bank.sol\":1439:1485  TokenDeposit(msg.sender, tokenAddress, amount) */\n      0xffffffffffffffffffffffffffffffffffffffff\n      and\n        /* \"contracts/piggy_bank.sol\":1452:1462  msg.sender */\n      caller\n        /* \"contracts/piggy_bank.sol\":1439:1485  TokenDeposit(msg.sender, tokenAddress, amount) */\n      0xffffffffffffffffffffffffffffffffffffffff\n      and\n      0x98c09d9949722bae4bd0d988d4050091c3ae7ec6d51d3c6bbfe4233593944e9e\n        /* \"contracts/piggy_bank.sol\":1478:1484  amount */\n      dup5\n        /* \"contracts/piggy_bank.sol\":1439:1485  TokenDeposit(msg.sender, tokenAddress, amount) */\n      mload(0x40)\n      tag_83\n      swap2\n      swap1\n      tag_17\n      jump\t// in\n    tag_83:\n      mload(0x40)\n      dup1\n      swap2\n      sub\n      swap1\n      log3\n        /* \"contracts/piggy_bank.sol\":1312:1492  {... */\n      pop\n        /* \"contracts/piggy_bank.sol\":1245:1492  function depositERC20(address tokenAddress, uint256 amount) public {... */\n      pop\n      pop\n      jump\t// out\n        /* \"contracts/piggy_bank.sol\":3334:3498  function hasERC721(address tokenAddress, uint256 tokenId) public view returns (bool) {... */\n    tag_34:\n        /* \"contracts/piggy_bank.sol\":3413:3417  bool */\n      0x00\n        /* \"contracts/piggy_bank.sol\":3486:3490  this */\n      address\n        /* \"contracts/piggy_bank.sol\":3436:3491  IERC721(tokenAddress).ownerOf(tokenId) == address(this) */\n      0xffffffffffffffffffffffffffffffffffffffff\n      and\n        /* \"contracts/piggy_bank.sol\":3444:3456  tokenAddress */\n      dup4\n        /* \"contracts/piggy_bank.sol\":3436:3465  IERC721(tokenAddress).ownerOf */\n      0xffffffffffffffffffffffffffffffffffffffff\n      and\n      0x6352211e\n        /* \"contracts/piggy_bank.sol\":3466:3473  tokenId */\n      dup5\n        /* \"contracts/piggy_bank.sol\":3436:3474  IERC721(tokenAddress).ownerOf(tokenId) */\n      mload(0x40)\n      dup3\n      0xffffffff\n      and\n      0xe0\n      shl\n      dup2\n      mstore\n      0x04\n      add\n      tag_85\n      swap2\n      swap1\n      tag_17\n      jump\t// in\n    tag_85:\n      0x20\n      mload(0x40)\n      dup1\n      dup4\n      sub\n      dup2\n      dup7\n      gas\n      staticcall\n      iszero\n      dup1\n      iszero\n      tag_87\n      jumpi\n      returndatasize\n      0x00\n      dup1\n      returndatacopy\n      revert(0x00, returndatasize)\n    tag_87:\n      pop\n      pop\n      pop\n      pop\n      mload(0x40)\n      returndatasize\n      not(0x1f)\n      0x1f\n      dup3\n      add\n      and\n      dup3\n      add\n      dup1\n      0x40\n      mstore\n      pop\n      dup2\n      add\n      swap1\n      tag_88\n      swap2\n      swap1\n      tag_89\n      jump\t// in\n    tag_88:\n        /* \"contracts/piggy_bank.sol\":3436:3491  IERC721(tokenAddress).ownerOf(tokenId) == address(this) */\n      0xffffffffffffffffffffffffffffffffffffffff\n      and\n      eq\n        /* \"contracts/piggy_bank.sol\":3429:3491  return IERC721(tokenAddress).ownerOf(tokenId) == address(this) */\n      swap1\n      pop\n        /* \"contracts/piggy_bank.sol\":3334:3498  function hasERC721(address tokenAddress, uint256 tokenId) public view returns (bool) {... */\n      swap3\n      swap2\n      pop\n      pop\n      jump\t// out\n        /* \"contracts/piggy_bank.sol\":3127:3273  function getERC20Balance(address tokenAddress) public view returns (uint256) {... */\n    tag_41:\n        /* \"contracts/piggy_bank.sol\":3195:3202  uint256 */\n      0x00\n        /* \"contracts/piggy_bank.sol\":3228:3240  tokenAddress */\n      dup2\n        /* \"contracts/piggy_bank.sol\":3221:3251  IERC20(tokenAddress).balanceOf */\n      0xffffffffffffffffffffffffffffffffffffffff\n      and\n      0x70a08231\n        /* \"contracts/piggy_bank.sol\":3260:3264  this */\n      address\n        /* \"contracts/piggy_bank.sol\":3221:3266  IERC20(tokenAddress).balanceOf(address(this)) */\n      mload(0x40)\n      dup3\n      0xffffffff\n      and\n      0xe0\n      shl\n      dup2\n      mstore\n      0x04\n      add\n      tag_91\n      swap2\n      swap1\n      tag_22\n      jump\t// in\n    tag_91:\n      0x20\n      mload(0x40)\n      dup1\n      dup4\n      sub\n      dup2\n      dup7\n      gas\n      staticcall\n      iszero\n      dup1\n      iszero\n      tag_93\n      jumpi\n      returndatasize\n      0x00\n      dup1\n      returndatacopy\n      revert(0x00, returndatasize)\n    tag_93:\n      pop\n      pop\n      pop\n      pop\n      mload(0x40)\n      returndatasize\n      not(0x1f)\n      0x1f\n      dup3\n      add\n      and\n      dup3\n      add\n      dup1\n      0x40\n      mstore\n      pop\n      dup2\n      add\n      swap1\n      tag_94\n      swap2\n      swap1\n      tag_95\n      jump\t// in\n    tag_94:\n        /* \"contracts/piggy_bank.sol\":3214:3266  return IERC20(tokenAddress).balanceOf(address(this)) */\n      swap1\n      pop\n        /* \"contracts/piggy_bank.sol\":3127:3273  function getERC20Balance(address tokenAddress) public view returns (uint256) {... */\n      swap2\n      swap1\n      pop\n      jump\t// out\n        /* \"contracts/piggy_bank.sol\":1111:1197  function deposit() public payable {... */\n    tag_44:\n        /* \"contracts/piggy_bank.sol\":1168:1178  msg.sender */\n      caller\n        /* \"contracts/piggy_bank.sol\":1160:1190  Deposit(msg.sender, msg.value) */\n      0xffffffffffffffffffffffffffffffffffffffff\n      and\n      0xe1fffcc4923d04b559f4d29a8bfc6cda04eb5b0d3c460751c2402c5c5cc9109c\n        /* \"contracts/piggy_bank.sol\":1180:1189  msg.value */\n      callvalue\n        /* \"contracts/piggy_bank.sol\":1160:1190  Deposit(msg.sender, msg.value) */\n      mload(0x40)\n      tag_97\n      swap2\n      swap1\n      tag_17\n      jump\t// in\n    tag_97:\n      mload(0x40)\n      dup1\n      swap2\n      sub\n      swap1\n      log2\n        /* \"contracts/piggy_bank.sol\":1111:1197  function deposit() public payable {... */\n      jump\t// out\n        /* \"contracts/piggy_bank.sol\":1541:1788  function depositERC721(address tokenAddress, uint256 tokenId) public {... */\n    tag_48:\n        /* \"contracts/piggy_bank.sol\":1620:1633  IERC721 token */\n      0x00\n        /* \"contracts/piggy_bank.sol\":1644:1656  tokenAddress */\n      dup3\n        /* \"contracts/piggy_bank.sol\":1620:1657  IERC721 token = IERC721(tokenAddress) */\n      swap1\n      pop\n        /* \"contracts/piggy_bank.sol\":1667:1672  token */\n      dup1\n        /* \"contracts/piggy_bank.sol\":1667:1685  token.transferFrom */\n      0xffffffffffffffffffffffffffffffffffffffff\n      and\n      0x23b872dd\n        /* \"contracts/piggy_bank.sol\":1686:1696  msg.sender */\n      caller\n        /* \"contracts/piggy_bank.sol\":1706:1710  this */\n      address\n        /* \"contracts/piggy_bank.sol\":1713:1720  tokenId */\n      dup6\n        /* \"contracts/piggy_bank.sol\":1667:1721  token.transferFrom(msg.sender, address(this), tokenId) */\n      mload(0x40)\n      dup5\n      0xffffffff\n      and\n      0xe0\n      shl\n      dup2\n      mstore\n      0x04\n      add\n      tag_99\n      swap4\n      swap3\n      swap2\n      swap1\n      tag_100\n      jump\t// in\n    tag_99:\n      0x00\n      mload(0x40)\n      dup1\n      dup4\n      sub\n      dup2\n      0x00\n      dup8\n      dup1\n      extcodesize\n      iszero\n      dup1\n      iszero\n      tag_101\n      jumpi\n      0x00\n      dup1\n      revert\n    tag_101:\n      pop\n      gas\n      call\n      iszero\n      dup1\n      iszero\n      tag_103\n      jumpi\n      returndatasize\n      0x00\n      dup1\n      returndatacopy\n      revert(0x00, returndatasize)\n    tag_103:\n      pop\n      pop\n      pop\n      pop\n        /* \"contracts/piggy_bank.sol\":1759:1771  tokenAddress */\n      dup3\n        /* \"contracts/piggy_bank.sol\":1736:1781  NFTDeposit(msg.sender, tokenAddress, tokenId) */\n      0xffffffffffffffffffffffffffffffffffffffff\n      and\n        /* \"contracts/piggy_bank.sol\":1747:1757  msg.sender */\n      caller\n        /* \"contracts/piggy_bank.sol\":1736:1781  NFTDeposit(msg.sender, tokenAddress, tokenId) */\n      0xffffffffffffffffffffffffffffffffffffffff\n      and\n      0x6beb9379af630d855c59b605909537f26c1d38ef62bc6645e8741985d890fdb0\n        /* \"contracts/piggy_bank.sol\":1773:1780  tokenId */\n      dup5\n        /* \"contracts/piggy_bank.sol\":1736:1781  NFTDeposit(msg.sender, tokenAddress, tokenId) */\n      mload(0x40)\n      tag_104\n      swap2\n      swap1\n      tag_17\n      jump\t// in\n    tag_104:\n      mload(0x40)\n      dup1\n      swap2\n      sub\n      swap1\n      log3\n        /* \"contracts/piggy_bank.sol\":1610:1788  {... */\n      pop\n        /* \"contracts/piggy_bank.sol\":1541:1788  function depositERC721(address tokenAddress, uint256 tokenId) public {... */\n      pop\n      pop\n      jump\t// out\n        /* \"contracts/piggy_bank.sol\":2585:2948  function withdrawERC721(address tokenAddress, uint256 tokenId) public onlyOwner nonReentrant {... */\n    tag_52:\n        /* \"contracts/piggy_bank.sol\":1007:1012  owner */\n      0x01\n      0x00\n      swap1\n      sload\n      swap1\n      0x0100\n      exp\n      swap1\n      div\n      0xffffffffffffffffffffffffffffffffffffffff\n      and\n        /* \"contracts/piggy_bank.sol\":993:1012  msg.sender == owner */\n      0xffffffffffffffffffffffffffffffffffffffff\n      and\n        /* \"contracts/piggy_bank.sol\":993:1003  msg.sender */\n      caller\n        /* \"contracts/piggy_bank.sol\":993:1012  msg.sender == owner */\n      0xffffffffffffffffffffffffffffffffffffffff\n      and\n      eq\n        /* \"contracts/piggy_bank.sol\":985:1054  require(msg.sender == owner, \"Only the owner can call this function\") */\n      tag_106\n      jumpi\n      mload(0x40)\n      0x08c379a000000000000000000000000000000000000000000000000000000000\n      dup2\n      mstore\n      0x04\n      add\n      tag_107\n      swap1\n      tag_61\n      jump\t// in\n    tag_107:\n      mload(0x40)\n      dup1\n      swap2\n      sub\n      swap1\n      revert\n    tag_106:\n        /* \"@openzeppelin/contracts/security/ReentrancyGuard.sol\":2261:2282  _nonReentrantBefore() */\n      tag_109\n        /* \"@openzeppelin/contracts/security/ReentrancyGuard.sol\":2261:2280  _nonReentrantBefore */\n      tag_64\n        /* \"@openzeppelin/contracts/security/ReentrancyGuard.sol\":2261:2282  _nonReentrantBefore() */\n      jump\t// in\n    tag_109:\n        /* \"contracts/piggy_bank.sol\":2688:2701  IERC721 token */\n      0x00\n        /* \"contracts/piggy_bank.sol\":2712:2724  tokenAddress */\n      dup3\n        /* \"contracts/piggy_bank.sol\":2688:2725  IERC721 token = IERC721(tokenAddress) */\n      swap1\n      pop\n        /* \"contracts/piggy_bank.sol\":2777:2781  this */\n      address\n        /* \"contracts/piggy_bank.sol\":2743:2782  token.ownerOf(tokenId) == address(this) */\n      0xffffffffffffffffffffffffffffffffffffffff\n      and\n        /* \"contracts/piggy_bank.sol\":2743:2748  token */\n      dup2\n        /* \"contracts/piggy_bank.sol\":2743:2756  token.ownerOf */\n      0xffffffffffffffffffffffffffffffffffffffff\n      and\n      0x6352211e\n        /* \"contracts/piggy_bank.sol\":2757:2764  tokenId */\n      dup5\n        /* \"contracts/piggy_bank.sol\":2743:2765  token.ownerOf(tokenId) */\n      mload(0x40)\n      dup3\n      0xffffffff\n      and\n      0xe0\n      shl\n      dup2\n      mstore\n      0x04\n      add\n      tag_111\n      swap2\n      swap1\n      tag_17\n      jump\t// in\n    tag_111:\n      0x20\n      mload(0x40)\n      dup1\n      dup4\n      sub\n      dup2\n      dup7\n      gas\n      staticcall\n      iszero\n      dup1\n      iszero\n      tag_113\n      jumpi\n      returndatasize\n      0x00\n      dup1\n      returndatacopy\n      revert(0x00, returndatasize)\n    tag_113:\n      pop\n      pop\n      pop\n      pop\n      mload(0x40)\n      returndatasize\n      not(0x1f)\n      0x1f\n      dup3\n      add\n      and\n      dup3\n      add\n      dup1\n      0x40\n      mstore\n      pop\n      dup2\n      add\n      swap1\n      tag_114\n      swap2\n      swap1\n      tag_89\n      jump\t// in\n    tag_114:\n        /* \"contracts/piggy_bank.sol\":2743:2782  token.ownerOf(tokenId) == address(this) */\n      0xffffffffffffffffffffffffffffffffffffffff\n      and\n      eq\n        /* \"contracts/piggy_bank.sol\":2735:2824  require(token.ownerOf(tokenId) == address(this), \"This NFT is not owned by the contract\") */\n      tag_115\n      jumpi\n      mload(0x40)\n      0x08c379a000000000000000000000000000000000000000000000000000000000\n      dup2\n      mstore\n      0x04\n      add\n      tag_116\n      swap1\n      tag_117\n      jump\t// in\n    tag_116:\n      mload(0x40)\n      dup1\n      swap2\n      sub\n      swap1\n      revert\n    tag_115:\n        /* \"contracts/piggy_bank.sol\":2834:2839  token */\n      dup1\n        /* \"contracts/piggy_bank.sol\":2834:2852  token.transferFrom */\n      0xffffffffffffffffffffffffffffffffffffffff\n      and\n      0x23b872dd\n        /* \"contracts/piggy_bank.sol\":2861:2865  this */\n      address\n        /* \"contracts/piggy_bank.sol\":2868:2873  owner */\n      0x01\n      0x00\n      swap1\n      sload\n      swap1\n      0x0100\n      exp\n      swap1\n      div\n      0xffffffffffffffffffffffffffffffffffffffff\n      and\n        /* \"contracts/piggy_bank.sol\":2875:2882  tokenId */\n      dup6\n        /* \"contracts/piggy_bank.sol\":2834:2883  token.transferFrom(address(this), owner, tokenId) */\n      mload(0x40)\n      dup5\n      0xffffffff\n      and\n      0xe0\n      shl\n      dup2\n      mstore\n      0x04\n      add\n      tag_118\n      swap4\n      swap3\n      swap2\n      swap1\n      tag_100\n      jump\t// in\n    tag_118:\n      0x00\n      mload(0x40)\n      dup1\n      dup4\n      sub\n      dup2\n      0x00\n      dup8\n      dup1\n      extcodesize\n      iszero\n      dup1\n      iszero\n      tag_119\n      jumpi\n      0x00\n      dup1\n      revert\n    tag_119:\n      pop\n      gas\n      call\n      iszero\n      dup1\n      iszero\n      tag_121\n      jumpi\n      returndatasize\n      0x00\n      dup1\n      returndatacopy\n      revert(0x00, returndatasize)\n    tag_121:\n      pop\n      pop\n      pop\n      pop\n        /* \"contracts/piggy_bank.sol\":2919:2931  tokenAddress */\n      dup3\n        /* \"contracts/piggy_bank.sol\":2898:2941  NFTWithdrawal(owner, tokenAddress, tokenId) */\n      0xffffffffffffffffffffffffffffffffffffffff\n      and\n        /* \"contracts/piggy_bank.sol\":2912:2917  owner */\n      0x01\n      0x00\n      swap1\n      sload\n      swap1\n      0x0100\n      exp\n      swap1\n      div\n      0xffffffffffffffffffffffffffffffffffffffff\n      and\n        /* \"contracts/piggy_bank.sol\":2898:2941  NFTWithdrawal(owner, tokenAddress, tokenId) */\n      0xffffffffffffffffffffffffffffffffffffffff\n      and\n      0xa1920ca3dcbadb104b1787fec71b1c291adec85a372ad7b6800af7d561447592\n        /* \"contracts/piggy_bank.sol\":2933:2940  tokenId */\n      dup5\n        /* \"contracts/piggy_bank.sol\":2898:2941  NFTWithdrawal(owner, tokenAddress, tokenId) */\n      mload(0x40)\n      tag_122\n      swap2\n      swap1\n      tag_17\n      jump\t// in\n    tag_122:\n      mload(0x40)\n      dup1\n      swap2\n      sub\n      swap1\n      log3\n        /* \"contracts/piggy_bank.sol\":2678:2948  {... */\n      pop\n        /* \"@openzeppelin/contracts/security/ReentrancyGuard.sol\":2303:2323  _nonReentrantAfter() */\n      tag_123\n        /* \"@openzeppelin/contracts/security/ReentrancyGuard.sol\":2303:2321  _nonReentrantAfter */\n      tag_79\n        /* \"@openzeppelin/contracts/security/ReentrancyGuard.sol\":2303:2323  _nonReentrantAfter() */\n      jump\t// in\n    tag_123:\n        /* \"contracts/piggy_bank.sol\":2585:2948  function withdrawERC721(address tokenAddress, uint256 tokenId) public onlyOwner nonReentrant {... */\n      pop\n      pop\n      jump\t// out\n        /* \"contracts/piggy_bank.sol\":2198:2542  function withdrawERC20(address tokenAddress) public onlyOwner nonReentrant {... */\n    tag_56:\n        /* \"contracts/piggy_bank.sol\":1007:1012  owner */\n      0x01\n      0x00\n      swap1\n      sload\n      swap1\n      0x0100\n      exp\n      swap1\n      div\n      0xffffffffffffffffffffffffffffffffffffffff\n      and\n        /* \"contracts/piggy_bank.sol\":993:1012  msg.sender == owner */\n      0xffffffffffffffffffffffffffffffffffffffff\n      and\n        /* \"contracts/piggy_bank.sol\":993:1003  msg.sender */\n      caller\n        /* \"contracts/piggy_bank.sol\":993:1012  msg.sender == owner */\n      0xffffffffffffffffffffffffffffffffffffffff\n      and\n      eq\n        /* \"contracts/piggy_bank.sol\":985:1054  require(msg.sender == owner, \"Only the owner can call this function\") */\n      tag_125\n      jumpi\n      mload(0x40)\n      0x08c379a000000000000000000000000000000000000000000000000000000000\n      dup2\n      mstore\n      0x04\n      add\n      tag_126\n      swap1\n      tag_61\n      jump\t// in\n    tag_126:\n      mload(0x40)\n      dup1\n      swap2\n      sub\n      swap1\n      revert\n    tag_125:\n        /* \"@openzeppelin/contracts/security/ReentrancyGuard.sol\":2261:2282  _nonReentrantBefore() */\n      tag_128\n        /* \"@openzeppelin/contracts/security/ReentrancyGuard.sol\":2261:2280  _nonReentrantBefore */\n      tag_64\n        /* \"@openzeppelin/contracts/security/ReentrancyGuard.sol\":2261:2282  _nonReentrantBefore() */\n      jump\t// in\n    tag_128:\n        /* \"contracts/piggy_bank.sol\":2283:2295  IERC20 token */\n      0x00\n        /* \"contracts/piggy_bank.sol\":2305:2317  tokenAddress */\n      dup2\n        /* \"contracts/piggy_bank.sol\":2283:2318  IERC20 token = IERC20(tokenAddress) */\n      swap1\n      pop\n        /* \"contracts/piggy_bank.sol\":2328:2343  uint256 balance */\n      0x00\n        /* \"contracts/piggy_bank.sol\":2346:2351  token */\n      dup2\n        /* \"contracts/piggy_bank.sol\":2346:2361  token.balanceOf */\n      0xffffffffffffffffffffffffffffffffffffffff\n      and\n      0x70a08231\n        /* \"contracts/piggy_bank.sol\":2370:2374  this */\n      address\n        /* \"contracts/piggy_bank.sol\":2346:2376  token.balanceOf(address(this)) */\n      mload(0x40)\n      dup3\n      0xffffffff\n      and\n      0xe0\n      shl\n      dup2\n      mstore\n      0x04\n      add\n      tag_130\n      swap2\n      swap1\n      tag_22\n      jump\t// in\n    tag_130:\n      0x20\n      mload(0x40)\n      dup1\n      dup4\n      sub\n      dup2\n      dup7\n      gas\n      staticcall\n      iszero\n      dup1\n      iszero\n      tag_132\n      jumpi\n      returndatasize\n      0x00\n      dup1\n      returndatacopy\n      revert(0x00, returndatasize)\n    tag_132:\n      pop\n      pop\n      pop\n      pop\n      mload(0x40)\n      returndatasize\n      not(0x1f)\n      0x1f\n      dup3\n      add\n      and\n      dup3\n      add\n      dup1\n      0x40\n      mstore\n      pop\n      dup2\n      add\n      swap1\n      tag_133\n      swap2\n      swap1\n      tag_95\n      jump\t// in\n    tag_133:\n        /* \"contracts/piggy_bank.sol\":2328:2376  uint256 balance = token.balanceOf(address(this)) */\n      swap1\n      pop\n        /* \"contracts/piggy_bank.sol\":2404:2405  0 */\n      0x00\n        /* \"contracts/piggy_bank.sol\":2394:2401  balance */\n      dup2\n        /* \"contracts/piggy_bank.sol\":2394:2405  balance > 0 */\n      gt\n        /* \"contracts/piggy_bank.sol\":2386:2431  require(balance > 0, \"No tokens to withdraw\") */\n      tag_134\n      jumpi\n      mload(0x40)\n      0x08c379a000000000000000000000000000000000000000000000000000000000\n      dup2\n      mstore\n      0x04\n      add\n      tag_135\n      swap1\n      tag_136\n      jump\t// in\n    tag_135:\n      mload(0x40)\n      dup1\n      swap2\n      sub\n      swap1\n      revert\n    tag_134:\n        /* \"contracts/piggy_bank.sol\":2441:2475  token.safeTransfer(owner, balance) */\n      tag_137\n        /* \"contracts/piggy_bank.sol\":2460:2465  owner */\n      0x01\n      0x00\n      swap1\n      sload\n      swap1\n      0x0100\n      exp\n      swap1\n      div\n      0xffffffffffffffffffffffffffffffffffffffff\n      and\n        /* \"contracts/piggy_bank.sol\":2467:2474  balance */\n      dup3\n        /* \"contracts/piggy_bank.sol\":2441:2446  token */\n      dup5\n        /* \"contracts/piggy_bank.sol\":2441:2459  token.safeTransfer */\n      0xffffffffffffffffffffffffffffffffffffffff\n      and\n      tag_138\n      swap1\n        /* \"contracts/piggy_bank.sol\":2441:2475  token.safeTransfer(owner, balance) */\n      swap3\n      swap2\n      swap1\n      0xffffffff\n      and\n      jump\t// in\n    tag_137:\n        /* \"contracts/piggy_bank.sol\":2513:2525  tokenAddress */\n      dup3\n        /* \"contracts/piggy_bank.sol\":2490:2535  TokenWithdrawal(owner, tokenAddress, balance) */\n      0xffffffffffffffffffffffffffffffffffffffff\n      and\n        /* \"contracts/piggy_bank.sol\":2506:2511  owner */\n      0x01\n      0x00\n      swap1\n      sload\n      swap1\n      0x0100\n      exp\n      swap1\n      div\n      0xffffffffffffffffffffffffffffffffffffffff\n      and\n        /* \"contracts/piggy_bank.sol\":2490:2535  TokenWithdrawal(owner, tokenAddress, balance) */\n      0xffffffffffffffffffffffffffffffffffffffff\n      and\n      0x42856d0378dde02337bb59ae41747abc77ded8ebdbbc5cbdd1e53693b7554938\n        /* \"contracts/piggy_bank.sol\":2527:2534  balance */\n      dup4\n        /* \"contracts/piggy_bank.sol\":2490:2535  TokenWithdrawal(owner, tokenAddress, balance) */\n      mload(0x40)\n      tag_139\n      swap2\n      swap1\n      tag_17\n      jump\t// in\n    tag_139:\n      mload(0x40)\n      dup1\n      swap2\n      sub\n      swap1\n      log3\n        /* \"contracts/piggy_bank.sol\":2273:2542  {... */\n      pop\n      pop\n        /* \"@openzeppelin/contracts/security/ReentrancyGuard.sol\":2303:2323  _nonReentrantAfter() */\n      tag_140\n        /* \"@openzeppelin/contracts/security/ReentrancyGuard.sol\":2303:2321  _nonReentrantAfter */\n      tag_79\n        /* \"@openzeppelin/contracts/security/ReentrancyGuard.sol\":2303:2323  _nonReentrantAfter() */\n      jump\t// in\n    tag_140:\n        /* \"contracts/piggy_bank.sol\":2198:2542  function withdrawERC20(address tokenAddress) public onlyOwner nonReentrant {... */\n      pop\n      jump\t// out\n        /* \"@openzeppelin/contracts/security/ReentrancyGuard.sol\":2336:2623  function _nonReentrantBefore() private {... */\n    tag_64:\n        /* \"@openzeppelin/contracts/security/ReentrancyGuard.sol\":1759:1760  2 */\n      0x02\n        /* \"@openzeppelin/contracts/security/ReentrancyGuard.sol\":2468:2475  _status */\n      sload(0x00)\n        /* \"@openzeppelin/contracts/security/ReentrancyGuard.sol\":2468:2487  _status != _ENTERED */\n      sub\n        /* \"@openzeppelin/contracts/security/ReentrancyGuard.sol\":2460:2523  require(_status != _ENTERED, \"ReentrancyGuard: reentrant call\") */\n      tag_142\n      jumpi\n      mload(0x40)\n      0x08c379a000000000000000000000000000000000000000000000000000000000\n      dup2\n      mstore\n      0x04\n      add\n      tag_143\n      swap1\n      tag_144\n      jump\t// in\n    tag_143:\n      mload(0x40)\n      dup1\n      swap2\n      sub\n      swap1\n      revert\n    tag_142:\n        /* \"@openzeppelin/contracts/security/ReentrancyGuard.sol\":1759:1760  2 */\n      0x02\n        /* \"@openzeppelin/contracts/security/ReentrancyGuard.sol\":2598:2605  _status */\n      0x00\n        /* \"@openzeppelin/contracts/security/ReentrancyGuard.sol\":2598:2616  _status = _ENTERED */\n      dup2\n      swap1\n      sstore\n      pop\n        /* \"@openzeppelin/contracts/security/ReentrancyGuard.sol\":2336:2623  function _nonReentrantBefore() private {... */\n      jump\t// out\n        /* \"@openzeppelin/contracts/security/ReentrancyGuard.sol\":2629:2838  function _nonReentrantAfter() private {... */\n    tag_79:\n        /* \"@openzeppelin/contracts/security/ReentrancyGuard.sol\":1716:1717  1 */\n      0x01\n        /* \"@openzeppelin/contracts/security/ReentrancyGuard.sol\":2809:2816  _status */\n      0x00\n        /* \"@openzeppelin/contracts/security/ReentrancyGuard.sol\":2809:2831  _status = _NOT_ENTERED */\n      dup2\n      swap1\n      sstore\n      pop\n        /* \"@openzeppelin/contracts/security/ReentrancyGuard.sol\":2629:2838  function _nonReentrantAfter() private {... */\n      jump\t// out\n        /* \"@openzeppelin/contracts/token/ERC20/utils/SafeERC20.sol\":1702:1890  function safeTransferFrom(IERC20 token, address from, address to, uint256 value) internal {... */\n    tag_82:\n        /* \"@openzeppelin/contracts/token/ERC20/utils/SafeERC20.sol\":1802:1883  _callOptionalReturn(token, abi.encodeCall(token.transferFrom, (from, to, value))) */\n      tag_147\n        /* \"@openzeppelin/contracts/token/ERC20/utils/SafeERC20.sol\":1822:1827  token */\n      dup5\n        /* \"@openzeppelin/contracts/token/ERC20/utils/SafeERC20.sol\":1844:1849  token */\n      dup6\n        /* \"@openzeppelin/contracts/token/ERC20/utils/SafeERC20.sol\":1844:1862  token.transferFrom */\n      0xffffffffffffffffffffffffffffffffffffffff\n      and\n      0x23b872dd\n        /* \"@openzeppelin/contracts/token/ERC20/utils/SafeERC20.sol\":1865:1869  from */\n      dup7\n        /* \"@openzeppelin/contracts/token/ERC20/utils/SafeERC20.sol\":1871:1873  to */\n      dup7\n        /* \"@openzeppelin/contracts/token/ERC20/utils/SafeERC20.sol\":1875:1880  value */\n      dup7\n        /* \"@openzeppelin/contracts/token/ERC20/utils/SafeERC20.sol\":1829:1882  abi.encodeCall(token.transferFrom, (from, to, value)) */\n      add(0x24, mload(0x40))\n      tag_148\n      swap4\n      swap3\n      swap2\n      swap1\n      tag_100\n      jump\t// in\n    tag_148:\n      mload(0x40)\n      0x20\n      dup2\n      dup4\n      sub\n      sub\n      dup2\n      mstore\n      swap1\n      0x40\n      mstore\n      swap2\n      pop\n      0xe0\n      shl\n      0x20\n      dup3\n      add\n      dup1\n      mload\n      0xffffffffffffffffffffffffffffffffffffffffffffffffffffffff\n      dup4\n      dup2\n      dup4\n      and\n      or\n      dup4\n      mstore\n      pop\n      pop\n      pop\n      pop\n        /* \"@openzeppelin/contracts/token/ERC20/utils/SafeERC20.sol\":1802:1821  _callOptionalReturn */\n      tag_149\n        /* \"@openzeppelin/contracts/token/ERC20/utils/SafeERC20.sol\":1802:1883  _callOptionalReturn(token, abi.encodeCall(token.transferFrom, (from, to, value))) */\n      jump\t// in\n    tag_147:\n        /* \"@openzeppelin/contracts/token/ERC20/utils/SafeERC20.sol\":1702:1890  function safeTransferFrom(IERC20 token, address from, address to, uint256 value) internal {... */\n      pop\n      pop\n      pop\n      pop\n      jump\t// out\n        /* \"@openzeppelin/contracts/token/ERC20/utils/SafeERC20.sol\":1303:1463  function safeTransfer(IERC20 token, address to, uint256 value) internal {... */\n    tag_138:\n        /* \"@openzeppelin/contracts/token/ERC20/utils/SafeERC20.sol\":1385:1456  _callOptionalReturn(token, abi.encodeCall(token.transfer, (to, value))) */\n      tag_151\n        /* \"@openzeppelin/contracts/token/ERC20/utils/SafeERC20.sol\":1405:1410  token */\n      dup4\n        /* \"@openzeppelin/contracts/token/ERC20/utils/SafeERC20.sol\":1427:1432  token */\n      dup5\n        /* \"@openzeppelin/contracts/token/ERC20/utils/SafeERC20.sol\":1427:1441  token.transfer */\n      0xffffffffffffffffffffffffffffffffffffffff\n      and\n      0xa9059cbb\n        /* \"@openzeppelin/contracts/token/ERC20/utils/SafeERC20.sol\":1444:1446  to */\n      dup6\n        /* \"@openzeppelin/contracts/token/ERC20/utils/SafeERC20.sol\":1448:1453  value */\n      dup6\n        /* \"@openzeppelin/contracts/token/ERC20/utils/SafeERC20.sol\":1412:1455  abi.encodeCall(token.transfer, (to, value)) */\n      add(0x24, mload(0x40))\n      tag_152\n      swap3\n      swap2\n      swap1\n      tag_153\n      jump\t// in\n    tag_152:\n      mload(0x40)\n      0x20\n      dup2\n      dup4\n      sub\n      sub\n      dup2\n      mstore\n      swap1\n      0x40\n      mstore\n      swap2\n      pop\n      0xe0\n      shl\n      0x20\n      dup3\n      add\n      dup1\n      mload\n      0xffffffffffffffffffffffffffffffffffffffffffffffffffffffff\n      dup4\n      dup2\n      dup4\n      and\n      or\n      dup4\n      mstore\n      pop\n      pop\n      pop\n      pop\n        /* \"@openzeppelin/contracts/token/ERC20/utils/SafeERC20.sol\":1385:1404  _callOptionalReturn */\n      tag_149\n        /* \"@openzeppelin/contracts/token/ERC20/utils/SafeERC20.sol\":1385:1456  _callOptionalReturn(token, abi.encodeCall(token.transfer, (to, value))) */\n      jump\t// in\n    tag_151:\n        /* \"@openzeppelin/contracts/token/ERC20/utils/SafeERC20.sol\":1303:1463  function safeTransfer(IERC20 token, address to, uint256 value) internal {... */\n      pop\n      pop\n      pop\n      jump\t// out\n        /* \"@openzeppelin/contracts/token/ERC20/utils/SafeERC20.sol\":4059:4688  function _callOptionalReturn(IERC20 token, bytes memory data) private {... */\n    tag_149:\n        /* \"@openzeppelin/contracts/token/ERC20/utils/SafeERC20.sol\":4478:4501  bytes memory returndata */\n      0x00\n        /* \"@openzeppelin/contracts/token/ERC20/utils/SafeERC20.sol\":4504:4537  address(token).functionCall(data) */\n      tag_155\n        /* \"@openzeppelin/contracts/token/ERC20/utils/SafeERC20.sol\":4532:4536  data */\n      dup3\n        /* \"@openzeppelin/contracts/token/ERC20/utils/SafeERC20.sol\":4512:4517  token */\n      dup5\n        /* \"@openzeppelin/contracts/token/ERC20/utils/SafeERC20.sol\":4504:4531  address(token).functionCall */\n      0xffffffffffffffffffffffffffffffffffffffff\n      and\n      tag_156\n      swap1\n        /* \"@openzeppelin/contracts/token/ERC20/utils/SafeERC20.sol\":4504:4537  address(token).functionCall(data) */\n      swap2\n      swap1\n      0xffffffff\n      and\n      jump\t// in\n    tag_155:\n        /* \"@openzeppelin/contracts/token/ERC20/utils/SafeERC20.sol\":4478:4537  bytes memory returndata = address(token).functionCall(data) */\n      swap1\n      pop\n        /* \"@openzeppelin/contracts/token/ERC20/utils/SafeERC20.sol\":4572:4573  0 */\n      0x00\n        /* \"@openzeppelin/contracts/token/ERC20/utils/SafeERC20.sol\":4551:4561  returndata */\n      dup2\n        /* \"@openzeppelin/contracts/token/ERC20/utils/SafeERC20.sol\":4551:4568  returndata.length */\n      mload\n        /* \"@openzeppelin/contracts/token/ERC20/utils/SafeERC20.sol\":4551:4573  returndata.length != 0 */\n      eq\n      iszero\n        /* \"@openzeppelin/contracts/token/ERC20/utils/SafeERC20.sol\":4551:4608  returndata.length != 0 && !abi.decode(returndata, (bool)) */\n      dup1\n      iszero\n      tag_157\n      jumpi\n      pop\n        /* \"@openzeppelin/contracts/token/ERC20/utils/SafeERC20.sol\":4589:4599  returndata */\n      dup1\n        /* \"@openzeppelin/contracts/token/ERC20/utils/SafeERC20.sol\":4578:4608  abi.decode(returndata, (bool)) */\n      dup1\n      0x20\n      add\n      swap1\n      mload\n      dup2\n      add\n      swap1\n      tag_158\n      swap2\n      swap1\n      tag_159\n      jump\t// in\n    tag_158:\n        /* \"@openzeppelin/contracts/token/ERC20/utils/SafeERC20.sol\":4577:4608  !abi.decode(returndata, (bool)) */\n      iszero\n        /* \"@openzeppelin/contracts/token/ERC20/utils/SafeERC20.sol\":4551:4608  returndata.length != 0 && !abi.decode(returndata, (bool)) */\n    tag_157:\n        /* \"@openzeppelin/contracts/token/ERC20/utils/SafeERC20.sol\":4547:4682  if (returndata.length != 0 && !abi.decode(returndata, (bool))) {... */\n      iszero\n      tag_160\n      jumpi\n        /* \"@openzeppelin/contracts/token/ERC20/utils/SafeERC20.sol\":4664:4669  token */\n      dup3\n        /* \"@openzeppelin/contracts/token/ERC20/utils/SafeERC20.sol\":4631:4671  SafeERC20FailedOperation(address(token)) */\n      mload(0x40)\n      0x5274afe700000000000000000000000000000000000000000000000000000000\n      dup2\n      mstore\n      0x04\n      add\n      tag_161\n      swap2\n      swap1\n      tag_22\n      jump\t// in\n    tag_161:\n      mload(0x40)\n      dup1\n      swap2\n      sub\n      swap1\n      revert\n        /* \"@openzeppelin/contracts/token/ERC20/utils/SafeERC20.sol\":4547:4682  if (returndata.length != 0 && !abi.decode(returndata, (bool))) {... */\n    tag_160:\n        /* \"@openzeppelin/contracts/token/ERC20/utils/SafeERC20.sol\":4129:4688  {... */\n      pop\n        /* \"@openzeppelin/contracts/token/ERC20/utils/SafeERC20.sol\":4059:4688  function _callOptionalReturn(IERC20 token, bytes memory data) private {... */\n      pop\n      pop\n      jump\t// out\n        /* \"@openzeppelin/contracts/utils/Address.sol\":2705:2856  function functionCall(address target, bytes memory data) internal returns (bytes memory) {... */\n    tag_156:\n        /* \"@openzeppelin/contracts/utils/Address.sol\":2780:2792  bytes memory */\n      0x60\n        /* \"@openzeppelin/contracts/utils/Address.sol\":2811:2849  functionCallWithValue(target, data, 0) */\n      tag_163\n        /* \"@openzeppelin/contracts/utils/Address.sol\":2833:2839  target */\n      dup4\n        /* \"@openzeppelin/contracts/utils/Address.sol\":2841:2845  data */\n      dup4\n        /* \"@openzeppelin/contracts/utils/Address.sol\":2847:2848  0 */\n      0x00\n        /* \"@openzeppelin/contracts/utils/Address.sol\":2811:2832  functionCallWithValue */\n      tag_164\n        /* \"@openzeppelin/contracts/utils/Address.sol\":2811:2849  functionCallWithValue(target, data, 0) */\n      jump\t// in\n    tag_163:\n        /* \"@openzeppelin/contracts/utils/Address.sol\":2804:2849  return functionCallWithValue(target, data, 0) */\n      swap1\n      pop\n        /* \"@openzeppelin/contracts/utils/Address.sol\":2705:2856  function functionCall(address target, bytes memory data) internal returns (bytes memory) {... */\n      swap3\n      swap2\n      pop\n      pop\n      jump\t// out\n        /* \"@openzeppelin/contracts/utils/Address.sol\":3180:3572  function functionCallWithValue(address target, bytes memory data, uint256 value) internal returns (bytes memory) {... */\n    tag_164:\n        /* \"@openzeppelin/contracts/utils/Address.sol\":3279:3291  bytes memory */\n      0x60\n        /* \"@openzeppelin/contracts/utils/Address.sol\":3331:3336  value */\n      dup2\n        /* \"@openzeppelin/contracts/utils/Address.sol\":3307:3328  address(this).balance */\n      selfbalance\n        /* \"@openzeppelin/contracts/utils/Address.sol\":3307:3336  address(this).balance < value */\n      lt\n        /* \"@openzeppelin/contracts/utils/Address.sol\":3303:3411  if (address(this).balance < value) {... */\n      iszero\n      tag_166\n      jumpi\n        /* \"@openzeppelin/contracts/utils/Address.sol\":3394:3398  this */\n      address\n        /* \"@openzeppelin/contracts/utils/Address.sol\":3359:3400  AddressInsufficientBalance(address(this)) */\n      mload(0x40)\n      0xcd78605900000000000000000000000000000000000000000000000000000000\n      dup2\n      mstore\n      0x04\n      add\n      tag_167\n      swap2\n      swap1\n      tag_22\n      jump\t// in\n    tag_167:\n      mload(0x40)\n      dup1\n      swap2\n      sub\n      swap1\n      revert\n        /* \"@openzeppelin/contracts/utils/Address.sol\":3303:3411  if (address(this).balance < value) {... */\n    tag_166:\n        /* \"@openzeppelin/contracts/utils/Address.sol\":3421:3433  bool success */\n      0x00\n        /* \"@openzeppelin/contracts/utils/Address.sol\":3435:3458  bytes memory returndata */\n      dup1\n        /* \"@openzeppelin/contracts/utils/Address.sol\":3462:3468  target */\n      dup6\n        /* \"@openzeppelin/contracts/utils/Address.sol\":3462:3473  target.call */\n      0xffffffffffffffffffffffffffffffffffffffff\n      and\n        /* \"@openzeppelin/contracts/utils/Address.sol\":3481:3486  value */\n      dup5\n        /* \"@openzeppelin/contracts/utils/Address.sol\":3488:3492  data */\n      dup7\n        /* \"@openzeppelin/contracts/utils/Address.sol\":3462:3493  target.call{value: value}(data) */\n      mload(0x40)\n      tag_168\n      swap2\n      swap1\n      tag_169\n      jump\t// in\n    tag_168:\n      0x00\n      mload(0x40)\n      dup1\n      dup4\n      sub\n      dup2\n      dup6\n      dup8\n      gas\n      call\n      swap3\n      pop\n      pop\n      pop\n      returndatasize\n      dup1\n      0x00\n      dup2\n      eq\n      tag_172\n      jumpi\n      mload(0x40)\n      swap2\n      pop\n      and(add(returndatasize, 0x3f), not(0x1f))\n      dup3\n      add\n      0x40\n      mstore\n      returndatasize\n      dup3\n      mstore\n      returndatasize\n      0x00\n      0x20\n      dup5\n      add\n      returndatacopy\n      jump(tag_171)\n    tag_172:\n      0x60\n      swap2\n      pop\n    tag_171:\n      pop\n        /* \"@openzeppelin/contracts/utils/Address.sol\":3420:3493  (bool success, bytes memory returndata) = target.call{value: value}(data) */\n      swap2\n      pop\n      swap2\n      pop\n        /* \"@openzeppelin/contracts/utils/Address.sol\":3510:3565  verifyCallResultFromTarget(target, success, returndata) */\n      tag_173\n        /* \"@openzeppelin/contracts/utils/Address.sol\":3537:3543  target */\n      dup7\n        /* \"@openzeppelin/contracts/utils/Address.sol\":3545:3552  success */\n      dup4\n        /* \"@openzeppelin/contracts/utils/Address.sol\":3554:3564  returndata */\n      dup4\n        /* \"@openzeppelin/contracts/utils/Address.sol\":3510:3536  verifyCallResultFromTarget */\n      tag_174\n        /* \"@openzeppelin/contracts/utils/Address.sol\":3510:3565  verifyCallResultFromTarget(target, success, returndata) */\n      jump\t// in\n    tag_173:\n        /* \"@openzeppelin/contracts/utils/Address.sol\":3503:3565  return verifyCallResultFromTarget(target, success, returndata) */\n      swap3\n      pop\n      pop\n      pop\n        /* \"@openzeppelin/contracts/utils/Address.sol\":3180:3572  function functionCallWithValue(address target, bytes memory data, uint256 value) internal returns (bytes memory) {... */\n      swap4\n      swap3\n      pop\n      pop\n      pop\n      jump\t// out\n        /* \"@openzeppelin/contracts/utils/Address.sol\":4625:5207  function verifyCallResultFromTarget(... */\n    tag_174:\n        /* \"@openzeppelin/contracts/utils/Address.sol\":4769:4781  bytes memory */\n      0x60\n        /* \"@openzeppelin/contracts/utils/Address.sol\":4798:4805  success */\n      dup3\n        /* \"@openzeppelin/contracts/utils/Address.sol\":4793:5201  if (!success) {... */\n      tag_176\n      jumpi\n        /* \"@openzeppelin/contracts/utils/Address.sol\":4821:4840  _revert(returndata) */\n      tag_177\n        /* \"@openzeppelin/contracts/utils/Address.sol\":4829:4839  returndata */\n      dup3\n        /* \"@openzeppelin/contracts/utils/Address.sol\":4821:4828  _revert */\n      tag_178\n        /* \"@openzeppelin/contracts/utils/Address.sol\":4821:4840  _revert(returndata) */\n      jump\t// in\n    tag_177:\n        /* \"@openzeppelin/contracts/utils/Address.sol\":4793:5201  if (!success) {... */\n      jump(tag_179)\n    tag_176:\n        /* \"@openzeppelin/contracts/utils/Address.sol\":5066:5067  0 */\n      0x00\n        /* \"@openzeppelin/contracts/utils/Address.sol\":5045:5055  returndata */\n      dup3\n        /* \"@openzeppelin/contracts/utils/Address.sol\":5045:5062  returndata.length */\n      mload\n        /* \"@openzeppelin/contracts/utils/Address.sol\":5045:5067  returndata.length == 0 */\n      eq\n        /* \"@openzeppelin/contracts/utils/Address.sol\":5045:5094  returndata.length == 0 && target.code.length == 0 */\n      dup1\n      iszero\n      tag_180\n      jumpi\n      pop\n        /* \"@openzeppelin/contracts/utils/Address.sol\":5093:5094  0 */\n      0x00\n        /* \"@openzeppelin/contracts/utils/Address.sol\":5071:5077  target */\n      dup5\n        /* \"@openzeppelin/contracts/utils/Address.sol\":5071:5089  target.code.length */\n      0xffffffffffffffffffffffffffffffffffffffff\n      and\n      extcodesize\n        /* \"@openzeppelin/contracts/utils/Address.sol\":5071:5094  target.code.length == 0 */\n      eq\n        /* \"@openzeppelin/contracts/utils/Address.sol\":5045:5094  returndata.length == 0 && target.code.length == 0 */\n    tag_180:\n        /* \"@openzeppelin/contracts/utils/Address.sol\":5041:5160  if (returndata.length == 0 && target.code.length == 0) {... */\n      iszero\n      tag_181\n      jumpi\n        /* \"@openzeppelin/contracts/utils/Address.sol\":5138:5144  target */\n      dup4\n        /* \"@openzeppelin/contracts/utils/Address.sol\":5121:5145  AddressEmptyCode(target) */\n      mload(0x40)\n      0x9996b31500000000000000000000000000000000000000000000000000000000\n      dup2\n      mstore\n      0x04\n      add\n      tag_182\n      swap2\n      swap1\n      tag_22\n      jump\t// in\n    tag_182:\n      mload(0x40)\n      dup1\n      swap2\n      sub\n      swap1\n      revert\n        /* \"@openzeppelin/contracts/utils/Address.sol\":5041:5160  if (returndata.length == 0 && target.code.length == 0) {... */\n    tag_181:\n        /* \"@openzeppelin/contracts/utils/Address.sol\":5180:5190  returndata */\n      dup2\n        /* \"@openzeppelin/contracts/utils/Address.sol\":5173:5190  return returndata */\n      swap1\n      pop\n      jump(tag_175)\n        /* \"@openzeppelin/contracts/utils/Address.sol\":4793:5201  if (!success) {... */\n    tag_179:\n        /* \"@openzeppelin/contracts/utils/Address.sol\":4625:5207  function verifyCallResultFromTarget(... */\n    tag_175:\n      swap4\n      swap3\n      pop\n      pop\n      pop\n      jump\t// out\n        /* \"@openzeppelin/contracts/utils/Address.sol\":5743:6259  function _revert(bytes memory returndata) private pure {... */\n    tag_178:\n        /* \"@openzeppelin/contracts/utils/Address.sol\":5894:5895  0 */\n      0x00\n        /* \"@openzeppelin/contracts/utils/Address.sol\":5874:5884  returndata */\n      dup2\n        /* \"@openzeppelin/contracts/utils/Address.sol\":5874:5891  returndata.length */\n      mload\n        /* \"@openzeppelin/contracts/utils/Address.sol\":5874:5895  returndata.length > 0 */\n      gt\n        /* \"@openzeppelin/contracts/utils/Address.sol\":5870:6253  if (returndata.length > 0) {... */\n      iszero\n      tag_184\n      jumpi\n        /* \"@openzeppelin/contracts/utils/Address.sol\":6102:6112  returndata */\n      dup1\n        /* \"@openzeppelin/contracts/utils/Address.sol\":6096:6113  mload(returndata) */\n      mload\n        /* \"@openzeppelin/contracts/utils/Address.sol\":6158:6173  returndata_size */\n      dup1\n        /* \"@openzeppelin/contracts/utils/Address.sol\":6145:6155  returndata */\n      dup3\n        /* \"@openzeppelin/contracts/utils/Address.sol\":6141:6143  32 */\n      0x20\n        /* \"@openzeppelin/contracts/utils/Address.sol\":6137:6156  add(32, returndata) */\n      add\n        /* \"@openzeppelin/contracts/utils/Address.sol\":6130:6174  revert(add(32, returndata), returndata_size) */\n      revert\n        /* \"@openzeppelin/contracts/utils/Address.sol\":5870:6253  if (returndata.length > 0) {... */\n    tag_184:\n        /* \"@openzeppelin/contracts/utils/Address.sol\":6225:6242  FailedInnerCall() */\n      mload(0x40)\n      0x1425ea4200000000000000000000000000000000000000000000000000000000\n      dup2\n      mstore\n      0x04\n      add\n      mload(0x40)\n      dup1\n      swap2\n      sub\n      swap1\n      revert\n        /* \"#utility.yul\":7:84   */\n    tag_186:\n        /* \"#utility.yul\":44:51   */\n      0x00\n        /* \"#utility.yul\":73:78   */\n      dup2\n        /* \"#utility.yul\":62:78   */\n      swap1\n      pop\n        /* \"#utility.yul\":7:84   */\n      swap2\n      swap1\n      pop\n      jump\t// out\n        /* \"#utility.yul\":90:208   */\n    tag_187:\n        /* \"#utility.yul\":177:201   */\n      tag_226\n        /* \"#utility.yul\":195:200   */\n      dup2\n        /* \"#utility.yul\":177:201   */\n      tag_186\n      jump\t// in\n    tag_226:\n        /* \"#utility.yul\":172:175   */\n      dup3\n        /* \"#utility.yul\":165:202   */\n      mstore\n        /* \"#utility.yul\":90:208   */\n      pop\n      pop\n      jump\t// out\n        /* \"#utility.yul\":214:436   */\n    tag_17:\n        /* \"#utility.yul\":307:311   */\n      0x00\n        /* \"#utility.yul\":345:347   */\n      0x20\n        /* \"#utility.yul\":334:343   */\n      dup3\n        /* \"#utility.yul\":330:348   */\n      add\n        /* \"#utility.yul\":322:348   */\n      swap1\n      pop\n        /* \"#utility.yul\":358:429   */\n      tag_228\n        /* \"#utility.yul\":426:427   */\n      0x00\n        /* \"#utility.yul\":415:424   */\n      dup4\n        /* \"#utility.yul\":411:428   */\n      add\n        /* \"#utility.yul\":402:408   */\n      dup5\n        /* \"#utility.yul\":358:429   */\n      tag_187\n      jump\t// in\n    tag_228:\n        /* \"#utility.yul\":214:436   */\n      swap3\n      swap2\n      pop\n      pop\n      jump\t// out\n        /* \"#utility.yul\":442:568   */\n    tag_188:\n        /* \"#utility.yul\":479:486   */\n      0x00\n        /* \"#utility.yul\":519:561   */\n      0xffffffffffffffffffffffffffffffffffffffff\n        /* \"#utility.yul\":512:517   */\n      dup3\n        /* \"#utility.yul\":508:562   */\n      and\n        /* \"#utility.yul\":497:562   */\n      swap1\n      pop\n        /* \"#utility.yul\":442:568   */\n      swap2\n      swap1\n      pop\n      jump\t// out\n        /* \"#utility.yul\":574:670   */\n    tag_189:\n        /* \"#utility.yul\":611:618   */\n      0x00\n        /* \"#utility.yul\":640:664   */\n      tag_231\n        /* \"#utility.yul\":658:663   */\n      dup3\n        /* \"#utility.yul\":640:664   */\n      tag_188\n      jump\t// in\n    tag_231:\n        /* \"#utility.yul\":629:664   */\n      swap1\n      pop\n        /* \"#utility.yul\":574:670   */\n      swap2\n      swap1\n      pop\n      jump\t// out\n        /* \"#utility.yul\":676:794   */\n    tag_190:\n        /* \"#utility.yul\":763:787   */\n      tag_233\n        /* \"#utility.yul\":781:786   */\n      dup2\n        /* \"#utility.yul\":763:787   */\n      tag_189\n      jump\t// in\n    tag_233:\n        /* \"#utility.yul\":758:761   */\n      dup3\n        /* \"#utility.yul\":751:788   */\n      mstore\n        /* \"#utility.yul\":676:794   */\n      pop\n      pop\n      jump\t// out\n        /* \"#utility.yul\":800:1022   */\n    tag_22:\n        /* \"#utility.yul\":893:897   */\n      0x00\n        /* \"#utility.yul\":931:933   */\n      0x20\n        /* \"#utility.yul\":920:929   */\n      dup3\n        /* \"#utility.yul\":916:934   */\n      add\n        /* \"#utility.yul\":908:934   */\n      swap1\n      pop\n        /* \"#utility.yul\":944:1015   */\n      tag_235\n        /* \"#utility.yul\":1012:1013   */\n      0x00\n        /* \"#utility.yul\":1001:1010   */\n      dup4\n        /* \"#utility.yul\":997:1014   */\n      add\n        /* \"#utility.yul\":988:994   */\n      dup5\n        /* \"#utility.yul\":944:1015   */\n      tag_190\n      jump\t// in\n    tag_235:\n        /* \"#utility.yul\":800:1022   */\n      swap3\n      swap2\n      pop\n      pop\n      jump\t// out\n        /* \"#utility.yul\":1109:1226   */\n    tag_192:\n        /* \"#utility.yul\":1218:1219   */\n      0x00\n        /* \"#utility.yul\":1215:1216   */\n      dup1\n        /* \"#utility.yul\":1208:1220   */\n      revert\n        /* \"#utility.yul\":1355:1477   */\n    tag_194:\n        /* \"#utility.yul\":1428:1452   */\n      tag_240\n        /* \"#utility.yul\":1446:1451   */\n      dup2\n        /* \"#utility.yul\":1428:1452   */\n      tag_189\n      jump\t// in\n    tag_240:\n        /* \"#utility.yul\":1421:1426   */\n      dup2\n        /* \"#utility.yul\":1418:1453   */\n      eq\n        /* \"#utility.yul\":1408:1471   */\n      tag_241\n      jumpi\n        /* \"#utility.yul\":1467:1468   */\n      0x00\n        /* \"#utility.yul\":1464:1465   */\n      dup1\n        /* \"#utility.yul\":1457:1469   */\n      revert\n        /* \"#utility.yul\":1408:1471   */\n    tag_241:\n        /* \"#utility.yul\":1355:1477   */\n      pop\n      jump\t// out\n        /* \"#utility.yul\":1483:1622   */\n    tag_195:\n        /* \"#utility.yul\":1529:1534   */\n      0x00\n        /* \"#utility.yul\":1567:1573   */\n      dup2\n        /* \"#utility.yul\":1554:1574   */\n      calldataload\n        /* \"#utility.yul\":1545:1574   */\n      swap1\n      pop\n        /* \"#utility.yul\":1583:1616   */\n      tag_243\n        /* \"#utility.yul\":1610:1615   */\n      dup2\n        /* \"#utility.yul\":1583:1616   */\n      tag_194\n      jump\t// in\n    tag_243:\n        /* \"#utility.yul\":1483:1622   */\n      swap3\n      swap2\n      pop\n      pop\n      jump\t// out\n        /* \"#utility.yul\":1628:1750   */\n    tag_196:\n        /* \"#utility.yul\":1701:1725   */\n      tag_245\n        /* \"#utility.yul\":1719:1724   */\n      dup2\n        /* \"#utility.yul\":1701:1725   */\n      tag_186\n      jump\t// in\n    tag_245:\n        /* \"#utility.yul\":1694:1699   */\n      dup2\n        /* \"#utility.yul\":1691:1726   */\n      eq\n        /* \"#utility.yul\":1681:1744   */\n      tag_246\n      jumpi\n        /* \"#utility.yul\":1740:1741   */\n      0x00\n        /* \"#utility.yul\":1737:1738   */\n      dup1\n        /* \"#utility.yul\":1730:1742   */\n      revert\n        /* \"#utility.yul\":1681:1744   */\n    tag_246:\n        /* \"#utility.yul\":1628:1750   */\n      pop\n      jump\t// out\n        /* \"#utility.yul\":1756:1895   */\n    tag_197:\n        /* \"#utility.yul\":1802:1807   */\n      0x00\n        /* \"#utility.yul\":1840:1846   */\n      dup2\n        /* \"#utility.yul\":1827:1847   */\n      calldataload\n        /* \"#utility.yul\":1818:1847   */\n      swap1\n      pop\n        /* \"#utility.yul\":1856:1889   */\n      tag_248\n        /* \"#utility.yul\":1883:1888   */\n      dup2\n        /* \"#utility.yul\":1856:1889   */\n      tag_196\n      jump\t// in\n    tag_248:\n        /* \"#utility.yul\":1756:1895   */\n      swap3\n      swap2\n      pop\n      pop\n      jump\t// out\n        /* \"#utility.yul\":1901:2375   */\n    tag_29:\n        /* \"#utility.yul\":1969:1975   */\n      0x00\n        /* \"#utility.yul\":1977:1983   */\n      dup1\n        /* \"#utility.yul\":2026:2028   */\n      0x40\n        /* \"#utility.yul\":2014:2023   */\n      dup4\n        /* \"#utility.yul\":2005:2012   */\n      dup6\n        /* \"#utility.yul\":2001:2024   */\n      sub\n        /* \"#utility.yul\":1997:2029   */\n      slt\n        /* \"#utility.yul\":1994:2113   */\n      iszero\n      tag_250\n      jumpi\n        /* \"#utility.yul\":2032:2111   */\n      tag_251\n      tag_192\n      jump\t// in\n    tag_251:\n        /* \"#utility.yul\":1994:2113   */\n    tag_250:\n        /* \"#utility.yul\":2152:2153   */\n      0x00\n        /* \"#utility.yul\":2177:2230   */\n      tag_252\n        /* \"#utility.yul\":2222:2229   */\n      dup6\n        /* \"#utility.yul\":2213:2219   */\n      dup3\n        /* \"#utility.yul\":2202:2211   */\n      dup7\n        /* \"#utility.yul\":2198:2220   */\n      add\n        /* \"#utility.yul\":2177:2230   */\n      tag_195\n      jump\t// in\n    tag_252:\n        /* \"#utility.yul\":2167:2230   */\n      swap3\n      pop\n        /* \"#utility.yul\":2123:2240   */\n      pop\n        /* \"#utility.yul\":2279:2281   */\n      0x20\n        /* \"#utility.yul\":2305:2358   */\n      tag_253\n        /* \"#utility.yul\":2350:2357   */\n      dup6\n        /* \"#utility.yul\":2341:2347   */\n      dup3\n        /* \"#utility.yul\":2330:2339   */\n      dup7\n        /* \"#utility.yul\":2326:2348   */\n      add\n        /* \"#utility.yul\":2305:2358   */\n      tag_197\n      jump\t// in\n    tag_253:\n        /* \"#utility.yul\":2295:2358   */\n      swap2\n      pop\n        /* \"#utility.yul\":2250:2368   */\n      pop\n        /* \"#utility.yul\":1901:2375   */\n      swap3\n      pop\n      swap3\n      swap1\n      pop\n      jump\t// out\n        /* \"#utility.yul\":2381:2471   */\n    tag_198:\n        /* \"#utility.yul\":2415:2422   */\n      0x00\n        /* \"#utility.yul\":2458:2463   */\n      dup2\n        /* \"#utility.yul\":2451:2464   */\n      iszero\n        /* \"#utility.yul\":2444:2465   */\n      iszero\n        /* \"#utility.yul\":2433:2465   */\n      swap1\n      pop\n        /* \"#utility.yul\":2381:2471   */\n      swap2\n      swap1\n      pop\n      jump\t// out\n        /* \"#utility.yul\":2477:2586   */\n    tag_199:\n        /* \"#utility.yul\":2558:2579   */\n      tag_256\n        /* \"#utility.yul\":2573:2578   */\n      dup2\n        /* \"#utility.yul\":2558:2579   */\n      tag_198\n      jump\t// in\n    tag_256:\n        /* \"#utility.yul\":2553:2556   */\n      dup3\n        /* \"#utility.yul\":2546:2580   */\n      mstore\n        /* \"#utility.yul\":2477:2586   */\n      pop\n      pop\n      jump\t// out\n        /* \"#utility.yul\":2592:2802   */\n    tag_36:\n        /* \"#utility.yul\":2679:2683   */\n      0x00\n        /* \"#utility.yul\":2717:2719   */\n      0x20\n        /* \"#utility.yul\":2706:2715   */\n      dup3\n        /* \"#utility.yul\":2702:2720   */\n      add\n        /* \"#utility.yul\":2694:2720   */\n      swap1\n      pop\n        /* \"#utility.yul\":2730:2795   */\n      tag_258\n        /* \"#utility.yul\":2792:2793   */\n      0x00\n        /* \"#utility.yul\":2781:2790   */\n      dup4\n        /* \"#utility.yul\":2777:2794   */\n      add\n        /* \"#utility.yul\":2768:2774   */\n      dup5\n        /* \"#utility.yul\":2730:2795   */\n      tag_199\n      jump\t// in\n    tag_258:\n        /* \"#utility.yul\":2592:2802   */\n      swap3\n      swap2\n      pop\n      pop\n      jump\t// out\n        /* \"#utility.yul\":2808:3137   */\n    tag_40:\n        /* \"#utility.yul\":2867:2873   */\n      0x00\n        /* \"#utility.yul\":2916:2918   */\n      0x20\n        /* \"#utility.yul\":2904:2913   */\n      dup3\n        /* \"#utility.yul\":2895:2902   */\n      dup5\n        /* \"#utility.yul\":2891:2914   */\n      sub\n        /* \"#utility.yul\":2887:2919   */\n      slt\n        /* \"#utility.yul\":2884:3003   */\n      iszero\n      tag_260\n      jumpi\n        /* \"#utility.yul\":2922:3001   */\n      tag_261\n      tag_192\n      jump\t// in\n    tag_261:\n        /* \"#utility.yul\":2884:3003   */\n    tag_260:\n        /* \"#utility.yul\":3042:3043   */\n      0x00\n        /* \"#utility.yul\":3067:3120   */\n      tag_262\n        /* \"#utility.yul\":3112:3119   */\n      dup5\n        /* \"#utility.yul\":3103:3109   */\n      dup3\n        /* \"#utility.yul\":3092:3101   */\n      dup6\n        /* \"#utility.yul\":3088:3110   */\n      add\n        /* \"#utility.yul\":3067:3120   */\n      tag_195\n      jump\t// in\n    tag_262:\n        /* \"#utility.yul\":3057:3120   */\n      swap2\n      pop\n        /* \"#utility.yul\":3013:3130   */\n      pop\n        /* \"#utility.yul\":2808:3137   */\n      swap3\n      swap2\n      pop\n      pop\n      jump\t// out\n        /* \"#utility.yul\":3143:3312   */\n    tag_200:\n        /* \"#utility.yul\":3227:3238   */\n      0x00\n        /* \"#utility.yul\":3261:3267   */\n      dup3\n        /* \"#utility.yul\":3256:3259   */\n      dup3\n        /* \"#utility.yul\":3249:3268   */\n      mstore\n        /* \"#utility.yul\":3301:3305   */\n      0x20\n        /* \"#utility.yul\":3296:3299   */\n      dup3\n        /* \"#utility.yul\":3292:3306   */\n      add\n        /* \"#utility.yul\":3277:3306   */\n      swap1\n      pop\n        /* \"#utility.yul\":3143:3312   */\n      swap3\n      swap2\n      pop\n      pop\n      jump\t// out\n        /* \"#utility.yul\":3318:3542   */\n    tag_201:\n        /* \"#utility.yul\":3458:3492   */\n      0x4f6e6c7920746865206f776e65722063616e2063616c6c20746869732066756e\n        /* \"#utility.yul\":3454:3455   */\n      0x00\n        /* \"#utility.yul\":3446:3452   */\n      dup3\n        /* \"#utility.yul\":3442:3456   */\n      add\n        /* \"#utility.yul\":3435:3493   */\n      mstore\n        /* \"#utility.yul\":3527:3534   */\n      0x6374696f6e000000000000000000000000000000000000000000000000000000\n        /* \"#utility.yul\":3522:3524   */\n      0x20\n        /* \"#utility.yul\":3514:3520   */\n      dup3\n        /* \"#utility.yul\":3510:3525   */\n      add\n        /* \"#utility.yul\":3503:3535   */\n      mstore\n        /* \"#utility.yul\":3318:3542   */\n      pop\n      jump\t// out\n        /* \"#utility.yul\":3548:3914   */\n    tag_202:\n        /* \"#utility.yul\":3690:3693   */\n      0x00\n        /* \"#utility.yul\":3711:3778   */\n      tag_266\n        /* \"#utility.yul\":3775:3777   */\n      0x25\n        /* \"#utility.yul\":3770:3773   */\n      dup4\n        /* \"#utility.yul\":3711:3778   */\n      tag_200\n      jump\t// in\n    tag_266:\n        /* \"#utility.yul\":3704:3778   */\n      swap2\n      pop\n        /* \"#utility.yul\":3787:3880   */\n      tag_267\n        /* \"#utility.yul\":3876:3879   */\n      dup3\n        /* \"#utility.yul\":3787:3880   */\n      tag_201\n      jump\t// in\n    tag_267:\n        /* \"#utility.yul\":3905:3907   */\n      0x40\n        /* \"#utility.yul\":3900:3903   */\n      dup3\n        /* \"#utility.yul\":3896:3908   */\n      add\n        /* \"#utility.yul\":3889:3908   */\n      swap1\n      pop\n        /* \"#utility.yul\":3548:3914   */\n      swap2\n      swap1\n      pop\n      jump\t// out\n        /* \"#utility.yul\":3920:4339   */\n    tag_61:\n        /* \"#utility.yul\":4086:4090   */\n      0x00\n        /* \"#utility.yul\":4124:4126   */\n      0x20\n        /* \"#utility.yul\":4113:4122   */\n      dup3\n        /* \"#utility.yul\":4109:4127   */\n      add\n        /* \"#utility.yul\":4101:4127   */\n      swap1\n      pop\n        /* \"#utility.yul\":4173:4182   */\n      dup2\n        /* \"#utility.yul\":4167:4171   */\n      dup2\n        /* \"#utility.yul\":4163:4183   */\n      sub\n        /* \"#utility.yul\":4159:4160   */\n      0x00\n        /* \"#utility.yul\":4148:4157   */\n      dup4\n        /* \"#utility.yul\":4144:4161   */\n      add\n        /* \"#utility.yul\":4137:4184   */\n      mstore\n        /* \"#utility.yul\":4201:4332   */\n      tag_269\n        /* \"#utility.yul\":4327:4331   */\n      dup2\n        /* \"#utility.yul\":4201:4332   */\n      tag_202\n      jump\t// in\n    tag_269:\n        /* \"#utility.yul\":4193:4332   */\n      swap1\n      pop\n        /* \"#utility.yul\":3920:4339   */\n      swap2\n      swap1\n      pop\n      jump\t// out\n        /* \"#utility.yul\":4345:4513   */\n    tag_203:\n        /* \"#utility.yul\":4485:4505   */\n      0x4e6f2045544820746f2077697468647261770000000000000000000000000000\n        /* \"#utility.yul\":4481:4482   */\n      0x00\n        /* \"#utility.yul\":4473:4479   */\n      dup3\n        /* \"#utility.yul\":4469:4483   */\n      add\n        /* \"#utility.yul\":4462:4506   */\n      mstore\n        /* \"#utility.yul\":4345:4513   */\n      pop\n      jump\t// out\n        /* \"#utility.yul\":4519:4885   */\n    tag_204:\n        /* \"#utility.yul\":4661:4664   */\n      0x00\n        /* \"#utility.yul\":4682:4749   */\n      tag_272\n        /* \"#utility.yul\":4746:4748   */\n      0x12\n        /* \"#utility.yul\":4741:4744   */\n      dup4\n        /* \"#utility.yul\":4682:4749   */\n      tag_200\n      jump\t// in\n    tag_272:\n        /* \"#utility.yul\":4675:4749   */\n      swap2\n      pop\n        /* \"#utility.yul\":4758:4851   */\n      tag_273\n        /* \"#utility.yul\":4847:4850   */\n      dup3\n        /* \"#utility.yul\":4758:4851   */\n      tag_203\n      jump\t// in\n    tag_273:\n        /* \"#utility.yul\":4876:4878   */\n      0x20\n        /* \"#utility.yul\":4871:4874   */\n      dup3\n        /* \"#utility.yul\":4867:4879   */\n      add\n        /* \"#utility.yul\":4860:4879   */\n      swap1\n      pop\n        /* \"#utility.yul\":4519:4885   */\n      swap2\n      swap1\n      pop\n      jump\t// out\n        /* \"#utility.yul\":4891:5310   */\n    tag_68:\n        /* \"#utility.yul\":5057:5061   */\n      0x00\n        /* \"#utility.yul\":5095:5097   */\n      0x20\n        /* \"#utility.yul\":5084:5093   */\n      dup3\n        /* \"#utility.yul\":5080:5098   */\n      add\n        /* \"#utility.yul\":5072:5098   */\n      swap1\n      pop\n        /* \"#utility.yul\":5144:5153   */\n      dup2\n        /* \"#utility.yul\":5138:5142   */\n      dup2\n        /* \"#utility.yul\":5134:5154   */\n      sub\n        /* \"#utility.yul\":5130:5131   */\n      0x00\n        /* \"#utility.yul\":5119:5128   */\n      dup4\n        /* \"#utility.yul\":5115:5132   */\n      add\n        /* \"#utility.yul\":5108:5155   */\n      mstore\n        /* \"#utility.yul\":5172:5303   */\n      tag_275\n        /* \"#utility.yul\":5298:5302   */\n      dup2\n        /* \"#utility.yul\":5172:5303   */\n      tag_204\n      jump\t// in\n    tag_275:\n        /* \"#utility.yul\":5164:5303   */\n      swap1\n      pop\n        /* \"#utility.yul\":4891:5310   */\n      swap2\n      swap1\n      pop\n      jump\t// out\n        /* \"#utility.yul\":5316:5463   */\n    tag_205:\n        /* \"#utility.yul\":5417:5428   */\n      0x00\n        /* \"#utility.yul\":5454:5457   */\n      dup2\n        /* \"#utility.yul\":5439:5457   */\n      swap1\n      pop\n        /* \"#utility.yul\":5316:5463   */\n      swap3\n      swap2\n      pop\n      pop\n      jump\t// out\n        /* \"#utility.yul\":5469:5583   */\n    tag_206:\n      pop\n      jump\t// out\n        /* \"#utility.yul\":5589:5987   */\n    tag_207:\n        /* \"#utility.yul\":5748:5751   */\n      0x00\n        /* \"#utility.yul\":5769:5852   */\n      tag_279\n        /* \"#utility.yul\":5850:5851   */\n      0x00\n        /* \"#utility.yul\":5845:5848   */\n      dup4\n        /* \"#utility.yul\":5769:5852   */\n      tag_205\n      jump\t// in\n    tag_279:\n        /* \"#utility.yul\":5762:5852   */\n      swap2\n      pop\n        /* \"#utility.yul\":5861:5954   */\n      tag_280\n        /* \"#utility.yul\":5950:5953   */\n      dup3\n        /* \"#utility.yul\":5861:5954   */\n      tag_206\n      jump\t// in\n    tag_280:\n        /* \"#utility.yul\":5979:5980   */\n      0x00\n        /* \"#utility.yul\":5974:5977   */\n      dup3\n        /* \"#utility.yul\":5970:5981   */\n      add\n        /* \"#utility.yul\":5963:5981   */\n      swap1\n      pop\n        /* \"#utility.yul\":5589:5987   */\n      swap2\n      swap1\n      pop\n      jump\t// out\n        /* \"#utility.yul\":5993:6372   */\n    tag_70:\n        /* \"#utility.yul\":6177:6180   */\n      0x00\n        /* \"#utility.yul\":6199:6346   */\n      tag_282\n        /* \"#utility.yul\":6342:6345   */\n      dup3\n        /* \"#utility.yul\":6199:6346   */\n      tag_207\n      jump\t// in\n    tag_282:\n        /* \"#utility.yul\":6192:6346   */\n      swap2\n      pop\n        /* \"#utility.yul\":6363:6366   */\n      dup2\n        /* \"#utility.yul\":6356:6366   */\n      swap1\n      pop\n        /* \"#utility.yul\":5993:6372   */\n      swap2\n      swap1\n      pop\n      jump\t// out\n        /* \"#utility.yul\":6378:6547   */\n    tag_208:\n        /* \"#utility.yul\":6518:6539   */\n      0x455448207472616e73666572206661696c656400000000000000000000000000\n        /* \"#utility.yul\":6514:6515   */\n      0x00\n        /* \"#utility.yul\":6506:6512   */\n      dup3\n        /* \"#utility.yul\":6502:6516   */\n      add\n        /* \"#utility.yul\":6495:6540   */\n      mstore\n        /* \"#utility.yul\":6378:6547   */\n      pop\n      jump\t// out\n        /* \"#utility.yul\":6553:6919   */\n    tag_209:\n        /* \"#utility.yul\":6695:6698   */\n      0x00\n        /* \"#utility.yul\":6716:6783   */\n      tag_285\n        /* \"#utility.yul\":6780:6782   */\n      0x13\n        /* \"#utility.yul\":6775:6778   */\n      dup4\n        /* \"#utility.yul\":6716:6783   */\n      tag_200\n      jump\t// in\n    tag_285:\n        /* \"#utility.yul\":6709:6783   */\n      swap2\n      pop\n        /* \"#utility.yul\":6792:6885   */\n      tag_286\n        /* \"#utility.yul\":6881:6884   */\n      dup3\n        /* \"#utility.yul\":6792:6885   */\n      tag_208\n      jump\t// in\n    tag_286:\n        /* \"#utility.yul\":6910:6912   */\n      0x20\n        /* \"#utility.yul\":6905:6908   */\n      dup3\n        /* \"#utility.yul\":6901:6913   */\n      add\n        /* \"#utility.yul\":6894:6913   */\n      swap1\n      pop\n        /* \"#utility.yul\":6553:6919   */\n      swap2\n      swap1\n      pop\n      jump\t// out\n        /* \"#utility.yul\":6925:7344   */\n    tag_76:\n        /* \"#utility.yul\":7091:7095   */\n      0x00\n        /* \"#utility.yul\":7129:7131   */\n      0x20\n        /* \"#utility.yul\":7118:7127   */\n      dup3\n        /* \"#utility.yul\":7114:7132   */\n      add\n        /* \"#utility.yul\":7106:7132   */\n      swap1\n      pop\n        /* \"#utility.yul\":7178:7187   */\n      dup2\n        /* \"#utility.yul\":7172:7176   */\n      dup2\n        /* \"#utility.yul\":7168:7188   */\n      sub\n        /* \"#utility.yul\":7164:7165   */\n      0x00\n        /* \"#utility.yul\":7153:7162   */\n      dup4\n        /* \"#utility.yul\":7149:7166   */\n      add\n        /* \"#utility.yul\":7142:7189   */\n      mstore\n        /* \"#utility.yul\":7206:7337   */\n      tag_288\n        /* \"#utility.yul\":7332:7336   */\n      dup2\n        /* \"#utility.yul\":7206:7337   */\n      tag_209\n      jump\t// in\n    tag_288:\n        /* \"#utility.yul\":7198:7337   */\n      swap1\n      pop\n        /* \"#utility.yul\":6925:7344   */\n      swap2\n      swap1\n      pop\n      jump\t// out\n        /* \"#utility.yul\":7350:7493   */\n    tag_210:\n        /* \"#utility.yul\":7407:7412   */\n      0x00\n        /* \"#utility.yul\":7438:7444   */\n      dup2\n        /* \"#utility.yul\":7432:7445   */\n      mload\n        /* \"#utility.yul\":7423:7445   */\n      swap1\n      pop\n        /* \"#utility.yul\":7454:7487   */\n      tag_290\n        /* \"#utility.yul\":7481:7486   */\n      dup2\n        /* \"#utility.yul\":7454:7487   */\n      tag_194\n      jump\t// in\n    tag_290:\n        /* \"#utility.yul\":7350:7493   */\n      swap3\n      swap2\n      pop\n      pop\n      jump\t// out\n        /* \"#utility.yul\":7499:7850   */\n    tag_89:\n        /* \"#utility.yul\":7569:7575   */\n      0x00\n        /* \"#utility.yul\":7618:7620   */\n      0x20\n        /* \"#utility.yul\":7606:7615   */\n      dup3\n        /* \"#utility.yul\":7597:7604   */\n      dup5\n        /* \"#utility.yul\":7593:7616   */\n      sub\n        /* \"#utility.yul\":7589:7621   */\n      slt\n        /* \"#utility.yul\":7586:7705   */\n      iszero\n      tag_292\n      jumpi\n        /* \"#utility.yul\":7624:7703   */\n      tag_293\n      tag_192\n      jump\t// in\n    tag_293:\n        /* \"#utility.yul\":7586:7705   */\n    tag_292:\n        /* \"#utility.yul\":7744:7745   */\n      0x00\n        /* \"#utility.yul\":7769:7833   */\n      tag_294\n        /* \"#utility.yul\":7825:7832   */\n      dup5\n        /* \"#utility.yul\":7816:7822   */\n      dup3\n        /* \"#utility.yul\":7805:7814   */\n      dup6\n        /* \"#utility.yul\":7801:7823   */\n      add\n        /* \"#utility.yul\":7769:7833   */\n      tag_210\n      jump\t// in\n    tag_294:\n        /* \"#utility.yul\":7759:7833   */\n      swap2\n      pop\n        /* \"#utility.yul\":7715:7843   */\n      pop\n        /* \"#utility.yul\":7499:7850   */\n      swap3\n      swap2\n      pop\n      pop\n      jump\t// out\n        /* \"#utility.yul\":7856:7999   */\n    tag_211:\n        /* \"#utility.yul\":7913:7918   */\n      0x00\n        /* \"#utility.yul\":7944:7950   */\n      dup2\n        /* \"#utility.yul\":7938:7951   */\n      mload\n        /* \"#utility.yul\":7929:7951   */\n      swap1\n      pop\n        /* \"#utility.yul\":7960:7993   */\n      tag_296\n        /* \"#utility.yul\":7987:7992   */\n      dup2\n        /* \"#utility.yul\":7960:7993   */\n      tag_196\n      jump\t// in\n    tag_296:\n        /* \"#utility.yul\":7856:7999   */\n      swap3\n      swap2\n      pop\n      pop\n      jump\t// out\n        /* \"#utility.yul\":8005:8356   */\n    tag_95:\n        /* \"#utility.yul\":8075:8081   */\n      0x00\n        /* \"#utility.yul\":8124:8126   */\n      0x20\n        /* \"#utility.yul\":8112:8121   */\n      dup3\n        /* \"#utility.yul\":8103:8110   */\n      dup5\n        /* \"#utility.yul\":8099:8122   */\n      sub\n        /* \"#utility.yul\":8095:8127   */\n      slt\n        /* \"#utility.yul\":8092:8211   */\n      iszero\n      tag_298\n      jumpi\n        /* \"#utility.yul\":8130:8209   */\n      tag_299\n      tag_192\n      jump\t// in\n    tag_299:\n        /* \"#utility.yul\":8092:8211   */\n    tag_298:\n        /* \"#utility.yul\":8250:8251   */\n      0x00\n        /* \"#utility.yul\":8275:8339   */\n      tag_300\n        /* \"#utility.yul\":8331:8338   */\n      dup5\n        /* \"#utility.yul\":8322:8328   */\n      dup3\n        /* \"#utility.yul\":8311:8320   */\n      dup6\n        /* \"#utility.yul\":8307:8329   */\n      add\n        /* \"#utility.yul\":8275:8339   */\n      tag_211\n      jump\t// in\n    tag_300:\n        /* \"#utility.yul\":8265:8339   */\n      swap2\n      pop\n        /* \"#utility.yul\":8221:8349   */\n      pop\n        /* \"#utility.yul\":8005:8356   */\n      swap3\n      swap2\n      pop\n      pop\n      jump\t// out\n        /* \"#utility.yul\":8362:8804   */\n    tag_100:\n        /* \"#utility.yul\":8511:8515   */\n      0x00\n        /* \"#utility.yul\":8549:8551   */\n      0x60\n        /* \"#utility.yul\":8538:8547   */\n      dup3\n        /* \"#utility.yul\":8534:8552   */\n      add\n        /* \"#utility.yul\":8526:8552   */\n      swap1\n      pop\n        /* \"#utility.yul\":8562:8633   */\n      tag_302\n        /* \"#utility.yul\":8630:8631   */\n      0x00\n        /* \"#utility.yul\":8619:8628   */\n      dup4\n        /* \"#utility.yul\":8615:8632   */\n      add\n        /* \"#utility.yul\":8606:8612   */\n      dup7\n        /* \"#utility.yul\":8562:8633   */\n      tag_190\n      jump\t// in\n    tag_302:\n        /* \"#utility.yul\":8643:8715   */\n      tag_303\n        /* \"#utility.yul\":8711:8713   */\n      0x20\n        /* \"#utility.yul\":8700:8709   */\n      dup4\n        /* \"#utility.yul\":8696:8714   */\n      add\n        /* \"#utility.yul\":8687:8693   */\n      dup6\n        /* \"#utility.yul\":8643:8715   */\n      tag_190\n      jump\t// in\n    tag_303:\n        /* \"#utility.yul\":8725:8797   */\n      tag_304\n        /* \"#utility.yul\":8793:8795   */\n      0x40\n        /* \"#utility.yul\":8782:8791   */\n      dup4\n        /* \"#utility.yul\":8778:8796   */\n      add\n        /* \"#utility.yul\":8769:8775   */\n      dup5\n        /* \"#utility.yul\":8725:8797   */\n      tag_187\n      jump\t// in\n    tag_304:\n        /* \"#utility.yul\":8362:8804   */\n      swap5\n      swap4\n      pop\n      pop\n      pop\n      pop\n      jump\t// out\n        /* \"#utility.yul\":8810:9034   */\n    tag_212:\n        /* \"#utility.yul\":8950:8984   */\n      0x54686973204e4654206973206e6f74206f776e65642062792074686520636f6e\n        /* \"#utility.yul\":8946:8947   */\n      0x00\n        /* \"#utility.yul\":8938:8944   */\n      dup3\n        /* \"#utility.yul\":8934:8948   */\n      add\n        /* \"#utility.yul\":8927:8985   */\n      mstore\n        /* \"#utility.yul\":9019:9026   */\n      0x7472616374000000000000000000000000000000000000000000000000000000\n        /* \"#utility.yul\":9014:9016   */\n      0x20\n        /* \"#utility.yul\":9006:9012   */\n      dup3\n        /* \"#utility.yul\":9002:9017   */\n      add\n        /* \"#utility.yul\":8995:9027   */\n      mstore\n        /* \"#utility.yul\":8810:9034   */\n      pop\n      jump\t// out\n        /* \"#utility.yul\":9040:9406   */\n    tag_213:\n        /* \"#utility.yul\":9182:9185   */\n      0x00\n        /* \"#utility.yul\":9203:9270   */\n      tag_307\n        /* \"#utility.yul\":9267:9269   */\n      0x25\n        /* \"#utility.yul\":9262:9265   */\n      dup4\n        /* \"#utility.yul\":9203:9270   */\n      tag_200\n      jump\t// in\n    tag_307:\n        /* \"#utility.yul\":9196:9270   */\n      swap2\n      pop\n        /* \"#utility.yul\":9279:9372   */\n      tag_308\n        /* \"#utility.yul\":9368:9371   */\n      dup3\n        /* \"#utility.yul\":9279:9372   */\n      tag_212\n      jump\t// in\n    tag_308:\n        /* \"#utility.yul\":9397:9399   */\n      0x40\n        /* \"#utility.yul\":9392:9395   */\n      dup3\n        /* \"#utility.yul\":9388:9400   */\n      add\n        /* \"#utility.yul\":9381:9400   */\n      swap1\n      pop\n        /* \"#utility.yul\":9040:9406   */\n      swap2\n      swap1\n      pop\n      jump\t// out\n        /* \"#utility.yul\":9412:9831   */\n    tag_117:\n        /* \"#utility.yul\":9578:9582   */\n      0x00\n        /* \"#utility.yul\":9616:9618   */\n      0x20\n        /* \"#utility.yul\":9605:9614   */\n      dup3\n        /* \"#utility.yul\":9601:9619   */\n      add\n        /* \"#utility.yul\":9593:9619   */\n      swap1\n      pop\n        /* \"#utility.yul\":9665:9674   */\n      dup2\n        /* \"#utility.yul\":9659:9663   */\n      dup2\n        /* \"#utility.yul\":9655:9675   */\n      sub\n        /* \"#utility.yul\":9651:9652   */\n      0x00\n        /* \"#utility.yul\":9640:9649   */\n      dup4\n        /* \"#utility.yul\":9636:9653   */\n      add\n        /* \"#utility.yul\":9629:9676   */\n      mstore\n        /* \"#utility.yul\":9693:9824   */\n      tag_310\n        /* \"#utility.yul\":9819:9823   */\n      dup2\n        /* \"#utility.yul\":9693:9824   */\n      tag_213\n      jump\t// in\n    tag_310:\n        /* \"#utility.yul\":9685:9824   */\n      swap1\n      pop\n        /* \"#utility.yul\":9412:9831   */\n      swap2\n      swap1\n      pop\n      jump\t// out\n        /* \"#utility.yul\":9837:10008   */\n    tag_214:\n        /* \"#utility.yul\":9977:10000   */\n      0x4e6f20746f6b656e7320746f2077697468647261770000000000000000000000\n        /* \"#utility.yul\":9973:9974   */\n      0x00\n        /* \"#utility.yul\":9965:9971   */\n      dup3\n        /* \"#utility.yul\":9961:9975   */\n      add\n        /* \"#utility.yul\":9954:10001   */\n      mstore\n        /* \"#utility.yul\":9837:10008   */\n      pop\n      jump\t// out\n        /* \"#utility.yul\":10014:10380   */\n    tag_215:\n        /* \"#utility.yul\":10156:10159   */\n      0x00\n        /* \"#utility.yul\":10177:10244   */\n      tag_313\n        /* \"#utility.yul\":10241:10243   */\n      0x15\n        /* \"#utility.yul\":10236:10239   */\n      dup4\n        /* \"#utility.yul\":10177:10244   */\n      tag_200\n      jump\t// in\n    tag_313:\n        /* \"#utility.yul\":10170:10244   */\n      swap2\n      pop\n        /* \"#utility.yul\":10253:10346   */\n      tag_314\n        /* \"#utility.yul\":10342:10345   */\n      dup3\n        /* \"#utility.yul\":10253:10346   */\n      tag_214\n      jump\t// in\n    tag_314:\n        /* \"#utility.yul\":10371:10373   */\n      0x20\n        /* \"#utility.yul\":10366:10369   */\n      dup3\n        /* \"#utility.yul\":10362:10374   */\n      add\n        /* \"#utility.yul\":10355:10374   */\n      swap1\n      pop\n        /* \"#utility.yul\":10014:10380   */\n      swap2\n      swap1\n      pop\n      jump\t// out\n        /* \"#utility.yul\":10386:10805   */\n    tag_136:\n        /* \"#utility.yul\":10552:10556   */\n      0x00\n        /* \"#utility.yul\":10590:10592   */\n      0x20\n        /* \"#utility.yul\":10579:10588   */\n      dup3\n        /* \"#utility.yul\":10575:10593   */\n      add\n        /* \"#utility.yul\":10567:10593   */\n      swap1\n      pop\n        /* \"#utility.yul\":10639:10648   */\n      dup2\n        /* \"#utility.yul\":10633:10637   */\n      dup2\n        /* \"#utility.yul\":10629:10649   */\n      sub\n        /* \"#utility.yul\":10625:10626   */\n      0x00\n        /* \"#utility.yul\":10614:10623   */\n      dup4\n        /* \"#utility.yul\":10610:10627   */\n      add\n        /* \"#utility.yul\":10603:10650   */\n      mstore\n        /* \"#utility.yul\":10667:10798   */\n      tag_316\n        /* \"#utility.yul\":10793:10797   */\n      dup2\n        /* \"#utility.yul\":10667:10798   */\n      tag_215\n      jump\t// in\n    tag_316:\n        /* \"#utility.yul\":10659:10798   */\n      swap1\n      pop\n        /* \"#utility.yul\":10386:10805   */\n      swap2\n      swap1\n      pop\n      jump\t// out\n        /* \"#utility.yul\":10811:10992   */\n    tag_216:\n        /* \"#utility.yul\":10951:10984   */\n      0x5265656e7472616e637947756172643a207265656e7472616e742063616c6c00\n        /* \"#utility.yul\":10947:10948   */\n      0x00\n        /* \"#utility.yul\":10939:10945   */\n      dup3\n        /* \"#utility.yul\":10935:10949   */\n      add\n        /* \"#utility.yul\":10928:10985   */\n      mstore\n        /* \"#utility.yul\":10811:10992   */\n      pop\n      jump\t// out\n        /* \"#utility.yul\":10998:11364   */\n    tag_217:\n        /* \"#utility.yul\":11140:11143   */\n      0x00\n        /* \"#utility.yul\":11161:11228   */\n      tag_319\n        /* \"#utility.yul\":11225:11227   */\n      0x1f\n        /* \"#utility.yul\":11220:11223   */\n      dup4\n        /* \"#utility.yul\":11161:11228   */\n      tag_200\n      jump\t// in\n    tag_319:\n        /* \"#utility.yul\":11154:11228   */\n      swap2\n      pop\n        /* \"#utility.yul\":11237:11330   */\n      tag_320\n        /* \"#utility.yul\":11326:11329   */\n      dup3\n        /* \"#utility.yul\":11237:11330   */\n      tag_216\n      jump\t// in\n    tag_320:\n        /* \"#utility.yul\":11355:11357   */\n      0x20\n        /* \"#utility.yul\":11350:11353   */\n      dup3\n        /* \"#utility.yul\":11346:11358   */\n      add\n        /* \"#utility.yul\":11339:11358   */\n      swap1\n      pop\n        /* \"#utility.yul\":10998:11364   */\n      swap2\n      swap1\n      pop\n      jump\t// out\n        /* \"#utility.yul\":11370:11789   */\n    tag_144:\n        /* \"#utility.yul\":11536:11540   */\n      0x00\n        /* \"#utility.yul\":11574:11576   */\n      0x20\n        /* \"#utility.yul\":11563:11572   */\n      dup3\n        /* \"#utility.yul\":11559:11577   */\n      add\n        /* \"#utility.yul\":11551:11577   */\n      swap1\n      pop\n        /* \"#utility.yul\":11623:11632   */\n      dup2\n        /* \"#utility.yul\":11617:11621   */\n      dup2\n        /* \"#utility.yul\":11613:11633   */\n      sub\n        /* \"#utility.yul\":11609:11610   */\n      0x00\n        /* \"#utility.yul\":11598:11607   */\n      dup4\n        /* \"#utility.yul\":11594:11611   */\n      add\n        /* \"#utility.yul\":11587:11634   */\n      mstore\n        /* \"#utility.yul\":11651:11782   */\n      tag_322\n        /* \"#utility.yul\":11777:11781   */\n      dup2\n        /* \"#utility.yul\":11651:11782   */\n      tag_217\n      jump\t// in\n    tag_322:\n        /* \"#utility.yul\":11643:11782   */\n      swap1\n      pop\n        /* \"#utility.yul\":11370:11789   */\n      swap2\n      swap1\n      pop\n      jump\t// out\n        /* \"#utility.yul\":11795:12127   */\n    tag_153:\n        /* \"#utility.yul\":11916:11920   */\n      0x00\n        /* \"#utility.yul\":11954:11956   */\n      0x40\n        /* \"#utility.yul\":11943:11952   */\n      dup3\n        /* \"#utility.yul\":11939:11957   */\n      add\n        /* \"#utility.yul\":11931:11957   */\n      swap1\n      pop\n        /* \"#utility.yul\":11967:12038   */\n      tag_324\n        /* \"#utility.yul\":12035:12036   */\n      0x00\n        /* \"#utility.yul\":12024:12033   */\n      dup4\n        /* \"#utility.yul\":12020:12037   */\n      add\n        /* \"#utility.yul\":12011:12017   */\n      dup6\n        /* \"#utility.yul\":11967:12038   */\n      tag_190\n      jump\t// in\n    tag_324:\n        /* \"#utility.yul\":12048:12120   */\n      tag_325\n        /* \"#utility.yul\":12116:12118   */\n      0x20\n        /* \"#utility.yul\":12105:12114   */\n      dup4\n        /* \"#utility.yul\":12101:12119   */\n      add\n        /* \"#utility.yul\":12092:12098   */\n      dup5\n        /* \"#utility.yul\":12048:12120   */\n      tag_187\n      jump\t// in\n    tag_325:\n        /* \"#utility.yul\":11795:12127   */\n      swap4\n      swap3\n      pop\n      pop\n      pop\n      jump\t// out\n        /* \"#utility.yul\":12133:12249   */\n    tag_218:\n        /* \"#utility.yul\":12203:12224   */\n      tag_327\n        /* \"#utility.yul\":12218:12223   */\n      dup2\n        /* \"#utility.yul\":12203:12224   */\n      tag_198\n      jump\t// in\n    tag_327:\n        /* \"#utility.yul\":12196:12201   */\n      dup2\n        /* \"#utility.yul\":12193:12225   */\n      eq\n        /* \"#utility.yul\":12183:12243   */\n      tag_328\n      jumpi\n        /* \"#utility.yul\":12239:12240   */\n      0x00\n        /* \"#utility.yul\":12236:12237   */\n      dup1\n        /* \"#utility.yul\":12229:12241   */\n      revert\n        /* \"#utility.yul\":12183:12243   */\n    tag_328:\n        /* \"#utility.yul\":12133:12249   */\n      pop\n      jump\t// out\n        /* \"#utility.yul\":12255:12392   */\n    tag_219:\n        /* \"#utility.yul\":12309:12314   */\n      0x00\n        /* \"#utility.yul\":12340:12346   */\n      dup2\n        /* \"#utility.yul\":12334:12347   */\n      mload\n        /* \"#utility.yul\":12325:12347   */\n      swap1\n      pop\n        /* \"#utility.yul\":12356:12386   */\n      tag_330\n        /* \"#utility.yul\":12380:12385   */\n      dup2\n        /* \"#utility.yul\":12356:12386   */\n      tag_218\n      jump\t// in\n    tag_330:\n        /* \"#utility.yul\":12255:12392   */\n      swap3\n      swap2\n      pop\n      pop\n      jump\t// out\n        /* \"#utility.yul\":12398:12743   */\n    tag_159:\n        /* \"#utility.yul\":12465:12471   */\n      0x00\n        /* \"#utility.yul\":12514:12516   */\n      0x20\n        /* \"#utility.yul\":12502:12511   */\n      dup3\n        /* \"#utility.yul\":12493:12500   */\n      dup5\n        /* \"#utility.yul\":12489:12512   */\n      sub\n        /* \"#utility.yul\":12485:12517   */\n      slt\n        /* \"#utility.yul\":12482:12601   */\n      iszero\n      tag_332\n      jumpi\n        /* \"#utility.yul\":12520:12599   */\n      tag_333\n      tag_192\n      jump\t// in\n    tag_333:\n        /* \"#utility.yul\":12482:12601   */\n    tag_332:\n        /* \"#utility.yul\":12640:12641   */\n      0x00\n        /* \"#utility.yul\":12665:12726   */\n      tag_334\n        /* \"#utility.yul\":12718:12725   */\n      dup5\n        /* \"#utility.yul\":12709:12715   */\n      dup3\n        /* \"#utility.yul\":12698:12707   */\n      dup6\n        /* \"#utility.yul\":12694:12716   */\n      add\n        /* \"#utility.yul\":12665:12726   */\n      tag_219\n      jump\t// in\n    tag_334:\n        /* \"#utility.yul\":12655:12726   */\n      swap2\n      pop\n        /* \"#utility.yul\":12611:12736   */\n      pop\n        /* \"#utility.yul\":12398:12743   */\n      swap3\n      swap2\n      pop\n      pop\n      jump\t// out\n        /* \"#utility.yul\":12749:12847   */\n    tag_220:\n        /* \"#utility.yul\":12800:12806   */\n      0x00\n        /* \"#utility.yul\":12834:12839   */\n      dup2\n        /* \"#utility.yul\":12828:12840   */\n      mload\n        /* \"#utility.yul\":12818:12840   */\n      swap1\n      pop\n        /* \"#utility.yul\":12749:12847   */\n      swap2\n      swap1\n      pop\n      jump\t// out\n        /* \"#utility.yul\":12853:12992   */\n    tag_221:\n        /* \"#utility.yul\":12942:12948   */\n      dup3\n        /* \"#utility.yul\":12937:12940   */\n      dup2\n        /* \"#utility.yul\":12932:12935   */\n      dup4\n        /* \"#utility.yul\":12926:12949   */\n      mcopy\n        /* \"#utility.yul\":12983:12984   */\n      0x00\n        /* \"#utility.yul\":12974:12980   */\n      dup4\n        /* \"#utility.yul\":12969:12972   */\n      dup4\n        /* \"#utility.yul\":12965:12981   */\n      add\n        /* \"#utility.yul\":12958:12985   */\n      mstore\n        /* \"#utility.yul\":12853:12992   */\n      pop\n      pop\n      pop\n      jump\t// out\n        /* \"#utility.yul\":12998:13384   */\n    tag_222:\n        /* \"#utility.yul\":13102:13105   */\n      0x00\n        /* \"#utility.yul\":13130:13168   */\n      tag_338\n        /* \"#utility.yul\":13162:13167   */\n      dup3\n        /* \"#utility.yul\":13130:13168   */\n      tag_220\n      jump\t// in\n    tag_338:\n        /* \"#utility.yul\":13184:13272   */\n      tag_339\n        /* \"#utility.yul\":13265:13271   */\n      dup2\n        /* \"#utility.yul\":13260:13263   */\n      dup6\n        /* \"#utility.yul\":13184:13272   */\n      tag_205\n      jump\t// in\n    tag_339:\n        /* \"#utility.yul\":13177:13272   */\n      swap4\n      pop\n        /* \"#utility.yul\":13281:13346   */\n      tag_340\n        /* \"#utility.yul\":13339:13345   */\n      dup2\n        /* \"#utility.yul\":13334:13337   */\n      dup6\n        /* \"#utility.yul\":13327:13331   */\n      0x20\n        /* \"#utility.yul\":13320:13325   */\n      dup7\n        /* \"#utility.yul\":13316:13332   */\n      add\n        /* \"#utility.yul\":13281:13346   */\n      tag_221\n      jump\t// in\n    tag_340:\n        /* \"#utility.yul\":13371:13377   */\n      dup1\n        /* \"#utility.yul\":13366:13369   */\n      dup5\n        /* \"#utility.yul\":13362:13378   */\n      add\n        /* \"#utility.yul\":13355:13378   */\n      swap2\n      pop\n        /* \"#utility.yul\":13106:13384   */\n      pop\n        /* \"#utility.yul\":12998:13384   */\n      swap3\n      swap2\n      pop\n      pop\n      jump\t// out\n        /* \"#utility.yul\":13390:13661   */\n    tag_169:\n        /* \"#utility.yul\":13520:13523   */\n      0x00\n        /* \"#utility.yul\":13542:13635   */\n      tag_342\n        /* \"#utility.yul\":13631:13634   */\n      dup3\n        /* \"#utility.yul\":13622:13628   */\n      dup5\n        /* \"#utility.yul\":13542:13635   */\n      tag_222\n      jump\t// in\n    tag_342:\n        /* \"#utility.yul\":13535:13635   */\n      swap2\n      pop\n        /* \"#utility.yul\":13652:13655   */\n      dup2\n        /* \"#utility.yul\":13645:13655   */\n      swap1\n      pop\n        /* \"#utility.yul\":13390:13661   */\n      swap3\n      swap2\n      pop\n      pop\n      jump\t// out\n\n    auxdata: 0xa26469706673582212204a77f1bef8908d443896a66f890ad96bad420af3f706938fdd5d5847f5d6589e64736f6c634300081a0033\n}\n",
				"bytecode": {
					"linkReferences": {},
					"object": "6080604052348015600e575f80fd5b5060015f819055503360015f6101000a81548173ffffffffffffffffffffffffffffffffffffffff021916908373ffffffffffffffffffffffffffffffffffffffff16021790555061161c806100635f395ff3fe608060405260043610610090575f3560e01c8063b588d22511610058578063b588d22514610162578063d0e30db01461019e578063d29a4bf6146101a8578063f3e414f8146101d0578063f4f3b200146101f857610090565b806312065fe0146100945780638da5cb5b146100be57806390386bbf146100e857806397feb926146100fe578063aa2d4ecf14610126575b5f80fd5b34801561009f575f80fd5b506100a8610220565b6040516100b59190610fe7565b60405180910390f35b3480156100c9575f80fd5b506100d2610227565b6040516100df919061103f565b60405180910390f35b3480156100f3575f80fd5b506100fc61024c565b005b348015610109575f80fd5b50610124600480360381019061011f91906110b0565b61046d565b005b348015610131575f80fd5b5061014c600480360381019061014791906110b0565b610508565b6040516101599190611108565b60405180910390f35b34801561016d575f80fd5b5061018860048036038101906101839190611121565b6105b7565b6040516101959190610fe7565b60405180910390f35b6101a6610637565b005b3480156101b3575f80fd5b506101ce60048036038101906101c991906110b0565b610687565b005b3480156101db575f80fd5b506101f660048036038101906101f191906110b0565b61075f565b005b348015610203575f80fd5b5061021e60048036038101906102199190611121565b6109fd565b005b5f47905090565b60015f9054906101000a900473ffffffffffffffffffffffffffffffffffffffff1681565b60015f9054906101000a900473ffffffffffffffffffffffffffffffffffffffff1673ffffffffffffffffffffffffffffffffffffffff163373ffffffffffffffffffffffffffffffffffffffff16146102db576040517f08c379a00000000000000000000000000000000000000000000000000000000081526004016102d2906111cc565b60405180910390fd5b6102e3610c34565b5f4790505f8111610329576040517f08c379a000000000000000000000000000000000000000000000000000000000815260040161032090611234565b60405180910390fd5b5f60015f9054906101000a900473ffffffffffffffffffffffffffffffffffffffff1673ffffffffffffffffffffffffffffffffffffffff168260405161036f9061127f565b5f6040518083038185875af1925050503d805f81146103a9576040519150601f19603f3d011682016040523d82523d5f602084013e6103ae565b606091505b50509050806103f2576040517f08c379a00000000000000000000000000000000000000000000000000000000081526004016103e9906112dd565b60405180910390fd5b60015f9054906101000a900473ffffffffffffffffffffffffffffffffffffffff1673ffffffffffffffffffffffffffffffffffffffff167f7fcf532c15f0a6db0bd6d0e038bea71d30d808c7d98cb3bf7268a95bf5081b65836040516104599190610fe7565b60405180910390a2505061046b610c81565b565b5f82905061049e3330848473ffffffffffffffffffffffffffffffffffffffff16610c8a909392919063ffffffff16565b8273ffffffffffffffffffffffffffffffffffffffff163373ffffffffffffffffffffffffffffffffffffffff167f98c09d9949722bae4bd0d988d4050091c3ae7ec6d51d3c6bbfe4233593944e9e846040516104fb9190610fe7565b60405180910390a3505050565b5f3073ffffffffffffffffffffffffffffffffffffffff168373ffffffffffffffffffffffffffffffffffffffff16636352211e846040518263ffffffff1660e01b81526004016105599190610fe7565b602060405180830381865afa158015610574573d5f803e3d5ffd5b505050506040513d601f19601f82011682018060405250810190610598919061130f565b73ffffffffffffffffffffffffffffffffffffffff1614905092915050565b5f8173ffffffffffffffffffffffffffffffffffffffff166370a08231306040518263ffffffff1660e01b81526004016105f1919061103f565b602060405180830381865afa15801561060c573d5f803e3d5ffd5b505050506040513d601f19601f82011682018060405250810190610630919061134e565b9050919050565b3373ffffffffffffffffffffffffffffffffffffffff167fe1fffcc4923d04b559f4d29a8bfc6cda04eb5b0d3c460751c2402c5c5cc9109c3460405161067d9190610fe7565b60405180910390a2565b5f8290508073ffffffffffffffffffffffffffffffffffffffff166323b872dd3330856040518463ffffffff1660e01b81526004016106c893929190611379565b5f604051808303815f87803b1580156106df575f80fd5b505af11580156106f1573d5f803e3d5ffd5b505050508273ffffffffffffffffffffffffffffffffffffffff163373ffffffffffffffffffffffffffffffffffffffff167f6beb9379af630d855c59b605909537f26c1d38ef62bc6645e8741985d890fdb0846040516107529190610fe7565b60405180910390a3505050565b60015f9054906101000a900473ffffffffffffffffffffffffffffffffffffffff1673ffffffffffffffffffffffffffffffffffffffff163373ffffffffffffffffffffffffffffffffffffffff16146107ee576040517f08c379a00000000000000000000000000000000000000000000000000000000081526004016107e5906111cc565b60405180910390fd5b6107f6610c34565b5f8290503073ffffffffffffffffffffffffffffffffffffffff168173ffffffffffffffffffffffffffffffffffffffff16636352211e846040518263ffffffff1660e01b815260040161084a9190610fe7565b602060405180830381865afa158015610865573d5f803e3d5ffd5b505050506040513d601f19601f82011682018060405250810190610889919061130f565b73ffffffffffffffffffffffffffffffffffffffff16146108df576040517f08c379a00000000000000000000000000000000000000000000000000000000081526004016108d69061141e565b60405180910390fd5b8073ffffffffffffffffffffffffffffffffffffffff166323b872dd3060015f9054906101000a900473ffffffffffffffffffffffffffffffffffffffff16856040518463ffffffff1660e01b815260040161093d93929190611379565b5f604051808303815f87803b158015610954575f80fd5b505af1158015610966573d5f803e3d5ffd5b505050508273ffffffffffffffffffffffffffffffffffffffff1660015f9054906101000a900473ffffffffffffffffffffffffffffffffffffffff1673ffffffffffffffffffffffffffffffffffffffff167fa1920ca3dcbadb104b1787fec71b1c291adec85a372ad7b6800af7d561447592846040516109e89190610fe7565b60405180910390a3506109f9610c81565b5050565b60015f9054906101000a900473ffffffffffffffffffffffffffffffffffffffff1673ffffffffffffffffffffffffffffffffffffffff163373ffffffffffffffffffffffffffffffffffffffff1614610a8c576040517f08c379a0000000000000000000000000000000000000000000000000000000008152600401610a83906111cc565b60405180910390fd5b610a94610c34565b5f8190505f8173ffffffffffffffffffffffffffffffffffffffff166370a08231306040518263ffffffff1660e01b8152600401610ad2919061103f565b602060405180830381865afa158015610aed573d5f803e3d5ffd5b505050506040513d601f19601f82011682018060405250810190610b11919061134e565b90505f8111610b55576040517f08c379a0000000000000000000000000000000000000000000000000000000008152600401610b4c90611486565b60405180910390fd5b610ba160015f9054906101000a900473ffffffffffffffffffffffffffffffffffffffff16828473ffffffffffffffffffffffffffffffffffffffff16610d0c9092919063ffffffff16565b8273ffffffffffffffffffffffffffffffffffffffff1660015f9054906101000a900473ffffffffffffffffffffffffffffffffffffffff1673ffffffffffffffffffffffffffffffffffffffff167f42856d0378dde02337bb59ae41747abc77ded8ebdbbc5cbdd1e53693b755493883604051610c1f9190610fe7565b60405180910390a35050610c31610c81565b50565b60025f5403610c78576040517f08c379a0000000000000000000000000000000000000000000000000000000008152600401610c6f906114ee565b60405180910390fd5b60025f81905550565b60015f81905550565b610d06848573ffffffffffffffffffffffffffffffffffffffff166323b872dd868686604051602401610cbf93929190611379565b604051602081830303815290604052915060e01b6020820180517bffffffffffffffffffffffffffffffffffffffffffffffffffffffff8381831617835250505050610d8b565b50505050565b610d86838473ffffffffffffffffffffffffffffffffffffffff1663a9059cbb8585604051602401610d3f92919061150c565b604051602081830303815290604052915060e01b6020820180517bffffffffffffffffffffffffffffffffffffffffffffffffffffffff8381831617835250505050610d8b565b505050565b5f610db5828473ffffffffffffffffffffffffffffffffffffffff16610e2090919063ffffffff16565b90505f815114158015610dd9575080806020019051810190610dd7919061155d565b155b15610e1b57826040517f5274afe7000000000000000000000000000000000000000000000000000000008152600401610e12919061103f565b60405180910390fd5b505050565b6060610e2d83835f610e35565b905092915050565b606081471015610e7c57306040517fcd786059000000000000000000000000000000000000000000000000000000008152600401610e73919061103f565b60405180910390fd5b5f808573ffffffffffffffffffffffffffffffffffffffff168486604051610ea491906115d0565b5f6040518083038185875af1925050503d805f8114610ede576040519150601f19603f3d011682016040523d82523d5f602084013e610ee3565b606091505b5091509150610ef3868383610efe565b925050509392505050565b606082610f1357610f0e82610f8b565b610f83565b5f8251148015610f3957505f8473ffffffffffffffffffffffffffffffffffffffff163b145b15610f7b57836040517f9996b315000000000000000000000000000000000000000000000000000000008152600401610f72919061103f565b60405180910390fd5b819050610f84565b5b9392505050565b5f81511115610f9d5780518082602001fd5b6040517f1425ea4200000000000000000000000000000000000000000000000000000000815260040160405180910390fd5b5f819050919050565b610fe181610fcf565b82525050565b5f602082019050610ffa5f830184610fd8565b92915050565b5f73ffffffffffffffffffffffffffffffffffffffff82169050919050565b5f61102982611000565b9050919050565b6110398161101f565b82525050565b5f6020820190506110525f830184611030565b92915050565b5f80fd5b6110658161101f565b811461106f575f80fd5b50565b5f813590506110808161105c565b92915050565b61108f81610fcf565b8114611099575f80fd5b50565b5f813590506110aa81611086565b92915050565b5f80604083850312156110c6576110c5611058565b5b5f6110d385828601611072565b92505060206110e48582860161109c565b9150509250929050565b5f8115159050919050565b611102816110ee565b82525050565b5f60208201905061111b5f8301846110f9565b92915050565b5f6020828403121561113657611135611058565b5b5f61114384828501611072565b91505092915050565b5f82825260208201905092915050565b7f4f6e6c7920746865206f776e65722063616e2063616c6c20746869732066756e5f8201527f6374696f6e000000000000000000000000000000000000000000000000000000602082015250565b5f6111b660258361114c565b91506111c18261115c565b604082019050919050565b5f6020820190508181035f8301526111e3816111aa565b9050919050565b7f4e6f2045544820746f20776974686472617700000000000000000000000000005f82015250565b5f61121e60128361114c565b9150611229826111ea565b602082019050919050565b5f6020820190508181035f83015261124b81611212565b9050919050565b5f81905092915050565b50565b5f61126a5f83611252565b91506112758261125c565b5f82019050919050565b5f6112898261125f565b9150819050919050565b7f455448207472616e73666572206661696c6564000000000000000000000000005f82015250565b5f6112c760138361114c565b91506112d282611293565b602082019050919050565b5f6020820190508181035f8301526112f4816112bb565b9050919050565b5f815190506113098161105c565b92915050565b5f6020828403121561132457611323611058565b5b5f611331848285016112fb565b91505092915050565b5f8151905061134881611086565b92915050565b5f6020828403121561136357611362611058565b5b5f6113708482850161133a565b91505092915050565b5f60608201905061138c5f830186611030565b6113996020830185611030565b6113a66040830184610fd8565b949350505050565b7f54686973204e4654206973206e6f74206f776e65642062792074686520636f6e5f8201527f7472616374000000000000000000000000000000000000000000000000000000602082015250565b5f61140860258361114c565b9150611413826113ae565b604082019050919050565b5f6020820190508181035f830152611435816113fc565b9050919050565b7f4e6f20746f6b656e7320746f20776974686472617700000000000000000000005f82015250565b5f61147060158361114c565b915061147b8261143c565b602082019050919050565b5f6020820190508181035f83015261149d81611464565b9050919050565b7f5265656e7472616e637947756172643a207265656e7472616e742063616c6c005f82015250565b5f6114d8601f8361114c565b91506114e3826114a4565b602082019050919050565b5f6020820190508181035f830152611505816114cc565b9050919050565b5f60408201905061151f5f830185611030565b61152c6020830184610fd8565b9392505050565b61153c816110ee565b8114611546575f80fd5b50565b5f8151905061155781611533565b92915050565b5f6020828403121561157257611571611058565b5b5f61157f84828501611549565b91505092915050565b5f81519050919050565b8281835e5f83830152505050565b5f6115aa82611588565b6115b48185611252565b93506115c4818560208601611592565b80840191505092915050565b5f6115db82846115a0565b91508190509291505056fea26469706673582212204a77f1bef8908d443896a66f890ad96bad420af3f706938fdd5d5847f5d6589e64736f6c634300081a0033",
					"opcodes": "PUSH1 0x80 PUSH1 0x40 MSTORE CALLVALUE DUP1 ISZERO PUSH1 0xE JUMPI PUSH0 DUP1 REVERT JUMPDEST POP PUSH1 0x1 PUSH0 DUP2 SWAP1 SSTORE POP CALLER PUSH1 0x1 PUSH0 PUSH2 0x100 EXP DUP2 SLOAD DUP2 PUSH20 0xFFFFFFFFFFFFFFFFFFFFFFFFFFFFFFFFFFFFFFFF MUL NOT AND SWAP1 DUP4 PUSH20 0xFFFFFFFFFFFFFFFFFFFFFFFFFFFFFFFFFFFFFFFF AND MUL OR SWAP1 SSTORE POP PUSH2 0x161C DUP1 PUSH2 0x63 PUSH0 CODECOPY PUSH0 RETURN INVALID PUSH1 0x80 PUSH1 0x40 MSTORE PUSH1 0x4 CALLDATASIZE LT PUSH2 0x90 JUMPI PUSH0 CALLDATALOAD PUSH1 0xE0 SHR DUP1 PUSH4 0xB588D225 GT PUSH2 0x58 JUMPI DUP1 PUSH4 0xB588D225 EQ PUSH2 0x162 JUMPI DUP1 PUSH4 0xD0E30DB0 EQ PUSH2 0x19E JUMPI DUP1 PUSH4 0xD29A4BF6 EQ PUSH2 0x1A8 JUMPI DUP1 PUSH4 0xF3E414F8 EQ PUSH2 0x1D0 JUMPI DUP1 PUSH4 0xF4F3B200 EQ PUSH2 0x1F8 JUMPI PUSH2 0x90 JUMP JUMPDEST DUP1 PUSH4 0x12065FE0 EQ PUSH2 0x94 JUMPI DUP1 PUSH4 0x8DA5CB5B EQ PUSH2 0xBE JUMPI DUP1 PUSH4 0x90386BBF EQ PUSH2 0xE8 JUMPI DUP1 PUSH4 0x97FEB926 EQ PUSH2 0xFE JUMPI DUP1 PUSH4 0xAA2D4ECF EQ PUSH2 0x126 JUMPI JUMPDEST PUSH0 DUP1 REVERT JUMPDEST CALLVALUE DUP1 ISZERO PUSH2 0x9F JUMPI PUSH0 DUP1 REVERT JUMPDEST POP PUSH2 0xA8 PUSH2 0x220 JUMP JUMPDEST PUSH1 0x40 MLOAD PUSH2 0xB5 SWAP2 SWAP1 PUSH2 0xFE7 JUMP JUMPDEST PUSH1 0x40 MLOAD DUP1 SWAP2 SUB SWAP1 RETURN JUMPDEST CALLVALUE DUP1 ISZERO PUSH2 0xC9 JUMPI PUSH0 DUP1 REVERT JUMPDEST POP PUSH2 0xD2 PUSH2 0x227 JUMP JUMPDEST PUSH1 0x40 MLOAD PUSH2 0xDF SWAP2 SWAP1 PUSH2 0x103F JUMP JUMPDEST PUSH1 0x40 MLOAD DUP1 SWAP2 SUB SWAP1 RETURN JUMPDEST CALLVALUE DUP1 ISZERO PUSH2 0xF3 JUMPI PUSH0 DUP1 REVERT JUMPDEST POP PUSH2 0xFC PUSH2 0x24C JUMP JUMPDEST STOP JUMPDEST CALLVALUE DUP1 ISZERO PUSH2 0x109 JUMPI PUSH0 DUP1 REVERT JUMPDEST POP PUSH2 0x124 PUSH1 0x4 DUP1 CALLDATASIZE SUB DUP2 ADD SWAP1 PUSH2 0x11F SWAP2 SWAP1 PUSH2 0x10B0 JUMP JUMPDEST PUSH2 0x46D JUMP JUMPDEST STOP JUMPDEST CALLVALUE DUP1 ISZERO PUSH2 0x131 JUMPI PUSH0 DUP1 REVERT JUMPDEST POP PUSH2 0x14C PUSH1 0x4 DUP1 CALLDATASIZE SUB DUP2 ADD SWAP1 PUSH2 0x147 SWAP2 SWAP1 PUSH2 0x10B0 JUMP JUMPDEST PUSH2 0x508 JUMP JUMPDEST PUSH1 0x40 MLOAD PUSH2 0x159 SWAP2 SWAP1 PUSH2 0x1108 JUMP JUMPDEST PUSH1 0x40 MLOAD DUP1 SWAP2 SUB SWAP1 RETURN JUMPDEST CALLVALUE DUP1 ISZERO PUSH2 0x16D JUMPI PUSH0 DUP1 REVERT JUMPDEST POP PUSH2 0x188 PUSH1 0x4 DUP1 CALLDATASIZE SUB DUP2 ADD SWAP1 PUSH2 0x183 SWAP2 SWAP1 PUSH2 0x1121 JUMP JUMPDEST PUSH2 0x5B7 JUMP JUMPDEST PUSH1 0x40 MLOAD PUSH2 0x195 SWAP2 SWAP1 PUSH2 0xFE7 JUMP JUMPDEST PUSH1 0x40 MLOAD DUP1 SWAP2 SUB SWAP1 RETURN JUMPDEST PUSH2 0x1A6 PUSH2 0x637 JUMP JUMPDEST STOP JUMPDEST CALLVALUE DUP1 ISZERO PUSH2 0x1B3 JUMPI PUSH0 DUP1 REVERT JUMPDEST POP PUSH2 0x1CE PUSH1 0x4 DUP1 CALLDATASIZE SUB DUP2 ADD SWAP1 PUSH2 0x1C9 SWAP2 SWAP1 PUSH2 0x10B0 JUMP JUMPDEST PUSH2 0x687 JUMP JUMPDEST STOP JUMPDEST CALLVALUE DUP1 ISZERO PUSH2 0x1DB JUMPI PUSH0 DUP1 REVERT JUMPDEST POP PUSH2 0x1F6 PUSH1 0x4 DUP1 CALLDATASIZE SUB DUP2 ADD SWAP1 PUSH2 0x1F1 SWAP2 SWAP1 PUSH2 0x10B0 JUMP JUMPDEST PUSH2 0x75F JUMP JUMPDEST STOP JUMPDEST CALLVALUE DUP1 ISZERO PUSH2 0x203 JUMPI PUSH0 DUP1 REVERT JUMPDEST POP PUSH2 0x21E PUSH1 0x4 DUP1 CALLDATASIZE SUB DUP2 ADD SWAP1 PUSH2 0x219 SWAP2 SWAP1 PUSH2 0x1121 JUMP JUMPDEST PUSH2 0x9FD JUMP JUMPDEST STOP JUMPDEST PUSH0 SELFBALANCE SWAP1 POP SWAP1 JUMP JUMPDEST PUSH1 0x1 PUSH0 SWAP1 SLOAD SWAP1 PUSH2 0x100 EXP SWAP1 DIV PUSH20 0xFFFFFFFFFFFFFFFFFFFFFFFFFFFFFFFFFFFFFFFF AND DUP2 JUMP JUMPDEST PUSH1 0x1 PUSH0 SWAP1 SLOAD SWAP1 PUSH2 0x100 EXP SWAP1 DIV PUSH20 0xFFFFFFFFFFFFFFFFFFFFFFFFFFFFFFFFFFFFFFFF AND PUSH20 0xFFFFFFFFFFFFFFFFFFFFFFFFFFFFFFFFFFFFFFFF AND CALLER PUSH20 0xFFFFFFFFFFFFFFFFFFFFFFFFFFFFFFFFFFFFFFFF AND EQ PUSH2 0x2DB JUMPI PUSH1 0x40 MLOAD PUSH32 0x8C379A000000000000000000000000000000000000000000000000000000000 DUP2 MSTORE PUSH1 0x4 ADD PUSH2 0x2D2 SWAP1 PUSH2 0x11CC JUMP JUMPDEST PUSH1 0x40 MLOAD DUP1 SWAP2 SUB SWAP1 REVERT JUMPDEST PUSH2 0x2E3 PUSH2 0xC34 JUMP JUMPDEST PUSH0 SELFBALANCE SWAP1 POP PUSH0 DUP2 GT PUSH2 0x329 JUMPI PUSH1 0x40 MLOAD PUSH32 0x8C379A000000000000000000000000000000000000000000000000000000000 DUP2 MSTORE PUSH1 0x4 ADD PUSH2 0x320 SWAP1 PUSH2 0x1234 JUMP JUMPDEST PUSH1 0x40 MLOAD DUP1 SWAP2 SUB SWAP1 REVERT JUMPDEST PUSH0 PUSH1 0x1 PUSH0 SWAP1 SLOAD SWAP1 PUSH2 0x100 EXP SWAP1 DIV PUSH20 0xFFFFFFFFFFFFFFFFFFFFFFFFFFFFFFFFFFFFFFFF AND PUSH20 0xFFFFFFFFFFFFFFFFFFFFFFFFFFFFFFFFFFFFFFFF AND DUP3 PUSH1 0x40 MLOAD PUSH2 0x36F SWAP1 PUSH2 0x127F JUMP JUMPDEST PUSH0 PUSH1 0x40 MLOAD DUP1 DUP4 SUB DUP2 DUP6 DUP8 GAS CALL SWAP3 POP POP POP RETURNDATASIZE DUP1 PUSH0 DUP2 EQ PUSH2 0x3A9 JUMPI PUSH1 0x40 MLOAD SWAP2 POP PUSH1 0x1F NOT PUSH1 0x3F RETURNDATASIZE ADD AND DUP3 ADD PUSH1 0x40 MSTORE RETURNDATASIZE DUP3 MSTORE RETURNDATASIZE PUSH0 PUSH1 0x20 DUP5 ADD RETURNDATACOPY PUSH2 0x3AE JUMP JUMPDEST PUSH1 0x60 SWAP2 POP JUMPDEST POP POP SWAP1 POP DUP1 PUSH2 0x3F2 JUMPI PUSH1 0x40 MLOAD PUSH32 0x8C379A000000000000000000000000000000000000000000000000000000000 DUP2 MSTORE PUSH1 0x4 ADD PUSH2 0x3E9 SWAP1 PUSH2 0x12DD JUMP JUMPDEST PUSH1 0x40 MLOAD DUP1 SWAP2 SUB SWAP1 REVERT JUMPDEST PUSH1 0x1 PUSH0 SWAP1 SLOAD SWAP1 PUSH2 0x100 EXP SWAP1 DIV PUSH20 0xFFFFFFFFFFFFFFFFFFFFFFFFFFFFFFFFFFFFFFFF AND PUSH20 0xFFFFFFFFFFFFFFFFFFFFFFFFFFFFFFFFFFFFFFFF AND PUSH32 0x7FCF532C15F0A6DB0BD6D0E038BEA71D30D808C7D98CB3BF7268A95BF5081B65 DUP4 PUSH1 0x40 MLOAD PUSH2 0x459 SWAP2 SWAP1 PUSH2 0xFE7 JUMP JUMPDEST PUSH1 0x40 MLOAD DUP1 SWAP2 SUB SWAP1 LOG2 POP POP PUSH2 0x46B PUSH2 0xC81 JUMP JUMPDEST JUMP JUMPDEST PUSH0 DUP3 SWAP1 POP PUSH2 0x49E CALLER ADDRESS DUP5 DUP5 PUSH20 0xFFFFFFFFFFFFFFFFFFFFFFFFFFFFFFFFFFFFFFFF AND PUSH2 0xC8A SWAP1 SWAP4 SWAP3 SWAP2 SWAP1 PUSH4 0xFFFFFFFF AND JUMP JUMPDEST DUP3 PUSH20 0xFFFFFFFFFFFFFFFFFFFFFFFFFFFFFFFFFFFFFFFF AND CALLER PUSH20 0xFFFFFFFFFFFFFFFFFFFFFFFFFFFFFFFFFFFFFFFF AND PUSH32 0x98C09D9949722BAE4BD0D988D4050091C3AE7EC6D51D3C6BBFE4233593944E9E DUP5 PUSH1 0x40 MLOAD PUSH2 0x4FB SWAP2 SWAP1 PUSH2 0xFE7 JUMP JUMPDEST PUSH1 0x40 MLOAD DUP1 SWAP2 SUB SWAP1 LOG3 POP POP POP JUMP JUMPDEST PUSH0 ADDRESS PUSH20 0xFFFFFFFFFFFFFFFFFFFFFFFFFFFFFFFFFFFFFFFF AND DUP4 PUSH20 0xFFFFFFFFFFFFFFFFFFFFFFFFFFFFFFFFFFFFFFFF AND PUSH4 0x6352211E DUP5 PUSH1 0x40 MLOAD DUP3 PUSH4 0xFFFFFFFF AND PUSH1 0xE0 SHL DUP2 MSTORE PUSH1 0x4 ADD PUSH2 0x559 SWAP2 SWAP1 PUSH2 0xFE7 JUMP JUMPDEST PUSH1 0x20 PUSH1 0x40 MLOAD DUP1 DUP4 SUB DUP2 DUP7 GAS STATICCALL ISZERO DUP1 ISZERO PUSH2 0x574 JUMPI RETURNDATASIZE PUSH0 DUP1 RETURNDATACOPY RETURNDATASIZE PUSH0 REVERT JUMPDEST POP POP POP POP PUSH1 0x40 MLOAD RETURNDATASIZE PUSH1 0x1F NOT PUSH1 0x1F DUP3 ADD AND DUP3 ADD DUP1 PUSH1 0x40 MSTORE POP DUP2 ADD SWAP1 PUSH2 0x598 SWAP2 SWAP1 PUSH2 0x130F JUMP JUMPDEST PUSH20 0xFFFFFFFFFFFFFFFFFFFFFFFFFFFFFFFFFFFFFFFF AND EQ SWAP1 POP SWAP3 SWAP2 POP POP JUMP JUMPDEST PUSH0 DUP2 PUSH20 0xFFFFFFFFFFFFFFFFFFFFFFFFFFFFFFFFFFFFFFFF AND PUSH4 0x70A08231 ADDRESS PUSH1 0x40 MLOAD DUP3 PUSH4 0xFFFFFFFF AND PUSH1 0xE0 SHL DUP2 MSTORE PUSH1 0x4 ADD PUSH2 0x5F1 SWAP2 SWAP1 PUSH2 0x103F JUMP JUMPDEST PUSH1 0x20 PUSH1 0x40 MLOAD DUP1 DUP4 SUB DUP2 DUP7 GAS STATICCALL ISZERO DUP1 ISZERO PUSH2 0x60C JUMPI RETURNDATASIZE PUSH0 DUP1 RETURNDATACOPY RETURNDATASIZE PUSH0 REVERT JUMPDEST POP POP POP POP PUSH1 0x40 MLOAD RETURNDATASIZE PUSH1 0x1F NOT PUSH1 0x1F DUP3 ADD AND DUP3 ADD DUP1 PUSH1 0x40 MSTORE POP DUP2 ADD SWAP1 PUSH2 0x630 SWAP2 SWAP1 PUSH2 0x134E JUMP JUMPDEST SWAP1 POP SWAP2 SWAP1 POP JUMP JUMPDEST CALLER PUSH20 0xFFFFFFFFFFFFFFFFFFFFFFFFFFFFFFFFFFFFFFFF AND PUSH32 0xE1FFFCC4923D04B559F4D29A8BFC6CDA04EB5B0D3C460751C2402C5C5CC9109C CALLVALUE PUSH1 0x40 MLOAD PUSH2 0x67D SWAP2 SWAP1 PUSH2 0xFE7 JUMP JUMPDEST PUSH1 0x40 MLOAD DUP1 SWAP2 SUB SWAP1 LOG2 JUMP JUMPDEST PUSH0 DUP3 SWAP1 POP DUP1 PUSH20 0xFFFFFFFFFFFFFFFFFFFFFFFFFFFFFFFFFFFFFFFF AND PUSH4 0x23B872DD CALLER ADDRESS DUP6 PUSH1 0x40 MLOAD DUP5 PUSH4 0xFFFFFFFF AND PUSH1 0xE0 SHL DUP2 MSTORE PUSH1 0x4 ADD PUSH2 0x6C8 SWAP4 SWAP3 SWAP2 SWAP1 PUSH2 0x1379 JUMP JUMPDEST PUSH0 PUSH1 0x40 MLOAD DUP1 DUP4 SUB DUP2 PUSH0 DUP8 DUP1 EXTCODESIZE ISZERO DUP1 ISZERO PUSH2 0x6DF JUMPI PUSH0 DUP1 REVERT JUMPDEST POP GAS CALL ISZERO DUP1 ISZERO PUSH2 0x6F1 JUMPI RETURNDATASIZE PUSH0 DUP1 RETURNDATACOPY RETURNDATASIZE PUSH0 REVERT JUMPDEST POP POP POP POP DUP3 PUSH20 0xFFFFFFFFFFFFFFFFFFFFFFFFFFFFFFFFFFFFFFFF AND CALLER PUSH20 0xFFFFFFFFFFFFFFFFFFFFFFFFFFFFFFFFFFFFFFFF AND PUSH32 0x6BEB9379AF630D855C59B605909537F26C1D38EF62BC6645E8741985D890FDB0 DUP5 PUSH1 0x40 MLOAD PUSH2 0x752 SWAP2 SWAP1 PUSH2 0xFE7 JUMP JUMPDEST PUSH1 0x40 MLOAD DUP1 SWAP2 SUB SWAP1 LOG3 POP POP POP JUMP JUMPDEST PUSH1 0x1 PUSH0 SWAP1 SLOAD SWAP1 PUSH2 0x100 EXP SWAP1 DIV PUSH20 0xFFFFFFFFFFFFFFFFFFFFFFFFFFFFFFFFFFFFFFFF AND PUSH20 0xFFFFFFFFFFFFFFFFFFFFFFFFFFFFFFFFFFFFFFFF AND CALLER PUSH20 0xFFFFFFFFFFFFFFFFFFFFFFFFFFFFFFFFFFFFFFFF AND EQ PUSH2 0x7EE JUMPI PUSH1 0x40 MLOAD PUSH32 0x8C379A000000000000000000000000000000000000000000000000000000000 DUP2 MSTORE PUSH1 0x4 ADD PUSH2 0x7E5 SWAP1 PUSH2 0x11CC JUMP JUMPDEST PUSH1 0x40 MLOAD DUP1 SWAP2 SUB SWAP1 REVERT JUMPDEST PUSH2 0x7F6 PUSH2 0xC34 JUMP JUMPDEST PUSH0 DUP3 SWAP1 POP ADDRESS PUSH20 0xFFFFFFFFFFFFFFFFFFFFFFFFFFFFFFFFFFFFFFFF AND DUP2 PUSH20 0xFFFFFFFFFFFFFFFFFFFFFFFFFFFFFFFFFFFFFFFF AND PUSH4 0x6352211E DUP5 PUSH1 0x40 MLOAD DUP3 PUSH4 0xFFFFFFFF AND PUSH1 0xE0 SHL DUP2 MSTORE PUSH1 0x4 ADD PUSH2 0x84A SWAP2 SWAP1 PUSH2 0xFE7 JUMP JUMPDEST PUSH1 0x20 PUSH1 0x40 MLOAD DUP1 DUP4 SUB DUP2 DUP7 GAS STATICCALL ISZERO DUP1 ISZERO PUSH2 0x865 JUMPI RETURNDATASIZE PUSH0 DUP1 RETURNDATACOPY RETURNDATASIZE PUSH0 REVERT JUMPDEST POP POP POP POP PUSH1 0x40 MLOAD RETURNDATASIZE PUSH1 0x1F NOT PUSH1 0x1F DUP3 ADD AND DUP3 ADD DUP1 PUSH1 0x40 MSTORE POP DUP2 ADD SWAP1 PUSH2 0x889 SWAP2 SWAP1 PUSH2 0x130F JUMP JUMPDEST PUSH20 0xFFFFFFFFFFFFFFFFFFFFFFFFFFFFFFFFFFFFFFFF AND EQ PUSH2 0x8DF JUMPI PUSH1 0x40 MLOAD PUSH32 0x8C379A000000000000000000000000000000000000000000000000000000000 DUP2 MSTORE PUSH1 0x4 ADD PUSH2 0x8D6 SWAP1 PUSH2 0x141E JUMP JUMPDEST PUSH1 0x40 MLOAD DUP1 SWAP2 SUB SWAP1 REVERT JUMPDEST DUP1 PUSH20 0xFFFFFFFFFFFFFFFFFFFFFFFFFFFFFFFFFFFFFFFF AND PUSH4 0x23B872DD ADDRESS PUSH1 0x1 PUSH0 SWAP1 SLOAD SWAP1 PUSH2 0x100 EXP SWAP1 DIV PUSH20 0xFFFFFFFFFFFFFFFFFFFFFFFFFFFFFFFFFFFFFFFF AND DUP6 PUSH1 0x40 MLOAD DUP5 PUSH4 0xFFFFFFFF AND PUSH1 0xE0 SHL DUP2 MSTORE PUSH1 0x4 ADD PUSH2 0x93D SWAP4 SWAP3 SWAP2 SWAP1 PUSH2 0x1379 JUMP JUMPDEST PUSH0 PUSH1 0x40 MLOAD DUP1 DUP4 SUB DUP2 PUSH0 DUP8 DUP1 EXTCODESIZE ISZERO DUP1 ISZERO PUSH2 0x954 JUMPI PUSH0 DUP1 REVERT JUMPDEST POP GAS CALL ISZERO DUP1 ISZERO PUSH2 0x966 JUMPI RETURNDATASIZE PUSH0 DUP1 RETURNDATACOPY RETURNDATASIZE PUSH0 REVERT JUMPDEST POP POP POP POP DUP3 PUSH20 0xFFFFFFFFFFFFFFFFFFFFFFFFFFFFFFFFFFFFFFFF AND PUSH1 0x1 PUSH0 SWAP1 SLOAD SWAP1 PUSH2 0x100 EXP SWAP1 DIV PUSH20 0xFFFFFFFFFFFFFFFFFFFFFFFFFFFFFFFFFFFFFFFF AND PUSH20 0xFFFFFFFFFFFFFFFFFFFFFFFFFFFFFFFFFFFFFFFF AND PUSH32 0xA1920CA3DCBADB104B1787FEC71B1C291ADEC85A372AD7B6800AF7D561447592 DUP5 PUSH1 0x40 MLOAD PUSH2 0x9E8 SWAP2 SWAP1 PUSH2 0xFE7 JUMP JUMPDEST PUSH1 0x40 MLOAD DUP1 SWAP2 SUB SWAP1 LOG3 POP PUSH2 0x9F9 PUSH2 0xC81 JUMP JUMPDEST POP POP JUMP JUMPDEST PUSH1 0x1 PUSH0 SWAP1 SLOAD SWAP1 PUSH2 0x100 EXP SWAP1 DIV PUSH20 0xFFFFFFFFFFFFFFFFFFFFFFFFFFFFFFFFFFFFFFFF AND PUSH20 0xFFFFFFFFFFFFFFFFFFFFFFFFFFFFFFFFFFFFFFFF AND CALLER PUSH20 0xFFFFFFFFFFFFFFFFFFFFFFFFFFFFFFFFFFFFFFFF AND EQ PUSH2 0xA8C JUMPI PUSH1 0x40 MLOAD PUSH32 0x8C379A000000000000000000000000000000000000000000000000000000000 DUP2 MSTORE PUSH1 0x4 ADD PUSH2 0xA83 SWAP1 PUSH2 0x11CC JUMP JUMPDEST PUSH1 0x40 MLOAD DUP1 SWAP2 SUB SWAP1 REVERT JUMPDEST PUSH2 0xA94 PUSH2 0xC34 JUMP JUMPDEST PUSH0 DUP2 SWAP1 POP PUSH0 DUP2 PUSH20 0xFFFFFFFFFFFFFFFFFFFFFFFFFFFFFFFFFFFFFFFF AND PUSH4 0x70A08231 ADDRESS PUSH1 0x40 MLOAD DUP3 PUSH4 0xFFFFFFFF AND PUSH1 0xE0 SHL DUP2 MSTORE PUSH1 0x4 ADD PUSH2 0xAD2 SWAP2 SWAP1 PUSH2 0x103F JUMP JUMPDEST PUSH1 0x20 PUSH1 0x40 MLOAD DUP1 DUP4 SUB DUP2 DUP7 GAS STATICCALL ISZERO DUP1 ISZERO PUSH2 0xAED JUMPI RETURNDATASIZE PUSH0 DUP1 RETURNDATACOPY RETURNDATASIZE PUSH0 REVERT JUMPDEST POP POP POP POP PUSH1 0x40 MLOAD RETURNDATASIZE PUSH1 0x1F NOT PUSH1 0x1F DUP3 ADD AND DUP3 ADD DUP1 PUSH1 0x40 MSTORE POP DUP2 ADD SWAP1 PUSH2 0xB11 SWAP2 SWAP1 PUSH2 0x134E JUMP JUMPDEST SWAP1 POP PUSH0 DUP2 GT PUSH2 0xB55 JUMPI PUSH1 0x40 MLOAD PUSH32 0x8C379A000000000000000000000000000000000000000000000000000000000 DUP2 MSTORE PUSH1 0x4 ADD PUSH2 0xB4C SWAP1 PUSH2 0x1486 JUMP JUMPDEST PUSH1 0x40 MLOAD DUP1 SWAP2 SUB SWAP1 REVERT JUMPDEST PUSH2 0xBA1 PUSH1 0x1 PUSH0 SWAP1 SLOAD SWAP1 PUSH2 0x100 EXP SWAP1 DIV PUSH20 0xFFFFFFFFFFFFFFFFFFFFFFFFFFFFFFFFFFFFFFFF AND DUP3 DUP5 PUSH20 0xFFFFFFFFFFFFFFFFFFFFFFFFFFFFFFFFFFFFFFFF AND PUSH2 0xD0C SWAP1 SWAP3 SWAP2 SWAP1 PUSH4 0xFFFFFFFF AND JUMP JUMPDEST DUP3 PUSH20 0xFFFFFFFFFFFFFFFFFFFFFFFFFFFFFFFFFFFFFFFF AND PUSH1 0x1 PUSH0 SWAP1 SLOAD SWAP1 PUSH2 0x100 EXP SWAP1 DIV PUSH20 0xFFFFFFFFFFFFFFFFFFFFFFFFFFFFFFFFFFFFFFFF AND PUSH20 0xFFFFFFFFFFFFFFFFFFFFFFFFFFFFFFFFFFFFFFFF AND PUSH32 0x42856D0378DDE02337BB59AE41747ABC77DED8EBDBBC5CBDD1E53693B7554938 DUP4 PUSH1 0x40 MLOAD PUSH2 0xC1F SWAP2 SWAP1 PUSH2 0xFE7 JUMP JUMPDEST PUSH1 0x40 MLOAD DUP1 SWAP2 SUB SWAP1 LOG3 POP POP PUSH2 0xC31 PUSH2 0xC81 JUMP JUMPDEST POP JUMP JUMPDEST PUSH1 0x2 PUSH0 SLOAD SUB PUSH2 0xC78 JUMPI PUSH1 0x40 MLOAD PUSH32 0x8C379A000000000000000000000000000000000000000000000000000000000 DUP2 MSTORE PUSH1 0x4 ADD PUSH2 0xC6F SWAP1 PUSH2 0x14EE JUMP JUMPDEST PUSH1 0x40 MLOAD DUP1 SWAP2 SUB SWAP1 REVERT JUMPDEST PUSH1 0x2 PUSH0 DUP2 SWAP1 SSTORE POP JUMP JUMPDEST PUSH1 0x1 PUSH0 DUP2 SWAP1 SSTORE POP JUMP JUMPDEST PUSH2 0xD06 DUP5 DUP6 PUSH20 0xFFFFFFFFFFFFFFFFFFFFFFFFFFFFFFFFFFFFFFFF AND PUSH4 0x23B872DD DUP7 DUP7 DUP7 PUSH1 0x40 MLOAD PUSH1 0x24 ADD PUSH2 0xCBF SWAP4 SWAP3 SWAP2 SWAP1 PUSH2 0x1379 JUMP JUMPDEST PUSH1 0x40 MLOAD PUSH1 0x20 DUP2 DUP4 SUB SUB DUP2 MSTORE SWAP1 PUSH1 0x40 MSTORE SWAP2 POP PUSH1 0xE0 SHL PUSH1 0x20 DUP3 ADD DUP1 MLOAD PUSH28 0xFFFFFFFFFFFFFFFFFFFFFFFFFFFFFFFFFFFFFFFFFFFFFFFFFFFFFFFF DUP4 DUP2 DUP4 AND OR DUP4 MSTORE POP POP POP POP PUSH2 0xD8B JUMP JUMPDEST POP POP POP POP JUMP JUMPDEST PUSH2 0xD86 DUP4 DUP5 PUSH20 0xFFFFFFFFFFFFFFFFFFFFFFFFFFFFFFFFFFFFFFFF AND PUSH4 0xA9059CBB DUP6 DUP6 PUSH1 0x40 MLOAD PUSH1 0x24 ADD PUSH2 0xD3F SWAP3 SWAP2 SWAP1 PUSH2 0x150C JUMP JUMPDEST PUSH1 0x40 MLOAD PUSH1 0x20 DUP2 DUP4 SUB SUB DUP2 MSTORE SWAP1 PUSH1 0x40 MSTORE SWAP2 POP PUSH1 0xE0 SHL PUSH1 0x20 DUP3 ADD DUP1 MLOAD PUSH28 0xFFFFFFFFFFFFFFFFFFFFFFFFFFFFFFFFFFFFFFFFFFFFFFFFFFFFFFFF DUP4 DUP2 DUP4 AND OR DUP4 MSTORE POP POP POP POP PUSH2 0xD8B JUMP JUMPDEST POP POP POP JUMP JUMPDEST PUSH0 PUSH2 0xDB5 DUP3 DUP5 PUSH20 0xFFFFFFFFFFFFFFFFFFFFFFFFFFFFFFFFFFFFFFFF AND PUSH2 0xE20 SWAP1 SWAP2 SWAP1 PUSH4 0xFFFFFFFF AND JUMP JUMPDEST SWAP1 POP PUSH0 DUP2 MLOAD EQ ISZERO DUP1 ISZERO PUSH2 0xDD9 JUMPI POP DUP1 DUP1 PUSH1 0x20 ADD SWAP1 MLOAD DUP2 ADD SWAP1 PUSH2 0xDD7 SWAP2 SWAP1 PUSH2 0x155D JUMP JUMPDEST ISZERO JUMPDEST ISZERO PUSH2 0xE1B JUMPI DUP3 PUSH1 0x40 MLOAD PUSH32 0x5274AFE700000000000000000000000000000000000000000000000000000000 DUP2 MSTORE PUSH1 0x4 ADD PUSH2 0xE12 SWAP2 SWAP1 PUSH2 0x103F JUMP JUMPDEST PUSH1 0x40 MLOAD DUP1 SWAP2 SUB SWAP1 REVERT JUMPDEST POP POP POP JUMP JUMPDEST PUSH1 0x60 PUSH2 0xE2D DUP4 DUP4 PUSH0 PUSH2 0xE35 JUMP JUMPDEST SWAP1 POP SWAP3 SWAP2 POP POP JUMP JUMPDEST PUSH1 0x60 DUP2 SELFBALANCE LT ISZERO PUSH2 0xE7C JUMPI ADDRESS PUSH1 0x40 MLOAD PUSH32 0xCD78605900000000000000000000000000000000000000000000000000000000 DUP2 MSTORE PUSH1 0x4 ADD PUSH2 0xE73 SWAP2 SWAP1 PUSH2 0x103F JUMP JUMPDEST PUSH1 0x40 MLOAD DUP1 SWAP2 SUB SWAP1 REVERT JUMPDEST PUSH0 DUP1 DUP6 PUSH20 0xFFFFFFFFFFFFFFFFFFFFFFFFFFFFFFFFFFFFFFFF AND DUP5 DUP7 PUSH1 0x40 MLOAD PUSH2 0xEA4 SWAP2 SWAP1 PUSH2 0x15D0 JUMP JUMPDEST PUSH0 PUSH1 0x40 MLOAD DUP1 DUP4 SUB DUP2 DUP6 DUP8 GAS CALL SWAP3 POP POP POP RETURNDATASIZE DUP1 PUSH0 DUP2 EQ PUSH2 0xEDE JUMPI PUSH1 0x40 MLOAD SWAP2 POP PUSH1 0x1F NOT PUSH1 0x3F RETURNDATASIZE ADD AND DUP3 ADD PUSH1 0x40 MSTORE RETURNDATASIZE DUP3 MSTORE RETURNDATASIZE PUSH0 PUSH1 0x20 DUP5 ADD RETURNDATACOPY PUSH2 0xEE3 JUMP JUMPDEST PUSH1 0x60 SWAP2 POP JUMPDEST POP SWAP2 POP SWAP2 POP PUSH2 0xEF3 DUP7 DUP4 DUP4 PUSH2 0xEFE JUMP JUMPDEST SWAP3 POP POP POP SWAP4 SWAP3 POP POP POP JUMP JUMPDEST PUSH1 0x60 DUP3 PUSH2 0xF13 JUMPI PUSH2 0xF0E DUP3 PUSH2 0xF8B JUMP JUMPDEST PUSH2 0xF83 JUMP JUMPDEST PUSH0 DUP3 MLOAD EQ DUP1 ISZERO PUSH2 0xF39 JUMPI POP PUSH0 DUP5 PUSH20 0xFFFFFFFFFFFFFFFFFFFFFFFFFFFFFFFFFFFFFFFF AND EXTCODESIZE EQ JUMPDEST ISZERO PUSH2 0xF7B JUMPI DUP4 PUSH1 0x40 MLOAD PUSH32 0x9996B31500000000000000000000000000000000000000000000000000000000 DUP2 MSTORE PUSH1 0x4 ADD PUSH2 0xF72 SWAP2 SWAP1 PUSH2 0x103F JUMP JUMPDEST PUSH1 0x40 MLOAD DUP1 SWAP2 SUB SWAP1 REVERT JUMPDEST DUP2 SWAP1 POP PUSH2 0xF84 JUMP JUMPDEST JUMPDEST SWAP4 SWAP3 POP POP POP JUMP JUMPDEST PUSH0 DUP2 MLOAD GT ISZERO PUSH2 0xF9D JUMPI DUP1 MLOAD DUP1 DUP3 PUSH1 0x20 ADD REVERT JUMPDEST PUSH1 0x40 MLOAD PUSH32 0x1425EA4200000000000000000000000000000000000000000000000000000000 DUP2 MSTORE PUSH1 0x4 ADD PUSH1 0x40 MLOAD DUP1 SWAP2 SUB SWAP1 REVERT JUMPDEST PUSH0 DUP2 SWAP1 POP SWAP2 SWAP1 POP JUMP JUMPDEST PUSH2 0xFE1 DUP2 PUSH2 0xFCF JUMP JUMPDEST DUP3 MSTORE POP POP JUMP JUMPDEST PUSH0 PUSH1 0x20 DUP3 ADD SWAP1 POP PUSH2 0xFFA PUSH0 DUP4 ADD DUP5 PUSH2 0xFD8 JUMP JUMPDEST SWAP3 SWAP2 POP POP JUMP JUMPDEST PUSH0 PUSH20 0xFFFFFFFFFFFFFFFFFFFFFFFFFFFFFFFFFFFFFFFF DUP3 AND SWAP1 POP SWAP2 SWAP1 POP JUMP JUMPDEST PUSH0 PUSH2 0x1029 DUP3 PUSH2 0x1000 JUMP JUMPDEST SWAP1 POP SWAP2 SWAP1 POP JUMP JUMPDEST PUSH2 0x1039 DUP2 PUSH2 0x101F JUMP JUMPDEST DUP3 MSTORE POP POP JUMP JUMPDEST PUSH0 PUSH1 0x20 DUP3 ADD SWAP1 POP PUSH2 0x1052 PUSH0 DUP4 ADD DUP5 PUSH2 0x1030 JUMP JUMPDEST SWAP3 SWAP2 POP POP JUMP JUMPDEST PUSH0 DUP1 REVERT JUMPDEST PUSH2 0x1065 DUP2 PUSH2 0x101F JUMP JUMPDEST DUP2 EQ PUSH2 0x106F JUMPI PUSH0 DUP1 REVERT JUMPDEST POP JUMP JUMPDEST PUSH0 DUP2 CALLDATALOAD SWAP1 POP PUSH2 0x1080 DUP2 PUSH2 0x105C JUMP JUMPDEST SWAP3 SWAP2 POP POP JUMP JUMPDEST PUSH2 0x108F DUP2 PUSH2 0xFCF JUMP JUMPDEST DUP2 EQ PUSH2 0x1099 JUMPI PUSH0 DUP1 REVERT JUMPDEST POP JUMP JUMPDEST PUSH0 DUP2 CALLDATALOAD SWAP1 POP PUSH2 0x10AA DUP2 PUSH2 0x1086 JUMP JUMPDEST SWAP3 SWAP2 POP POP JUMP JUMPDEST PUSH0 DUP1 PUSH1 0x40 DUP4 DUP6 SUB SLT ISZERO PUSH2 0x10C6 JUMPI PUSH2 0x10C5 PUSH2 0x1058 JUMP JUMPDEST JUMPDEST PUSH0 PUSH2 0x10D3 DUP6 DUP3 DUP7 ADD PUSH2 0x1072 JUMP JUMPDEST SWAP3 POP POP PUSH1 0x20 PUSH2 0x10E4 DUP6 DUP3 DUP7 ADD PUSH2 0x109C JUMP JUMPDEST SWAP2 POP POP SWAP3 POP SWAP3 SWAP1 POP JUMP JUMPDEST PUSH0 DUP2 ISZERO ISZERO SWAP1 POP SWAP2 SWAP1 POP JUMP JUMPDEST PUSH2 0x1102 DUP2 PUSH2 0x10EE JUMP JUMPDEST DUP3 MSTORE POP POP JUMP JUMPDEST PUSH0 PUSH1 0x20 DUP3 ADD SWAP1 POP PUSH2 0x111B PUSH0 DUP4 ADD DUP5 PUSH2 0x10F9 JUMP JUMPDEST SWAP3 SWAP2 POP POP JUMP JUMPDEST PUSH0 PUSH1 0x20 DUP3 DUP5 SUB SLT ISZERO PUSH2 0x1136 JUMPI PUSH2 0x1135 PUSH2 0x1058 JUMP JUMPDEST JUMPDEST PUSH0 PUSH2 0x1143 DUP5 DUP3 DUP6 ADD PUSH2 0x1072 JUMP JUMPDEST SWAP2 POP POP SWAP3 SWAP2 POP POP JUMP JUMPDEST PUSH0 DUP3 DUP3 MSTORE PUSH1 0x20 DUP3 ADD SWAP1 POP SWAP3 SWAP2 POP POP JUMP JUMPDEST PUSH32 0x4F6E6C7920746865206F776E65722063616E2063616C6C20746869732066756E PUSH0 DUP3 ADD MSTORE PUSH32 0x6374696F6E000000000000000000000000000000000000000000000000000000 PUSH1 0x20 DUP3 ADD MSTORE POP JUMP JUMPDEST PUSH0 PUSH2 0x11B6 PUSH1 0x25 DUP4 PUSH2 0x114C JUMP JUMPDEST SWAP2 POP PUSH2 0x11C1 DUP3 PUSH2 0x115C JUMP JUMPDEST PUSH1 0x40 DUP3 ADD SWAP1 POP SWAP2 SWAP1 POP JUMP JUMPDEST PUSH0 PUSH1 0x20 DUP3 ADD SWAP1 POP DUP2 DUP2 SUB PUSH0 DUP4 ADD MSTORE PUSH2 0x11E3 DUP2 PUSH2 0x11AA JUMP JUMPDEST SWAP1 POP SWAP2 SWAP1 POP JUMP JUMPDEST PUSH32 0x4E6F2045544820746F2077697468647261770000000000000000000000000000 PUSH0 DUP3 ADD MSTORE POP JUMP JUMPDEST PUSH0 PUSH2 0x121E PUSH1 0x12 DUP4 PUSH2 0x114C JUMP JUMPDEST SWAP2 POP PUSH2 0x1229 DUP3 PUSH2 0x11EA JUMP JUMPDEST PUSH1 0x20 DUP3 ADD SWAP1 POP SWAP2 SWAP1 POP JUMP JUMPDEST PUSH0 PUSH1 0x20 DUP3 ADD SWAP1 POP DUP2 DUP2 SUB PUSH0 DUP4 ADD MSTORE PUSH2 0x124B DUP2 PUSH2 0x1212 JUMP JUMPDEST SWAP1 POP SWAP2 SWAP1 POP JUMP JUMPDEST PUSH0 DUP2 SWAP1 POP SWAP3 SWAP2 POP POP JUMP JUMPDEST POP JUMP JUMPDEST PUSH0 PUSH2 0x126A PUSH0 DUP4 PUSH2 0x1252 JUMP JUMPDEST SWAP2 POP PUSH2 0x1275 DUP3 PUSH2 0x125C JUMP JUMPDEST PUSH0 DUP3 ADD SWAP1 POP SWAP2 SWAP1 POP JUMP JUMPDEST PUSH0 PUSH2 0x1289 DUP3 PUSH2 0x125F JUMP JUMPDEST SWAP2 POP DUP2 SWAP1 POP SWAP2 SWAP1 POP JUMP JUMPDEST PUSH32 0x455448207472616E73666572206661696C656400000000000000000000000000 PUSH0 DUP3 ADD MSTORE POP JUMP JUMPDEST PUSH0 PUSH2 0x12C7 PUSH1 0x13 DUP4 PUSH2 0x114C JUMP JUMPDEST SWAP2 POP PUSH2 0x12D2 DUP3 PUSH2 0x1293 JUMP JUMPDEST PUSH1 0x20 DUP3 ADD SWAP1 POP SWAP2 SWAP1 POP JUMP JUMPDEST PUSH0 PUSH1 0x20 DUP3 ADD SWAP1 POP DUP2 DUP2 SUB PUSH0 DUP4 ADD MSTORE PUSH2 0x12F4 DUP2 PUSH2 0x12BB JUMP JUMPDEST SWAP1 POP SWAP2 SWAP1 POP JUMP JUMPDEST PUSH0 DUP2 MLOAD SWAP1 POP PUSH2 0x1309 DUP2 PUSH2 0x105C JUMP JUMPDEST SWAP3 SWAP2 POP POP JUMP JUMPDEST PUSH0 PUSH1 0x20 DUP3 DUP5 SUB SLT ISZERO PUSH2 0x1324 JUMPI PUSH2 0x1323 PUSH2 0x1058 JUMP JUMPDEST JUMPDEST PUSH0 PUSH2 0x1331 DUP5 DUP3 DUP6 ADD PUSH2 0x12FB JUMP JUMPDEST SWAP2 POP POP SWAP3 SWAP2 POP POP JUMP JUMPDEST PUSH0 DUP2 MLOAD SWAP1 POP PUSH2 0x1348 DUP2 PUSH2 0x1086 JUMP JUMPDEST SWAP3 SWAP2 POP POP JUMP JUMPDEST PUSH0 PUSH1 0x20 DUP3 DUP5 SUB SLT ISZERO PUSH2 0x1363 JUMPI PUSH2 0x1362 PUSH2 0x1058 JUMP JUMPDEST JUMPDEST PUSH0 PUSH2 0x1370 DUP5 DUP3 DUP6 ADD PUSH2 0x133A JUMP JUMPDEST SWAP2 POP POP SWAP3 SWAP2 POP POP JUMP JUMPDEST PUSH0 PUSH1 0x60 DUP3 ADD SWAP1 POP PUSH2 0x138C PUSH0 DUP4 ADD DUP7 PUSH2 0x1030 JUMP JUMPDEST PUSH2 0x1399 PUSH1 0x20 DUP4 ADD DUP6 PUSH2 0x1030 JUMP JUMPDEST PUSH2 0x13A6 PUSH1 0x40 DUP4 ADD DUP5 PUSH2 0xFD8 JUMP JUMPDEST SWAP5 SWAP4 POP POP POP POP JUMP JUMPDEST PUSH32 0x54686973204E4654206973206E6F74206F776E65642062792074686520636F6E PUSH0 DUP3 ADD MSTORE PUSH32 0x7472616374000000000000000000000000000000000000000000000000000000 PUSH1 0x20 DUP3 ADD MSTORE POP JUMP JUMPDEST PUSH0 PUSH2 0x1408 PUSH1 0x25 DUP4 PUSH2 0x114C JUMP JUMPDEST SWAP2 POP PUSH2 0x1413 DUP3 PUSH2 0x13AE JUMP JUMPDEST PUSH1 0x40 DUP3 ADD SWAP1 POP SWAP2 SWAP1 POP JUMP JUMPDEST PUSH0 PUSH1 0x20 DUP3 ADD SWAP1 POP DUP2 DUP2 SUB PUSH0 DUP4 ADD MSTORE PUSH2 0x1435 DUP2 PUSH2 0x13FC JUMP JUMPDEST SWAP1 POP SWAP2 SWAP1 POP JUMP JUMPDEST PUSH32 0x4E6F20746F6B656E7320746F2077697468647261770000000000000000000000 PUSH0 DUP3 ADD MSTORE POP JUMP JUMPDEST PUSH0 PUSH2 0x1470 PUSH1 0x15 DUP4 PUSH2 0x114C JUMP JUMPDEST SWAP2 POP PUSH2 0x147B DUP3 PUSH2 0x143C JUMP JUMPDEST PUSH1 0x20 DUP3 ADD SWAP1 POP SWAP2 SWAP1 POP JUMP JUMPDEST PUSH0 PUSH1 0x20 DUP3 ADD SWAP1 POP DUP2 DUP2 SUB PUSH0 DUP4 ADD MSTORE PUSH2 0x149D DUP2 PUSH2 0x1464 JUMP JUMPDEST SWAP1 POP SWAP2 SWAP1 POP JUMP JUMPDEST PUSH32 0x5265656E7472616E637947756172643A207265656E7472616E742063616C6C00 PUSH0 DUP3 ADD MSTORE POP JUMP JUMPDEST PUSH0 PUSH2 0x14D8 PUSH1 0x1F DUP4 PUSH2 0x114C JUMP JUMPDEST SWAP2 POP PUSH2 0x14E3 DUP3 PUSH2 0x14A4 JUMP JUMPDEST PUSH1 0x20 DUP3 ADD SWAP1 POP SWAP2 SWAP1 POP JUMP JUMPDEST PUSH0 PUSH1 0x20 DUP3 ADD SWAP1 POP DUP2 DUP2 SUB PUSH0 DUP4 ADD MSTORE PUSH2 0x1505 DUP2 PUSH2 0x14CC JUMP JUMPDEST SWAP1 POP SWAP2 SWAP1 POP JUMP JUMPDEST PUSH0 PUSH1 0x40 DUP3 ADD SWAP1 POP PUSH2 0x151F PUSH0 DUP4 ADD DUP6 PUSH2 0x1030 JUMP JUMPDEST PUSH2 0x152C PUSH1 0x20 DUP4 ADD DUP5 PUSH2 0xFD8 JUMP JUMPDEST SWAP4 SWAP3 POP POP POP JUMP JUMPDEST PUSH2 0x153C DUP2 PUSH2 0x10EE JUMP JUMPDEST DUP2 EQ PUSH2 0x1546 JUMPI PUSH0 DUP1 REVERT JUMPDEST POP JUMP JUMPDEST PUSH0 DUP2 MLOAD SWAP1 POP PUSH2 0x1557 DUP2 PUSH2 0x1533 JUMP JUMPDEST SWAP3 SWAP2 POP POP JUMP JUMPDEST PUSH0 PUSH1 0x20 DUP3 DUP5 SUB SLT ISZERO PUSH2 0x1572 JUMPI PUSH2 0x1571 PUSH2 0x1058 JUMP JUMPDEST JUMPDEST PUSH0 PUSH2 0x157F DUP5 DUP3 DUP6 ADD PUSH2 0x1549 JUMP JUMPDEST SWAP2 POP POP SWAP3 SWAP2 POP POP JUMP JUMPDEST PUSH0 DUP2 MLOAD SWAP1 POP SWAP2 SWAP1 POP JUMP JUMPDEST DUP3 DUP2 DUP4 MCOPY PUSH0 DUP4 DUP4 ADD MSTORE POP POP POP JUMP JUMPDEST PUSH0 PUSH2 0x15AA DUP3 PUSH2 0x1588 JUMP JUMPDEST PUSH2 0x15B4 DUP2 DUP6 PUSH2 0x1252 JUMP JUMPDEST SWAP4 POP PUSH2 0x15C4 DUP2 DUP6 PUSH1 0x20 DUP7 ADD PUSH2 0x1592 JUMP JUMPDEST DUP1 DUP5 ADD SWAP2 POP POP SWAP3 SWAP2 POP POP JUMP JUMPDEST PUSH0 PUSH2 0x15DB DUP3 DUP5 PUSH2 0x15A0 JUMP JUMPDEST SWAP2 POP DUP2 SWAP1 POP SWAP3 SWAP2 POP POP JUMP INVALID LOG2 PUSH5 0x6970667358 0x22 SLT KECCAK256 BLOBBASEFEE PUSH24 0xF1BEF8908D443896A66F890AD96BAD420AF3F706938FDD5D PC SELFBALANCE CREATE2 0xD6 PC SWAP15 PUSH5 0x736F6C6343 STOP ADDMOD BYTE STOP CALLER "
				},
				"gasEstimates": {
					"creation": {
						"codeDepositCost": "1132000",
						"executionCost": "47550",
						"totalCost": "1179550"
					},
					"external": {
						"deposit()": "1711",
						"depositERC20(address,uint256)": "infinite",
						"depositERC721(address,uint256)": "infinite",
						"getBalance()": "335",
						"getERC20Balance(address)": "infinite",
						"hasERC721(address,uint256)": "infinite",
						"owner()": "2531",
						"withdrawAllETH()": "infinite",
						"withdrawERC20(address)": "infinite",
						"withdrawERC721(address,uint256)": "infinite"
					}
				},
				"methodIdentifiers": {
					"deposit()": "d0e30db0",
					"depositERC20(address,uint256)": "97feb926",
					"depositERC721(address,uint256)": "d29a4bf6",
					"getBalance()": "12065fe0",
					"getERC20Balance(address)": "b588d225",
					"hasERC721(address,uint256)": "aa2d4ecf",
					"owner()": "8da5cb5b",
					"withdrawAllETH()": "90386bbf",
					"withdrawERC20(address)": "f4f3b200",
					"withdrawERC721(address,uint256)": "f3e414f8"
				}
			},
			"storageLayout": {
				"storage": [
					{
						"astId": 10,
						"contract": "contracts/piggy_bank.sol:AdvancedVault",
						"label": "_status",
						"offset": 0,
						"slot": "0",
						"type": "t_uint256"
					},
					{
						"astId": 864,
						"contract": "contracts/piggy_bank.sol:AdvancedVault",
						"label": "owner",
						"offset": 0,
						"slot": "1",
						"type": "t_address"
					}
				],
				"types": {
					"t_address": {
						"encoding": "inplace",
						"label": "address",
						"numberOfBytes": "20"
					},
					"t_uint256": {
						"encoding": "inplace",
						"label": "uint256",
						"numberOfBytes": "32"
					}
				}
			},
			"userdoc": {
				"kind": "user",
				"methods": {},
				"version": 1
			}
		}
	}
}