{
	"data": {
		"bytecode": {
			"linkReferences": {},
			"object": "6080604052348015600e575f80fd5b50610e8d8061001c5f395ff3fe608060405234801561000f575f80fd5b506004361061007b575f3560e01c80635357316e116100595780635357316e146100e957806353cd7b8e146101055780638d97767214610121578063b6cb58a5146101535761007b565b8063111002aa1461007f5780631d65e77e1461009b578063200c2f2d146100cd575b5f80fd5b610099600480360381019061009491906107dc565b610171565b005b6100b560048036038101906100b09190610856565b610237565b6040516100c49392919061090a565b60405180910390f35b6100e760048036038101906100e29190610946565b610378565b005b61010360048036038101906100fe9190610856565b610425565b005b61011f600480360381019061011a91906109ca565b61051b565b005b61013b60048036038101906101369190610856565b6105d2565b60405161014a9392919061090a565b60405180910390f35b61015b610689565b6040516101689190610a08565b60405180910390f35b60015f81548092919061018390610a4e565b919050555060405180606001604052808281526020015f15158152602001428152505f8060015481526020019081526020015f205f820151815f0190816101ca9190610c8f565b506020820151816001015f6101000a81548160ff021916908315150217905550604082015181600201559050507f146b4b2e55f6b6a4a8ac8239494150cd5f96b163e2d019440f369714f4a31eb8600154824260405161022c93929190610d5e565b60405180910390a150565b60605f805f8411801561024c57506001548411155b61028b576040517f08c379a000000000000000000000000000000000000000000000000000000000815260040161028290610de4565b60405180910390fd5b5f805f8681526020019081526020015f206040518060600160405290815f820180546102b690610ac2565b80601f01602080910402602001604051908101604052809291908181526020018280546102e290610ac2565b801561032d5780601f106103045761010080835404028352916020019161032d565b820191905f5260205f20905b81548152906001019060200180831161031057829003601f168201915b50505050508152602001600182015f9054906101000a900460ff161515151581526020016002820154815250509050805f015181602001518260400151935093509350509193909250565b5f8211801561038957506001548211155b6103c8576040517f08c379a00000000000000000000000000000000000000000000000000000000081526004016103bf90610de4565b60405180910390fd5b805f808481526020019081526020015f205f0190816103e79190610c8f565b507f4501ef52991d5f1c04cd1c8f9e4acda863929c0664942e0b2f3c7e54e05c5a548282604051610419929190610e02565b60405180910390a15050565b5f8111801561043657506001548111155b610475576040517f08c379a000000000000000000000000000000000000000000000000000000000815260040161046c90610de4565b60405180910390fd5b5f808281526020019081526020015f206001015f9054906101000a900460ff16155f808381526020019081526020015f206001015f6101000a81548160ff0219169083151502179055507fc63c34089ec3ca7025b2576e9e17e226d1e6c33f64661975d35df1cea0c0a60d815f808481526020019081526020015f206001015f9054906101000a900460ff1615604051610510929190610e30565b60405180910390a150565b5f8211801561052c57506001548211155b61056b576040517f08c379a000000000000000000000000000000000000000000000000000000000815260040161056290610de4565b60405180910390fd5b805f808481526020019081526020015f206001015f6101000a81548160ff0219169083151502179055507fc63c34089ec3ca7025b2576e9e17e226d1e6c33f64661975d35df1cea0c0a60d82826040516105c6929190610e30565b60405180910390a15050565b5f602052805f5260405f205f91509050805f0180546105f090610ac2565b80601f016020809104026020016040519081016040528092919081815260200182805461061c90610ac2565b80156106675780601f1061063e57610100808354040283529160200191610667565b820191905f5260205f20905b81548152906001019060200180831161064a57829003601f168201915b505050505090806001015f9054906101000a900460ff16908060020154905083565b60015481565b5f604051905090565b5f80fd5b5f80fd5b5f80fd5b5f80fd5b5f601f19601f8301169050919050565b7f4e487b71000000000000000000000000000000000000000000000000000000005f52604160045260245ffd5b6106ee826106a8565b810181811067ffffffffffffffff8211171561070d5761070c6106b8565b5b80604052505050565b5f61071f61068f565b905061072b82826106e5565b919050565b5f67ffffffffffffffff82111561074a576107496106b8565b5b610753826106a8565b9050602081019050919050565b828183375f83830152505050565b5f61078061077b84610730565b610716565b90508281526020810184848401111561079c5761079b6106a4565b5b6107a7848285610760565b509392505050565b5f82601f8301126107c3576107c26106a0565b5b81356107d384826020860161076e565b91505092915050565b5f602082840312156107f1576107f0610698565b5b5f82013567ffffffffffffffff81111561080e5761080d61069c565b5b61081a848285016107af565b91505092915050565b5f819050919050565b61083581610823565b811461083f575f80fd5b50565b5f813590506108508161082c565b92915050565b5f6020828403121561086b5761086a610698565b5b5f61087884828501610842565b91505092915050565b5f81519050919050565b5f82825260208201905092915050565b8281835e5f83830152505050565b5f6108b382610881565b6108bd818561088b565b93506108cd81856020860161089b565b6108d6816106a8565b840191505092915050565b5f8115159050919050565b6108f5816108e1565b82525050565b61090481610823565b82525050565b5f6060820190508181035f83015261092281866108a9565b905061093160208301856108ec565b61093e60408301846108fb565b949350505050565b5f806040838503121561095c5761095b610698565b5b5f61096985828601610842565b925050602083013567ffffffffffffffff81111561098a5761098961069c565b5b610996858286016107af565b9150509250929050565b6109a9816108e1565b81146109b3575f80fd5b50565b5f813590506109c4816109a0565b92915050565b5f80604083850312156109e0576109df610698565b5b5f6109ed85828601610842565b92505060206109fe858286016109b6565b9150509250929050565b5f602082019050610a1b5f8301846108fb565b92915050565b7f4e487b71000000000000000000000000000000000000000000000000000000005f52601160045260245ffd5b5f610a5882610823565b91507fffffffffffffffffffffffffffffffffffffffffffffffffffffffffffffffff8203610a8a57610a89610a21565b5b600182019050919050565b7f4e487b71000000000000000000000000000000000000000000000000000000005f52602260045260245ffd5b5f6002820490506001821680610ad957607f821691505b602082108103610aec57610aeb610a95565b5b50919050565b5f819050815f5260205f209050919050565b5f6020601f8301049050919050565b5f82821b905092915050565b5f60088302610b4e7fffffffffffffffffffffffffffffffffffffffffffffffffffffffffffffffff82610b13565b610b588683610b13565b95508019841693508086168417925050509392505050565b5f819050919050565b5f610b93610b8e610b8984610823565b610b70565b610823565b9050919050565b5f819050919050565b610bac83610b79565b610bc0610bb882610b9a565b848454610b1f565b825550505050565b5f90565b610bd4610bc8565b610bdf818484610ba3565b505050565b5b81811015610c0257610bf75f82610bcc565b600181019050610be5565b5050565b601f821115610c4757610c1881610af2565b610c2184610b04565b81016020851015610c30578190505b610c44610c3c85610b04565b830182610be4565b50505b505050565b5f82821c905092915050565b5f610c675f1984600802610c4c565b1980831691505092915050565b5f610c7f8383610c58565b9150826002028217905092915050565b610c9882610881565b67ffffffffffffffff811115610cb157610cb06106b8565b5b610cbb8254610ac2565b610cc6828285610c06565b5f60209050601f831160018114610cf7575f8415610ce5578287015190505b610cef8582610c74565b865550610d56565b601f198416610d0586610af2565b5f5b82811015610d2c57848901518255600182019150602085019450602081019050610d07565b86831015610d495784890151610d45601f891682610c58565b8355505b6001600288020188555050505b505050505050565b5f606082019050610d715f8301866108fb565b8181036020830152610d8381856108a9565b9050610d9260408301846108fb565b949350505050565b7f4e6f7420466f756e64205461736b0000000000000000000000000000000000005f82015250565b5f610dce600e8361088b565b9150610dd982610d9a565b602082019050919050565b5f6020820190508181035f830152610dfb81610dc2565b9050919050565b5f604082019050610e155f8301856108fb565b8181036020830152610e2781846108a9565b90509392505050565b5f604082019050610e435f8301856108fb565b610e5060208301846108ec565b939250505056fea26469706673582212202fef54d2c263d440146359efc0f49c5d0c8e2a39ff51af419320e40d2b44325064736f6c634300081a0033",
			"opcodes": "PUSH1 0x80 PUSH1 0x40 MSTORE CALLVALUE DUP1 ISZERO PUSH1 0xE JUMPI PUSH0 DUP1 REVERT JUMPDEST POP PUSH2 0xE8D DUP1 PUSH2 0x1C PUSH0 CODECOPY PUSH0 RETURN INVALID PUSH1 0x80 PUSH1 0x40 MSTORE CALLVALUE DUP1 ISZERO PUSH2 0xF JUMPI PUSH0 DUP1 REVERT JUMPDEST POP PUSH1 0x4 CALLDATASIZE LT PUSH2 0x7B JUMPI PUSH0 CALLDATALOAD PUSH1 0xE0 SHR DUP1 PUSH4 0x5357316E GT PUSH2 0x59 JUMPI DUP1 PUSH4 0x5357316E EQ PUSH2 0xE9 JUMPI DUP1 PUSH4 0x53CD7B8E EQ PUSH2 0x105 JUMPI DUP1 PUSH4 0x8D977672 EQ PUSH2 0x121 JUMPI DUP1 PUSH4 0xB6CB58A5 EQ PUSH2 0x153 JUMPI PUSH2 0x7B JUMP JUMPDEST DUP1 PUSH4 0x111002AA EQ PUSH2 0x7F JUMPI DUP1 PUSH4 0x1D65E77E EQ PUSH2 0x9B JUMPI DUP1 PUSH4 0x200C2F2D EQ PUSH2 0xCD JUMPI JUMPDEST PUSH0 DUP1 REVERT JUMPDEST PUSH2 0x99 PUSH1 0x4 DUP1 CALLDATASIZE SUB DUP2 ADD SWAP1 PUSH2 0x94 SWAP2 SWAP1 PUSH2 0x7DC JUMP JUMPDEST PUSH2 0x171 JUMP JUMPDEST STOP JUMPDEST PUSH2 0xB5 PUSH1 0x4 DUP1 CALLDATASIZE SUB DUP2 ADD SWAP1 PUSH2 0xB0 SWAP2 SWAP1 PUSH2 0x856 JUMP JUMPDEST PUSH2 0x237 JUMP JUMPDEST PUSH1 0x40 MLOAD PUSH2 0xC4 SWAP4 SWAP3 SWAP2 SWAP1 PUSH2 0x90A JUMP JUMPDEST PUSH1 0x40 MLOAD DUP1 SWAP2 SUB SWAP1 RETURN JUMPDEST PUSH2 0xE7 PUSH1 0x4 DUP1 CALLDATASIZE SUB DUP2 ADD SWAP1 PUSH2 0xE2 SWAP2 SWAP1 PUSH2 0x946 JUMP JUMPDEST PUSH2 0x378 JUMP JUMPDEST STOP JUMPDEST PUSH2 0x103 PUSH1 0x4 DUP1 CALLDATASIZE SUB DUP2 ADD SWAP1 PUSH2 0xFE SWAP2 SWAP1 PUSH2 0x856 JUMP JUMPDEST PUSH2 0x425 JUMP JUMPDEST STOP JUMPDEST PUSH2 0x11F PUSH1 0x4 DUP1 CALLDATASIZE SUB DUP2 ADD SWAP1 PUSH2 0x11A SWAP2 SWAP1 PUSH2 0x9CA JUMP JUMPDEST PUSH2 0x51B JUMP JUMPDEST STOP JUMPDEST PUSH2 0x13B PUSH1 0x4 DUP1 CALLDATASIZE SUB DUP2 ADD SWAP1 PUSH2 0x136 SWAP2 SWAP1 PUSH2 0x856 JUMP JUMPDEST PUSH2 0x5D2 JUMP JUMPDEST PUSH1 0x40 MLOAD PUSH2 0x14A SWAP4 SWAP3 SWAP2 SWAP1 PUSH2 0x90A JUMP JUMPDEST PUSH1 0x40 MLOAD DUP1 SWAP2 SUB SWAP1 RETURN JUMPDEST PUSH2 0x15B PUSH2 0x689 JUMP JUMPDEST PUSH1 0x40 MLOAD PUSH2 0x168 SWAP2 SWAP1 PUSH2 0xA08 JUMP JUMPDEST PUSH1 0x40 MLOAD DUP1 SWAP2 SUB SWAP1 RETURN JUMPDEST PUSH1 0x1 PUSH0 DUP2 SLOAD DUP1 SWAP3 SWAP2 SWAP1 PUSH2 0x183 SWAP1 PUSH2 0xA4E JUMP JUMPDEST SWAP2 SWAP1 POP SSTORE POP PUSH1 0x40 MLOAD DUP1 PUSH1 0x60 ADD PUSH1 0x40 MSTORE DUP1 DUP3 DUP2 MSTORE PUSH1 0x20 ADD PUSH0 ISZERO ISZERO DUP2 MSTORE PUSH1 0x20 ADD TIMESTAMP DUP2 MSTORE POP PUSH0 DUP1 PUSH1 0x1 SLOAD DUP2 MSTORE PUSH1 0x20 ADD SWAP1 DUP2 MSTORE PUSH1 0x20 ADD PUSH0 KECCAK256 PUSH0 DUP3 ADD MLOAD DUP2 PUSH0 ADD SWAP1 DUP2 PUSH2 0x1CA SWAP2 SWAP1 PUSH2 0xC8F JUMP JUMPDEST POP PUSH1 0x20 DUP3 ADD MLOAD DUP2 PUSH1 0x1 ADD PUSH0 PUSH2 0x100 EXP DUP2 SLOAD DUP2 PUSH1 0xFF MUL NOT AND SWAP1 DUP4 ISZERO ISZERO MUL OR SWAP1 SSTORE POP PUSH1 0x40 DUP3 ADD MLOAD DUP2 PUSH1 0x2 ADD SSTORE SWAP1 POP POP PUSH32 0x146B4B2E55F6B6A4A8AC8239494150CD5F96B163E2D019440F369714F4A31EB8 PUSH1 0x1 SLOAD DUP3 TIMESTAMP PUSH1 0x40 MLOAD PUSH2 0x22C SWAP4 SWAP3 SWAP2 SWAP1 PUSH2 0xD5E JUMP JUMPDEST PUSH1 0x40 MLOAD DUP1 SWAP2 SUB SWAP1 LOG1 POP JUMP JUMPDEST PUSH1 0x60 PUSH0 DUP1 PUSH0 DUP5 GT DUP1 ISZERO PUSH2 0x24C JUMPI POP PUSH1 0x1 SLOAD DUP5 GT ISZERO JUMPDEST PUSH2 0x28B JUMPI PUSH1 0x40 MLOAD PUSH32 0x8C379A000000000000000000000000000000000000000000000000000000000 DUP2 MSTORE PUSH1 0x4 ADD PUSH2 0x282 SWAP1 PUSH2 0xDE4 JUMP JUMPDEST PUSH1 0x40 MLOAD DUP1 SWAP2 SUB SWAP1 REVERT JUMPDEST PUSH0 DUP1 PUSH0 DUP7 DUP2 MSTORE PUSH1 0x20 ADD SWAP1 DUP2 MSTORE PUSH1 0x20 ADD PUSH0 KECCAK256 PUSH1 0x40 MLOAD DUP1 PUSH1 0x60 ADD PUSH1 0x40 MSTORE SWAP1 DUP2 PUSH0 DUP3 ADD DUP1 SLOAD PUSH2 0x2B6 SWAP1 PUSH2 0xAC2 JUMP JUMPDEST DUP1 PUSH1 0x1F ADD PUSH1 0x20 DUP1 SWAP2 DIV MUL PUSH1 0x20 ADD PUSH1 0x40 MLOAD SWAP1 DUP2 ADD PUSH1 0x40 MSTORE DUP1 SWAP3 SWAP2 SWAP1 DUP2 DUP2 MSTORE PUSH1 0x20 ADD DUP3 DUP1 SLOAD PUSH2 0x2E2 SWAP1 PUSH2 0xAC2 JUMP JUMPDEST DUP1 ISZERO PUSH2 0x32D JUMPI DUP1 PUSH1 0x1F LT PUSH2 0x304 JUMPI PUSH2 0x100 DUP1 DUP4 SLOAD DIV MUL DUP4 MSTORE SWAP2 PUSH1 0x20 ADD SWAP2 PUSH2 0x32D JUMP JUMPDEST DUP3 ADD SWAP2 SWAP1 PUSH0 MSTORE PUSH1 0x20 PUSH0 KECCAK256 SWAP1 JUMPDEST DUP2 SLOAD DUP2 MSTORE SWAP1 PUSH1 0x1 ADD SWAP1 PUSH1 0x20 ADD DUP1 DUP4 GT PUSH2 0x310 JUMPI DUP3 SWAP1 SUB PUSH1 0x1F AND DUP3 ADD SWAP2 JUMPDEST POP POP POP POP POP DUP2 MSTORE PUSH1 0x20 ADD PUSH1 0x1 DUP3 ADD PUSH0 SWAP1 SLOAD SWAP1 PUSH2 0x100 EXP SWAP1 DIV PUSH1 0xFF AND ISZERO ISZERO ISZERO ISZERO DUP2 MSTORE PUSH1 0x20 ADD PUSH1 0x2 DUP3 ADD SLOAD DUP2 MSTORE POP POP SWAP1 POP DUP1 PUSH0 ADD MLOAD DUP2 PUSH1 0x20 ADD MLOAD DUP3 PUSH1 0x40 ADD MLOAD SWAP4 POP SWAP4 POP SWAP4 POP POP SWAP2 SWAP4 SWAP1 SWAP3 POP JUMP JUMPDEST PUSH0 DUP3 GT DUP1 ISZERO PUSH2 0x389 JUMPI POP PUSH1 0x1 SLOAD DUP3 GT ISZERO JUMPDEST PUSH2 0x3C8 JUMPI PUSH1 0x40 MLOAD PUSH32 0x8C379A000000000000000000000000000000000000000000000000000000000 DUP2 MSTORE PUSH1 0x4 ADD PUSH2 0x3BF SWAP1 PUSH2 0xDE4 JUMP JUMPDEST PUSH1 0x40 MLOAD DUP1 SWAP2 SUB SWAP1 REVERT JUMPDEST DUP1 PUSH0 DUP1 DUP5 DUP2 MSTORE PUSH1 0x20 ADD SWAP1 DUP2 MSTORE PUSH1 0x20 ADD PUSH0 KECCAK256 PUSH0 ADD SWAP1 DUP2 PUSH2 0x3E7 SWAP2 SWAP1 PUSH2 0xC8F JUMP JUMPDEST POP PUSH32 0x4501EF52991D5F1C04CD1C8F9E4ACDA863929C0664942E0B2F3C7E54E05C5A54 DUP3 DUP3 PUSH1 0x40 MLOAD PUSH2 0x419 SWAP3 SWAP2 SWAP1 PUSH2 0xE02 JUMP JUMPDEST PUSH1 0x40 MLOAD DUP1 SWAP2 SUB SWAP1 LOG1 POP POP JUMP JUMPDEST PUSH0 DUP2 GT DUP1 ISZERO PUSH2 0x436 JUMPI POP PUSH1 0x1 SLOAD DUP2 GT ISZERO JUMPDEST PUSH2 0x475 JUMPI PUSH1 0x40 MLOAD PUSH32 0x8C379A000000000000000000000000000000000000000000000000000000000 DUP2 MSTORE PUSH1 0x4 ADD PUSH2 0x46C SWAP1 PUSH2 0xDE4 JUMP JUMPDEST PUSH1 0x40 MLOAD DUP1 SWAP2 SUB SWAP1 REVERT JUMPDEST PUSH0 DUP1 DUP3 DUP2 MSTORE PUSH1 0x20 ADD SWAP1 DUP2 MSTORE PUSH1 0x20 ADD PUSH0 KECCAK256 PUSH1 0x1 ADD PUSH0 SWAP1 SLOAD SWAP1 PUSH2 0x100 EXP SWAP1 DIV PUSH1 0xFF AND ISZERO PUSH0 DUP1 DUP4 DUP2 MSTORE PUSH1 0x20 ADD SWAP1 DUP2 MSTORE PUSH1 0x20 ADD PUSH0 KECCAK256 PUSH1 0x1 ADD PUSH0 PUSH2 0x100 EXP DUP2 SLOAD DUP2 PUSH1 0xFF MUL NOT AND SWAP1 DUP4 ISZERO ISZERO MUL OR SWAP1 SSTORE POP PUSH32 0xC63C34089EC3CA7025B2576E9E17E226D1E6C33F64661975D35DF1CEA0C0A60D DUP2 PUSH0 DUP1 DUP5 DUP2 MSTORE PUSH1 0x20 ADD SWAP1 DUP2 MSTORE PUSH1 0x20 ADD PUSH0 KECCAK256 PUSH1 0x1 ADD PUSH0 SWAP1 SLOAD SWAP1 PUSH2 0x100 EXP SWAP1 DIV PUSH1 0xFF AND ISZERO PUSH1 0x40 MLOAD PUSH2 0x510 SWAP3 SWAP2 SWAP1 PUSH2 0xE30 JUMP JUMPDEST PUSH1 0x40 MLOAD DUP1 SWAP2 SUB SWAP1 LOG1 POP JUMP JUMPDEST PUSH0 DUP3 GT DUP1 ISZERO PUSH2 0x52C JUMPI POP PUSH1 0x1 SLOAD DUP3 GT ISZERO JUMPDEST PUSH2 0x56B JUMPI PUSH1 0x40 MLOAD PUSH32 0x8C379A000000000000000000000000000000000000000000000000000000000 DUP2 MSTORE PUSH1 0x4 ADD PUSH2 0x562 SWAP1 PUSH2 0xDE4 JUMP JUMPDEST PUSH1 0x40 MLOAD DUP1 SWAP2 SUB SWAP1 REVERT JUMPDEST DUP1 PUSH0 DUP1 DUP5 DUP2 MSTORE PUSH1 0x20 ADD SWAP1 DUP2 MSTORE PUSH1 0x20 ADD PUSH0 KECCAK256 PUSH1 0x1 ADD PUSH0 PUSH2 0x100 EXP DUP2 SLOAD DUP2 PUSH1 0xFF MUL NOT AND SWAP1 DUP4 ISZERO ISZERO MUL OR SWAP1 SSTORE POP PUSH32 0xC63C34089EC3CA7025B2576E9E17E226D1E6C33F64661975D35DF1CEA0C0A60D DUP3 DUP3 PUSH1 0x40 MLOAD PUSH2 0x5C6 SWAP3 SWAP2 SWAP1 PUSH2 0xE30 JUMP JUMPDEST PUSH1 0x40 MLOAD DUP1 SWAP2 SUB SWAP1 LOG1 POP POP JUMP JUMPDEST PUSH0 PUSH1 0x20 MSTORE DUP1 PUSH0 MSTORE PUSH1 0x40 PUSH0 KECCAK256 PUSH0 SWAP2 POP SWAP1 POP DUP1 PUSH0 ADD DUP1 SLOAD PUSH2 0x5F0 SWAP1 PUSH2 0xAC2 JUMP JUMPDEST DUP1 PUSH1 0x1F ADD PUSH1 0x20 DUP1 SWAP2 DIV MUL PUSH1 0x20 ADD PUSH1 0x40 MLOAD SWAP1 DUP2 ADD PUSH1 0x40 MSTORE DUP1 SWAP3 SWAP2 SWAP1 DUP2 DUP2 MSTORE PUSH1 0x20 ADD DUP3 DUP1 SLOAD PUSH2 0x61C SWAP1 PUSH2 0xAC2 JUMP JUMPDEST DUP1 ISZERO PUSH2 0x667 JUMPI DUP1 PUSH1 0x1F LT PUSH2 0x63E JUMPI PUSH2 0x100 DUP1 DUP4 SLOAD DIV MUL DUP4 MSTORE SWAP2 PUSH1 0x20 ADD SWAP2 PUSH2 0x667 JUMP JUMPDEST DUP3 ADD SWAP2 SWAP1 PUSH0 MSTORE PUSH1 0x20 PUSH0 KECCAK256 SWAP1 JUMPDEST DUP2 SLOAD DUP2 MSTORE SWAP1 PUSH1 0x1 ADD SWAP1 PUSH1 0x20 ADD DUP1 DUP4 GT PUSH2 0x64A JUMPI DUP3 SWAP1 SUB PUSH1 0x1F AND DUP3 ADD SWAP2 JUMPDEST POP POP POP POP POP SWAP1 DUP1 PUSH1 0x1 ADD PUSH0 SWAP1 SLOAD SWAP1 PUSH2 0x100 EXP SWAP1 DIV PUSH1 0xFF AND SWAP1 DUP1 PUSH1 0x2 ADD SLOAD SWAP1 POP DUP4 JUMP JUMPDEST PUSH1 0x1 SLOAD DUP2 JUMP JUMPDEST PUSH0 PUSH1 0x40 MLOAD SWAP1 POP SWAP1 JUMP JUMPDEST PUSH0 DUP1 REVERT JUMPDEST PUSH0 DUP1 REVERT JUMPDEST PUSH0 DUP1 REVERT JUMPDEST PUSH0 DUP1 REVERT JUMPDEST PUSH0 PUSH1 0x1F NOT PUSH1 0x1F DUP4 ADD AND SWAP1 POP SWAP2 SWAP1 POP JUMP JUMPDEST PUSH32 0x4E487B7100000000000000000000000000000000000000000000000000000000 PUSH0 MSTORE PUSH1 0x41 PUSH1 0x4 MSTORE PUSH1 0x24 PUSH0 REVERT JUMPDEST PUSH2 0x6EE DUP3 PUSH2 0x6A8 JUMP JUMPDEST DUP2 ADD DUP2 DUP2 LT PUSH8 0xFFFFFFFFFFFFFFFF DUP3 GT OR ISZERO PUSH2 0x70D JUMPI PUSH2 0x70C PUSH2 0x6B8 JUMP JUMPDEST JUMPDEST DUP1 PUSH1 0x40 MSTORE POP POP POP JUMP JUMPDEST PUSH0 PUSH2 0x71F PUSH2 0x68F JUMP JUMPDEST SWAP1 POP PUSH2 0x72B DUP3 DUP3 PUSH2 0x6E5 JUMP JUMPDEST SWAP2 SWAP1 POP JUMP JUMPDEST PUSH0 PUSH8 0xFFFFFFFFFFFFFFFF DUP3 GT ISZERO PUSH2 0x74A JUMPI PUSH2 0x749 PUSH2 0x6B8 JUMP JUMPDEST JUMPDEST PUSH2 0x753 DUP3 PUSH2 0x6A8 JUMP JUMPDEST SWAP1 POP PUSH1 0x20 DUP2 ADD SWAP1 POP SWAP2 SWAP1 POP JUMP JUMPDEST DUP3 DUP2 DUP4 CALLDATACOPY PUSH0 DUP4 DUP4 ADD MSTORE POP POP POP JUMP JUMPDEST PUSH0 PUSH2 0x780 PUSH2 0x77B DUP5 PUSH2 0x730 JUMP JUMPDEST PUSH2 0x716 JUMP JUMPDEST SWAP1 POP DUP3 DUP2 MSTORE PUSH1 0x20 DUP2 ADD DUP5 DUP5 DUP5 ADD GT ISZERO PUSH2 0x79C JUMPI PUSH2 0x79B PUSH2 0x6A4 JUMP JUMPDEST JUMPDEST PUSH2 0x7A7 DUP5 DUP3 DUP6 PUSH2 0x760 JUMP JUMPDEST POP SWAP4 SWAP3 POP POP POP JUMP JUMPDEST PUSH0 DUP3 PUSH1 0x1F DUP4 ADD SLT PUSH2 0x7C3 JUMPI PUSH2 0x7C2 PUSH2 0x6A0 JUMP JUMPDEST JUMPDEST DUP2 CALLDATALOAD PUSH2 0x7D3 DUP5 DUP3 PUSH1 0x20 DUP7 ADD PUSH2 0x76E JUMP JUMPDEST SWAP2 POP POP SWAP3 SWAP2 POP POP JUMP JUMPDEST PUSH0 PUSH1 0x20 DUP3 DUP5 SUB SLT ISZERO PUSH2 0x7F1 JUMPI PUSH2 0x7F0 PUSH2 0x698 JUMP JUMPDEST JUMPDEST PUSH0 DUP3 ADD CALLDATALOAD PUSH8 0xFFFFFFFFFFFFFFFF DUP2 GT ISZERO PUSH2 0x80E JUMPI PUSH2 0x80D PUSH2 0x69C JUMP JUMPDEST JUMPDEST PUSH2 0x81A DUP5 DUP3 DUP6 ADD PUSH2 0x7AF JUMP JUMPDEST SWAP2 POP POP SWAP3 SWAP2 POP POP JUMP JUMPDEST PUSH0 DUP2 SWAP1 POP SWAP2 SWAP1 POP JUMP JUMPDEST PUSH2 0x835 DUP2 PUSH2 0x823 JUMP JUMPDEST DUP2 EQ PUSH2 0x83F JUMPI PUSH0 DUP1 REVERT JUMPDEST POP JUMP JUMPDEST PUSH0 DUP2 CALLDATALOAD SWAP1 POP PUSH2 0x850 DUP2 PUSH2 0x82C JUMP JUMPDEST SWAP3 SWAP2 POP POP JUMP JUMPDEST PUSH0 PUSH1 0x20 DUP3 DUP5 SUB SLT ISZERO PUSH2 0x86B JUMPI PUSH2 0x86A PUSH2 0x698 JUMP JUMPDEST JUMPDEST PUSH0 PUSH2 0x878 DUP5 DUP3 DUP6 ADD PUSH2 0x842 JUMP JUMPDEST SWAP2 POP POP SWAP3 SWAP2 POP POP JUMP JUMPDEST PUSH0 DUP2 MLOAD SWAP1 POP SWAP2 SWAP1 POP JUMP JUMPDEST PUSH0 DUP3 DUP3 MSTORE PUSH1 0x20 DUP3 ADD SWAP1 POP SWAP3 SWAP2 POP POP JUMP JUMPDEST DUP3 DUP2 DUP4 MCOPY PUSH0 DUP4 DUP4 ADD MSTORE POP POP POP JUMP JUMPDEST PUSH0 PUSH2 0x8B3 DUP3 PUSH2 0x881 JUMP JUMPDEST PUSH2 0x8BD DUP2 DUP6 PUSH2 0x88B JUMP JUMPDEST SWAP4 POP PUSH2 0x8CD DUP2 DUP6 PUSH1 0x20 DUP7 ADD PUSH2 0x89B JUMP JUMPDEST PUSH2 0x8D6 DUP2 PUSH2 0x6A8 JUMP JUMPDEST DUP5 ADD SWAP2 POP POP SWAP3 SWAP2 POP POP JUMP JUMPDEST PUSH0 DUP2 ISZERO ISZERO SWAP1 POP SWAP2 SWAP1 POP JUMP JUMPDEST PUSH2 0x8F5 DUP2 PUSH2 0x8E1 JUMP JUMPDEST DUP3 MSTORE POP POP JUMP JUMPDEST PUSH2 0x904 DUP2 PUSH2 0x823 JUMP JUMPDEST DUP3 MSTORE POP POP JUMP JUMPDEST PUSH0 PUSH1 0x60 DUP3 ADD SWAP1 POP DUP2 DUP2 SUB PUSH0 DUP4 ADD MSTORE PUSH2 0x922 DUP2 DUP7 PUSH2 0x8A9 JUMP JUMPDEST SWAP1 POP PUSH2 0x931 PUSH1 0x20 DUP4 ADD DUP6 PUSH2 0x8EC JUMP JUMPDEST PUSH2 0x93E PUSH1 0x40 DUP4 ADD DUP5 PUSH2 0x8FB JUMP JUMPDEST SWAP5 SWAP4 POP POP POP POP JUMP JUMPDEST PUSH0 DUP1 PUSH1 0x40 DUP4 DUP6 SUB SLT ISZERO PUSH2 0x95C JUMPI PUSH2 0x95B PUSH2 0x698 JUMP JUMPDEST JUMPDEST PUSH0 PUSH2 0x969 DUP6 DUP3 DUP7 ADD PUSH2 0x842 JUMP JUMPDEST SWAP3 POP POP PUSH1 0x20 DUP4 ADD CALLDATALOAD PUSH8 0xFFFFFFFFFFFFFFFF DUP2 GT ISZERO PUSH2 0x98A JUMPI PUSH2 0x989 PUSH2 0x69C JUMP JUMPDEST JUMPDEST PUSH2 0x996 DUP6 DUP3 DUP7 ADD PUSH2 0x7AF JUMP JUMPDEST SWAP2 POP POP SWAP3 POP SWAP3 SWAP1 POP JUMP JUMPDEST PUSH2 0x9A9 DUP2 PUSH2 0x8E1 JUMP JUMPDEST DUP2 EQ PUSH2 0x9B3 JUMPI PUSH0 DUP1 REVERT JUMPDEST POP JUMP JUMPDEST PUSH0 DUP2 CALLDATALOAD SWAP1 POP PUSH2 0x9C4 DUP2 PUSH2 0x9A0 JUMP JUMPDEST SWAP3 SWAP2 POP POP JUMP JUMPDEST PUSH0 DUP1 PUSH1 0x40 DUP4 DUP6 SUB SLT ISZERO PUSH2 0x9E0 JUMPI PUSH2 0x9DF PUSH2 0x698 JUMP JUMPDEST JUMPDEST PUSH0 PUSH2 0x9ED DUP6 DUP3 DUP7 ADD PUSH2 0x842 JUMP JUMPDEST SWAP3 POP POP PUSH1 0x20 PUSH2 0x9FE DUP6 DUP3 DUP7 ADD PUSH2 0x9B6 JUMP JUMPDEST SWAP2 POP POP SWAP3 POP SWAP3 SWAP1 POP JUMP JUMPDEST PUSH0 PUSH1 0x20 DUP3 ADD SWAP1 POP PUSH2 0xA1B PUSH0 DUP4 ADD DUP5 PUSH2 0x8FB JUMP JUMPDEST SWAP3 SWAP2 POP POP JUMP JUMPDEST PUSH32 0x4E487B7100000000000000000000000000000000000000000000000000000000 PUSH0 MSTORE PUSH1 0x11 PUSH1 0x4 MSTORE PUSH1 0x24 PUSH0 REVERT JUMPDEST PUSH0 PUSH2 0xA58 DUP3 PUSH2 0x823 JUMP JUMPDEST SWAP2 POP PUSH32 0xFFFFFFFFFFFFFFFFFFFFFFFFFFFFFFFFFFFFFFFFFFFFFFFFFFFFFFFFFFFFFFFF DUP3 SUB PUSH2 0xA8A JUMPI PUSH2 0xA89 PUSH2 0xA21 JUMP JUMPDEST JUMPDEST PUSH1 0x1 DUP3 ADD SWAP1 POP SWAP2 SWAP1 POP JUMP JUMPDEST PUSH32 0x4E487B7100000000000000000000000000000000000000000000000000000000 PUSH0 MSTORE PUSH1 0x22 PUSH1 0x4 MSTORE PUSH1 0x24 PUSH0 REVERT JUMPDEST PUSH0 PUSH1 0x2 DUP3 DIV SWAP1 POP PUSH1 0x1 DUP3 AND DUP1 PUSH2 0xAD9 JUMPI PUSH1 0x7F DUP3 AND SWAP2 POP JUMPDEST PUSH1 0x20 DUP3 LT DUP2 SUB PUSH2 0xAEC JUMPI PUSH2 0xAEB PUSH2 0xA95 JUMP JUMPDEST JUMPDEST POP SWAP2 SWAP1 POP JUMP JUMPDEST PUSH0 DUP2 SWAP1 POP DUP2 PUSH0 MSTORE PUSH1 0x20 PUSH0 KECCAK256 SWAP1 POP SWAP2 SWAP1 POP JUMP JUMPDEST PUSH0 PUSH1 0x20 PUSH1 0x1F DUP4 ADD DIV SWAP1 POP SWAP2 SWAP1 POP JUMP JUMPDEST PUSH0 DUP3 DUP3 SHL SWAP1 POP SWAP3 SWAP2 POP POP JUMP JUMPDEST PUSH0 PUSH1 0x8 DUP4 MUL PUSH2 0xB4E PUSH32 0xFFFFFFFFFFFFFFFFFFFFFFFFFFFFFFFFFFFFFFFFFFFFFFFFFFFFFFFFFFFFFFFF DUP3 PUSH2 0xB13 JUMP JUMPDEST PUSH2 0xB58 DUP7 DUP4 PUSH2 0xB13 JUMP JUMPDEST SWAP6 POP DUP1 NOT DUP5 AND SWAP4 POP DUP1 DUP7 AND DUP5 OR SWAP3 POP POP POP SWAP4 SWAP3 POP POP POP JUMP JUMPDEST PUSH0 DUP2 SWAP1 POP SWAP2 SWAP1 POP JUMP JUMPDEST PUSH0 PUSH2 0xB93 PUSH2 0xB8E PUSH2 0xB89 DUP5 PUSH2 0x823 JUMP JUMPDEST PUSH2 0xB70 JUMP JUMPDEST PUSH2 0x823 JUMP JUMPDEST SWAP1 POP SWAP2 SWAP1 POP JUMP JUMPDEST PUSH0 DUP2 SWAP1 POP SWAP2 SWAP1 POP JUMP JUMPDEST PUSH2 0xBAC DUP4 PUSH2 0xB79 JUMP JUMPDEST PUSH2 0xBC0 PUSH2 0xBB8 DUP3 PUSH2 0xB9A JUMP JUMPDEST DUP5 DUP5 SLOAD PUSH2 0xB1F JUMP JUMPDEST DUP3 SSTORE POP POP POP POP JUMP JUMPDEST PUSH0 SWAP1 JUMP JUMPDEST PUSH2 0xBD4 PUSH2 0xBC8 JUMP JUMPDEST PUSH2 0xBDF DUP2 DUP5 DUP5 PUSH2 0xBA3 JUMP JUMPDEST POP POP POP JUMP JUMPDEST JUMPDEST DUP2 DUP2 LT ISZERO PUSH2 0xC02 JUMPI PUSH2 0xBF7 PUSH0 DUP3 PUSH2 0xBCC JUMP JUMPDEST PUSH1 0x1 DUP2 ADD SWAP1 POP PUSH2 0xBE5 JUMP JUMPDEST POP POP JUMP JUMPDEST PUSH1 0x1F DUP3 GT ISZERO PUSH2 0xC47 JUMPI PUSH2 0xC18 DUP2 PUSH2 0xAF2 JUMP JUMPDEST PUSH2 0xC21 DUP5 PUSH2 0xB04 JUMP JUMPDEST DUP2 ADD PUSH1 0x20 DUP6 LT ISZERO PUSH2 0xC30 JUMPI DUP2 SWAP1 POP JUMPDEST PUSH2 0xC44 PUSH2 0xC3C DUP6 PUSH2 0xB04 JUMP JUMPDEST DUP4 ADD DUP3 PUSH2 0xBE4 JUMP JUMPDEST POP POP JUMPDEST POP POP POP JUMP JUMPDEST PUSH0 DUP3 DUP3 SHR SWAP1 POP SWAP3 SWAP2 POP POP JUMP JUMPDEST PUSH0 PUSH2 0xC67 PUSH0 NOT DUP5 PUSH1 0x8 MUL PUSH2 0xC4C JUMP JUMPDEST NOT DUP1 DUP4 AND SWAP2 POP POP SWAP3 SWAP2 POP POP JUMP JUMPDEST PUSH0 PUSH2 0xC7F DUP4 DUP4 PUSH2 0xC58 JUMP JUMPDEST SWAP2 POP DUP3 PUSH1 0x2 MUL DUP3 OR SWAP1 POP SWAP3 SWAP2 POP POP JUMP JUMPDEST PUSH2 0xC98 DUP3 PUSH2 0x881 JUMP JUMPDEST PUSH8 0xFFFFFFFFFFFFFFFF DUP2 GT ISZERO PUSH2 0xCB1 JUMPI PUSH2 0xCB0 PUSH2 0x6B8 JUMP JUMPDEST JUMPDEST PUSH2 0xCBB DUP3 SLOAD PUSH2 0xAC2 JUMP JUMPDEST PUSH2 0xCC6 DUP3 DUP3 DUP6 PUSH2 0xC06 JUMP JUMPDEST PUSH0 PUSH1 0x20 SWAP1 POP PUSH1 0x1F DUP4 GT PUSH1 0x1 DUP2 EQ PUSH2 0xCF7 JUMPI PUSH0 DUP5 ISZERO PUSH2 0xCE5 JUMPI DUP3 DUP8 ADD MLOAD SWAP1 POP JUMPDEST PUSH2 0xCEF DUP6 DUP3 PUSH2 0xC74 JUMP JUMPDEST DUP7 SSTORE POP PUSH2 0xD56 JUMP JUMPDEST PUSH1 0x1F NOT DUP5 AND PUSH2 0xD05 DUP7 PUSH2 0xAF2 JUMP JUMPDEST PUSH0 JUMPDEST DUP3 DUP2 LT ISZERO PUSH2 0xD2C JUMPI DUP5 DUP10 ADD MLOAD DUP3 SSTORE PUSH1 0x1 DUP3 ADD SWAP2 POP PUSH1 0x20 DUP6 ADD SWAP5 POP PUSH1 0x20 DUP2 ADD SWAP1 POP PUSH2 0xD07 JUMP JUMPDEST DUP7 DUP4 LT ISZERO PUSH2 0xD49 JUMPI DUP5 DUP10 ADD MLOAD PUSH2 0xD45 PUSH1 0x1F DUP10 AND DUP3 PUSH2 0xC58 JUMP JUMPDEST DUP4 SSTORE POP JUMPDEST PUSH1 0x1 PUSH1 0x2 DUP9 MUL ADD DUP9 SSTORE POP POP POP JUMPDEST POP POP POP POP POP POP JUMP JUMPDEST PUSH0 PUSH1 0x60 DUP3 ADD SWAP1 POP PUSH2 0xD71 PUSH0 DUP4 ADD DUP7 PUSH2 0x8FB JUMP JUMPDEST DUP2 DUP2 SUB PUSH1 0x20 DUP4 ADD MSTORE PUSH2 0xD83 DUP2 DUP6 PUSH2 0x8A9 JUMP JUMPDEST SWAP1 POP PUSH2 0xD92 PUSH1 0x40 DUP4 ADD DUP5 PUSH2 0x8FB JUMP JUMPDEST SWAP5 SWAP4 POP POP POP POP JUMP JUMPDEST PUSH32 0x4E6F7420466F756E64205461736B000000000000000000000000000000000000 PUSH0 DUP3 ADD MSTORE POP JUMP JUMPDEST PUSH0 PUSH2 0xDCE PUSH1 0xE DUP4 PUSH2 0x88B JUMP JUMPDEST SWAP2 POP PUSH2 0xDD9 DUP3 PUSH2 0xD9A JUMP JUMPDEST PUSH1 0x20 DUP3 ADD SWAP1 POP SWAP2 SWAP1 POP JUMP JUMPDEST PUSH0 PUSH1 0x20 DUP3 ADD SWAP1 POP DUP2 DUP2 SUB PUSH0 DUP4 ADD MSTORE PUSH2 0xDFB DUP2 PUSH2 0xDC2 JUMP JUMPDEST SWAP1 POP SWAP2 SWAP1 POP JUMP JUMPDEST PUSH0 PUSH1 0x40 DUP3 ADD SWAP1 POP PUSH2 0xE15 PUSH0 DUP4 ADD DUP6 PUSH2 0x8FB JUMP JUMPDEST DUP2 DUP2 SUB PUSH1 0x20 DUP4 ADD MSTORE PUSH2 0xE27 DUP2 DUP5 PUSH2 0x8A9 JUMP JUMPDEST SWAP1 POP SWAP4 SWAP3 POP POP POP JUMP JUMPDEST PUSH0 PUSH1 0x40 DUP3 ADD SWAP1 POP PUSH2 0xE43 PUSH0 DUP4 ADD DUP6 PUSH2 0x8FB JUMP JUMPDEST PUSH2 0xE50 PUSH1 0x20 DUP4 ADD DUP5 PUSH2 0x8EC JUMP JUMPDEST SWAP4 SWAP3 POP POP POP JUMP INVALID LOG2 PUSH5 0x6970667358 0x22 SLT KECCAK256 0x2F 0xEF SLOAD 0xD2 0xC2 PUSH4 0xD4401463 MSIZE 0xEF 0xC0 DELEGATECALL SWAP13 TSTORE 0xC DUP15 0x2A CODECOPY SELFDESTRUCT MLOAD 0xAF COINBASE SWAP4 KECCAK256 0xE4 0xD 0x2B PREVRANDAO ORIGIN POP PUSH5 0x736F6C6343 STOP ADDMOD BYTE STOP CALLER "
		},
		"gasEstimates": {
			"creation": {
				"codeDepositCost": "745000",
				"executionCost": "777",
				"totalCost": "745777"
			},
			"external": {
				"createTask(string)": "infinite",
				"getTask(uint256)": "infinite",
				"modifyTask(uint256,string)": "infinite",
				"setTaskStatus(uint256,bool)": "infinite",
				"taskCount()": "2491",
				"tasks(uint256)": "infinite",
				"toggleTaskStatus(uint256)": "infinite"
			}
		},
		"methodIdentifiers": {
			"createTask(string)": "111002aa",
			"getTask(uint256)": "1d65e77e",
			"modifyTask(uint256,string)": "200c2f2d",
			"setTaskStatus(uint256,bool)": "53cd7b8e",
			"taskCount()": "b6cb58a5",
			"tasks(uint256)": "8d977672",
			"toggleTaskStatus(uint256)": "5357316e"
		}
	},
	"abi": [
		{
			"anonymous": false,
			"inputs": [
				{
					"indexed": false,
					"internalType": "uint256",
					"name": "id",
					"type": "uint256"
				},
				{
					"indexed": false,
					"internalType": "string",
					"name": "name",
					"type": "string"
				},
				{
					"indexed": false,
					"internalType": "uint256",
					"name": "createdAt",
					"type": "uint256"
				}
			],
			"name": "TaskCreated",
			"type": "event"
		},
		{
			"anonymous": false,
			"inputs": [
				{
					"indexed": false,
					"internalType": "uint256",
					"name": "id",
					"type": "uint256"
				},
				{
					"indexed": false,
					"internalType": "string",
					"name": "newName",
					"type": "string"
				}
			],
			"name": "TaskNameUpdated",
			"type": "event"
		},
		{
			"anonymous": false,
			"inputs": [
				{
					"indexed": false,
					"internalType": "uint256",
					"name": "id",
					"type": "uint256"
				},
				{
					"indexed": false,
					"internalType": "bool",
					"name": "completed",
					"type": "bool"
				}
			],
			"name": "TaskStatusToggled",
			"type": "event"
		},
		{
			"inputs": [
				{
					"internalType": "string",
					"name": "_name",
					"type": "string"
				}
			],
			"name": "createTask",
			"outputs": [],
			"stateMutability": "nonpayable",
			"type": "function"
		},
		{
			"inputs": [
				{
					"internalType": "uint256",
					"name": "id",
					"type": "uint256"
				}
			],
			"name": "getTask",
			"outputs": [
				{
					"internalType": "string",
					"name": "name",
					"type": "string"
				},
				{
					"internalType": "bool",
					"name": "completed",
					"type": "bool"
				},
				{
					"internalType": "uint256",
					"name": "createdAt",
					"type": "uint256"
				}
			],
			"stateMutability": "view",
			"type": "function"
		},
		{
			"inputs": [
				{
					"internalType": "uint256",
					"name": "id",
					"type": "uint256"
				},
				{
					"internalType": "string",
					"name": "_newName",
					"type": "string"
				}
			],
			"name": "modifyTask",
			"outputs": [],
			"stateMutability": "nonpayable",
			"type": "function"
		},
		{
			"inputs": [
				{
					"internalType": "uint256",
					"name": "id",
					"type": "uint256"
				},
				{
					"internalType": "bool",
					"name": "status",
					"type": "bool"
				}
			],
			"name": "setTaskStatus",
			"outputs": [],
			"stateMutability": "nonpayable",
			"type": "function"
		},
		{
			"inputs": [],
			"name": "taskCount",
			"outputs": [
				{
					"internalType": "uint256",
					"name": "",
					"type": "uint256"
				}
			],
			"stateMutability": "view",
			"type": "function"
		},
		{
			"inputs": [
				{
					"internalType": "uint256",
					"name": "",
					"type": "uint256"
				}
			],
			"name": "tasks",
			"outputs": [
				{
					"internalType": "string",
					"name": "name",
					"type": "string"
				},
				{
					"internalType": "bool",
					"name": "completed",
					"type": "bool"
				},
				{
					"internalType": "uint256",
					"name": "createAt",
					"type": "uint256"
				}
			],
			"stateMutability": "view",
			"type": "function"
		},
		{
			"inputs": [
				{
					"internalType": "uint256",
					"name": "id",
					"type": "uint256"
				}
			],
			"name": "toggleTaskStatus",
			"outputs": [],
			"stateMutability": "nonpayable",
			"type": "function"
		}
	]
}